{
  "contractName": "AccessControlEnumerableMock",
  "abi": [
    {
      "inputs": [],
      "stateMutability": "nonpayable",
      "type": "constructor"
    },
    {
      "anonymous": false,
      "inputs": [
        {
          "indexed": true,
          "internalType": "bytes32",
          "name": "role",
          "type": "bytes32"
        },
        {
          "indexed": true,
          "internalType": "bytes32",
          "name": "previousAdminRole",
          "type": "bytes32"
        },
        {
          "indexed": true,
          "internalType": "bytes32",
          "name": "newAdminRole",
          "type": "bytes32"
        }
      ],
      "name": "RoleAdminChanged",
      "type": "event"
    },
    {
      "anonymous": false,
      "inputs": [
        {
          "indexed": true,
          "internalType": "bytes32",
          "name": "role",
          "type": "bytes32"
        },
        {
          "indexed": true,
          "internalType": "address",
          "name": "account",
          "type": "address"
        },
        {
          "indexed": true,
          "internalType": "address",
          "name": "sender",
          "type": "address"
        }
      ],
      "name": "RoleGranted",
      "type": "event"
    },
    {
      "anonymous": false,
      "inputs": [
        {
          "indexed": true,
          "internalType": "bytes32",
          "name": "role",
          "type": "bytes32"
        },
        {
          "indexed": true,
          "internalType": "address",
          "name": "account",
          "type": "address"
        },
        {
          "indexed": true,
          "internalType": "address",
          "name": "sender",
          "type": "address"
        }
      ],
      "name": "RoleRevoked",
      "type": "event"
    },
    {
      "inputs": [],
      "name": "DEFAULT_ADMIN_ROLE",
      "outputs": [
        {
          "internalType": "bytes32",
          "name": "",
          "type": "bytes32"
        }
      ],
      "stateMutability": "view",
      "type": "function"
    },
    {
      "inputs": [
        {
          "internalType": "bytes32",
          "name": "role",
          "type": "bytes32"
        }
      ],
      "name": "getRoleAdmin",
      "outputs": [
        {
          "internalType": "bytes32",
          "name": "",
          "type": "bytes32"
        }
      ],
      "stateMutability": "view",
      "type": "function"
    },
    {
      "inputs": [
        {
          "internalType": "bytes32",
          "name": "role",
          "type": "bytes32"
        },
        {
          "internalType": "uint256",
          "name": "index",
          "type": "uint256"
        }
      ],
      "name": "getRoleMember",
      "outputs": [
        {
          "internalType": "address",
          "name": "",
          "type": "address"
        }
      ],
      "stateMutability": "view",
      "type": "function"
    },
    {
      "inputs": [
        {
          "internalType": "bytes32",
          "name": "role",
          "type": "bytes32"
        }
      ],
      "name": "getRoleMemberCount",
      "outputs": [
        {
          "internalType": "uint256",
          "name": "",
          "type": "uint256"
        }
      ],
      "stateMutability": "view",
      "type": "function"
    },
    {
      "inputs": [
        {
          "internalType": "bytes32",
          "name": "role",
          "type": "bytes32"
        },
        {
          "internalType": "address",
          "name": "account",
          "type": "address"
        }
      ],
      "name": "grantRole",
      "outputs": [],
      "stateMutability": "nonpayable",
      "type": "function"
    },
    {
      "inputs": [
        {
          "internalType": "bytes32",
          "name": "role",
          "type": "bytes32"
        },
        {
          "internalType": "address",
          "name": "account",
          "type": "address"
        }
      ],
      "name": "hasRole",
      "outputs": [
        {
          "internalType": "bool",
          "name": "",
          "type": "bool"
        }
      ],
      "stateMutability": "view",
      "type": "function"
    },
    {
      "inputs": [
        {
          "internalType": "bytes32",
          "name": "role",
          "type": "bytes32"
        },
        {
          "internalType": "address",
          "name": "account",
          "type": "address"
        }
      ],
      "name": "renounceRole",
      "outputs": [],
      "stateMutability": "nonpayable",
      "type": "function"
    },
    {
      "inputs": [
        {
          "internalType": "bytes32",
          "name": "role",
          "type": "bytes32"
        },
        {
          "internalType": "address",
          "name": "account",
          "type": "address"
        }
      ],
      "name": "revokeRole",
      "outputs": [],
      "stateMutability": "nonpayable",
      "type": "function"
    },
    {
      "inputs": [
        {
          "internalType": "bytes4",
          "name": "interfaceId",
          "type": "bytes4"
        }
      ],
      "name": "supportsInterface",
      "outputs": [
        {
          "internalType": "bool",
          "name": "",
          "type": "bool"
        }
      ],
      "stateMutability": "view",
      "type": "function"
    },
    {
      "inputs": [
        {
          "internalType": "bytes32",
          "name": "roleId",
          "type": "bytes32"
        },
        {
          "internalType": "bytes32",
          "name": "adminRoleId",
          "type": "bytes32"
        }
      ],
      "name": "setRoleAdmin",
      "outputs": [],
      "stateMutability": "nonpayable",
      "type": "function"
    },
    {
      "inputs": [
        {
          "internalType": "bytes32",
          "name": "roleId",
          "type": "bytes32"
        }
      ],
      "name": "senderProtected",
      "outputs": [],
      "stateMutability": "nonpayable",
      "type": "function"
    }
  ],
  "bytecode": "0x60806040523480156200001157600080fd5b50620000366000801b6200002a6200003c60201b60201c565b6200004460201b60201c565b620002d2565b600033905090565b6200005b82826200008c60201b620004651760201c565b620000878160016000858152602001908152602001600020620000a260201b620004731790919060201c565b505050565b6200009e8282620000da60201b60201c565b5050565b6000620000d2836000018373ffffffffffffffffffffffffffffffffffffffff1660001b620001cb60201b60201c565b905092915050565b620000ec82826200024560201b60201c565b620001c757600160008084815260200190815260200160002060000160008373ffffffffffffffffffffffffffffffffffffffff1673ffffffffffffffffffffffffffffffffffffffff16815260200190815260200160002060006101000a81548160ff0219169083151502179055506200016c6200003c60201b60201c565b73ffffffffffffffffffffffffffffffffffffffff168173ffffffffffffffffffffffffffffffffffffffff16837f2f8788117e7eff1d82e926ec794901d17c78024a50270940304540a733656f0d60405160405180910390a45b5050565b6000620001df8383620002af60201b60201c565b6200023a5782600001829080600181540180825580915050600190039060005260206000200160009091909190915055826000018054905083600101600084815260200190815260200160002081905550600190506200023f565b600090505b92915050565b600080600084815260200190815260200160002060000160008373ffffffffffffffffffffffffffffffffffffffff1673ffffffffffffffffffffffffffffffffffffffff16815260200190815260200160002060009054906101000a900460ff16905092915050565b600080836001016000848152602001908152602001600020541415905092915050565b61162480620002e26000396000f3fe608060405234801561001057600080fd5b50600436106100a95760003560e01c80634b9304a4116100715780634b9304a4146101625780639010d07c1461017e57806391d14854146101ae578063a217fddf146101de578063ca15c873146101fc578063d547741f1461022c576100a9565b806301ffc9a7146100ae5780631e4e0091146100de578063248a9ca3146100fa5780632f2ff15d1461012a57806336568abe14610146575b600080fd5b6100c860048036038101906100c39190610e33565b610248565b6040516100d59190610e7b565b60405180910390f35b6100f860048036038101906100f39190610ecc565b6102c2565b005b610114600480360381019061010f9190610f0c565b6102d0565b6040516101219190610f48565b60405180910390f35b610144600480360381019061013f9190610fc1565b6102ef565b005b610160600480360381019061015b9190610fc1565b610323565b005b61017c60048036038101906101779190610f0c565b610357565b005b61019860048036038101906101939190611037565b61036d565b6040516101a59190611086565b60405180910390f35b6101c860048036038101906101c39190610fc1565b61039c565b6040516101d59190610e7b565b60405180910390f35b6101e6610406565b6040516101f39190610f48565b60405180910390f35b61021660048036038101906102119190610f0c565b61040d565b60405161022391906110b0565b60405180910390f35b61024660048036038101906102419190610fc1565b610431565b005b60007f5a05180f000000000000000000000000000000000000000000000000000000007bffffffffffffffffffffffffffffffffffffffffffffffffffffffff1916827bffffffffffffffffffffffffffffffffffffffffffffffffffffffff191614806102bb57506102ba826104a3565b5b9050919050565b6102cc828261051d565b5050565b6000806000838152602001908152602001600020600101549050919050565b6102f98282610572565b61031e816001600085815260200190815260200160002061047390919063ffffffff16565b505050565b61032d828261059b565b610352816001600085815260200190815260200160002061061e90919063ffffffff16565b505050565b806103698161036461064e565b610656565b5050565b600061039482600160008681526020019081526020016000206106f390919063ffffffff16565b905092915050565b600080600084815260200190815260200160002060000160008373ffffffffffffffffffffffffffffffffffffffff1673ffffffffffffffffffffffffffffffffffffffff16815260200190815260200160002060009054906101000a900460ff16905092915050565b6000801b81565b600061042a6001600084815260200190815260200160002061070d565b9050919050565b61043b8282610722565b610460816001600085815260200190815260200160002061061e90919063ffffffff16565b505050565b61046f828261074b565b5050565b600061049b836000018373ffffffffffffffffffffffffffffffffffffffff1660001b61082b565b905092915050565b60007f7965db0b000000000000000000000000000000000000000000000000000000007bffffffffffffffffffffffffffffffffffffffffffffffffffffffff1916827bffffffffffffffffffffffffffffffffffffffffffffffffffffffff1916148061051657506105158261089b565b5b9050919050565b80610527836102d0565b837fbd79b86ffe0ab8e8776151514217cd7cacd52c909f66475c3af44e129f0b00ff60405160405180910390a480600080848152602001908152602001600020600101819055505050565b61057b826102d0565b61058c8161058761064e565b610656565b610596838361074b565b505050565b6105a361064e565b73ffffffffffffffffffffffffffffffffffffffff168173ffffffffffffffffffffffffffffffffffffffff1614610610576040517f08c379a00000000000000000000000000000000000000000000000000000000081526004016106079061114e565b60405180910390fd5b61061a8282610905565b5050565b6000610646836000018373ffffffffffffffffffffffffffffffffffffffff1660001b6109e6565b905092915050565b600033905090565b610660828261039c565b6106ef576106858173ffffffffffffffffffffffffffffffffffffffff166014610af2565b6106938360001c6020610af2565b6040516020016106a4929190611280565b6040516020818303038152906040526040517f08c379a00000000000000000000000000000000000000000000000000000000081526004016106e69190611304565b60405180910390fd5b5050565b60006107028360000183610d2e565b60001c905092915050565b600061071b82600001610da2565b9050919050565b61072b826102d0565b61073c8161073761064e565b610656565b6107468383610905565b505050565b610755828261039c565b61082757600160008084815260200190815260200160002060000160008373ffffffffffffffffffffffffffffffffffffffff1673ffffffffffffffffffffffffffffffffffffffff16815260200190815260200160002060006101000a81548160ff0219169083151502179055506107cc61064e565b73ffffffffffffffffffffffffffffffffffffffff168173ffffffffffffffffffffffffffffffffffffffff16837f2f8788117e7eff1d82e926ec794901d17c78024a50270940304540a733656f0d60405160405180910390a45b5050565b60006108378383610db3565b610890578260000182908060018154018082558091505060019003906000526020600020016000909190919091505582600001805490508360010160008481526020019081526020016000208190555060019050610895565b600090505b92915050565b60007f01ffc9a7000000000000000000000000000000000000000000000000000000007bffffffffffffffffffffffffffffffffffffffffffffffffffffffff1916827bffffffffffffffffffffffffffffffffffffffffffffffffffffffff1916149050919050565b61090f828261039c565b156109e257600080600084815260200190815260200160002060000160008373ffffffffffffffffffffffffffffffffffffffff1673ffffffffffffffffffffffffffffffffffffffff16815260200190815260200160002060006101000a81548160ff02191690831515021790555061098761064e565b73ffffffffffffffffffffffffffffffffffffffff168173ffffffffffffffffffffffffffffffffffffffff16837ff6391f5c32d9c69d2a47ea670b442974b53935d1edc7fd64eb21e047a839171b60405160405180910390a45b5050565b60008083600101600084815260200190815260200160002054905060008114610ae6576000600182610a189190611355565b9050600060018660000180549050610a309190611355565b90506000866000018281548110610a4a57610a49611389565b5b9060005260206000200154905080876000018481548110610a6e57610a6d611389565b5b9060005260206000200181905550838760010160008381526020019081526020016000208190555086600001805480610aaa57610aa96113b8565b5b60019003818190600052602060002001600090559055866001016000878152602001908152602001600020600090556001945050505050610aec565b60009150505b92915050565b606060006002836002610b0591906113e7565b610b0f9190611441565b67ffffffffffffffff811115610b2857610b27611497565b5b6040519080825280601f01601f191660200182016040528015610b5a5781602001600182028036833780820191505090505b5090507f300000000000000000000000000000000000000000000000000000000000000081600081518110610b9257610b91611389565b5b60200101907effffffffffffffffffffffffffffffffffffffffffffffffffffffffffffff1916908160001a9053507f780000000000000000000000000000000000000000000000000000000000000081600181518110610bf657610bf5611389565b5b60200101907effffffffffffffffffffffffffffffffffffffffffffffffffffffffffffff1916908160001a90535060006001846002610c3691906113e7565b610c409190611441565b90505b6001811115610ce0577f3031323334353637383961626364656600000000000000000000000000000000600f861660108110610c8257610c81611389565b5b1a60f81b828281518110610c9957610c98611389565b5b60200101907effffffffffffffffffffffffffffffffffffffffffffffffffffffffffffff1916908160001a905350600485901c945080610cd9906114c6565b9050610c43565b5060008414610d24576040517f08c379a0000000000000000000000000000000000000000000000000000000008152600401610d1b9061153c565b60405180910390fd5b8091505092915050565b600081836000018054905011610d79576040517f08c379a0000000000000000000000000000000000000000000000000000000008152600401610d70906115ce565b60405180910390fd5b826000018281548110610d8f57610d8e611389565b5b9060005260206000200154905092915050565b600081600001805490509050919050565b600080836001016000848152602001908152602001600020541415905092915050565b600080fd5b60007fffffffff0000000000000000000000000000000000000000000000000000000082169050919050565b610e1081610ddb565b8114610e1b57600080fd5b50565b600081359050610e2d81610e07565b92915050565b600060208284031215610e4957610e48610dd6565b5b6000610e5784828501610e1e565b91505092915050565b60008115159050919050565b610e7581610e60565b82525050565b6000602082019050610e906000830184610e6c565b92915050565b6000819050919050565b610ea981610e96565b8114610eb457600080fd5b50565b600081359050610ec681610ea0565b92915050565b60008060408385031215610ee357610ee2610dd6565b5b6000610ef185828601610eb7565b9250506020610f0285828601610eb7565b9150509250929050565b600060208284031215610f2257610f21610dd6565b5b6000610f3084828501610eb7565b91505092915050565b610f4281610e96565b82525050565b6000602082019050610f5d6000830184610f39565b92915050565b600073ffffffffffffffffffffffffffffffffffffffff82169050919050565b6000610f8e82610f63565b9050919050565b610f9e81610f83565b8114610fa957600080fd5b50565b600081359050610fbb81610f95565b92915050565b60008060408385031215610fd857610fd7610dd6565b5b6000610fe685828601610eb7565b9250506020610ff785828601610fac565b9150509250929050565b6000819050919050565b61101481611001565b811461101f57600080fd5b50565b6000813590506110318161100b565b92915050565b6000806040838503121561104e5761104d610dd6565b5b600061105c85828601610eb7565b925050602061106d85828601611022565b9150509250929050565b61108081610f83565b82525050565b600060208201905061109b6000830184611077565b92915050565b6110aa81611001565b82525050565b60006020820190506110c560008301846110a1565b92915050565b600082825260208201905092915050565b7f416363657373436f6e74726f6c3a2063616e206f6e6c792072656e6f756e636560008201527f20726f6c657320666f722073656c660000000000000000000000000000000000602082015250565b6000611138602f836110cb565b9150611143826110dc565b604082019050919050565b600060208201905081810360008301526111678161112b565b9050919050565b600081905092915050565b7f416363657373436f6e74726f6c3a206163636f756e7420000000000000000000600082015250565b60006111af60178361116e565b91506111ba82611179565b601782019050919050565b600081519050919050565b60005b838110156111ee5780820151818401526020810190506111d3565b838111156111fd576000848401525b50505050565b600061120e826111c5565b611218818561116e565b93506112288185602086016111d0565b80840191505092915050565b7f206973206d697373696e6720726f6c6520000000000000000000000000000000600082015250565b600061126a60118361116e565b915061127582611234565b601182019050919050565b600061128b826111a2565b91506112978285611203565b91506112a28261125d565b91506112ae8284611203565b91508190509392505050565b6000601f19601f8301169050919050565b60006112d6826111c5565b6112e081856110cb565b93506112f08185602086016111d0565b6112f9816112ba565b840191505092915050565b6000602082019050818103600083015261131e81846112cb565b905092915050565b7f4e487b7100000000000000000000000000000000000000000000000000000000600052601160045260246000fd5b600061136082611001565b915061136b83611001565b92508282101561137e5761137d611326565b5b828203905092915050565b7f4e487b7100000000000000000000000000000000000000000000000000000000600052603260045260246000fd5b7f4e487b7100000000000000000000000000000000000000000000000000000000600052603160045260246000fd5b60006113f282611001565b91506113fd83611001565b9250817fffffffffffffffffffffffffffffffffffffffffffffffffffffffffffffffff048311821515161561143657611435611326565b5b828202905092915050565b600061144c82611001565b915061145783611001565b9250827fffffffffffffffffffffffffffffffffffffffffffffffffffffffffffffffff0382111561148c5761148b611326565b5b828201905092915050565b7f4e487b7100000000000000000000000000000000000000000000000000000000600052604160045260246000fd5b60006114d182611001565b915060008214156114e5576114e4611326565b5b600182039050919050565b7f537472696e67733a20686578206c656e67746820696e73756666696369656e74600082015250565b60006115266020836110cb565b9150611531826114f0565b602082019050919050565b6000602082019050818103600083015261155581611519565b9050919050565b7f456e756d657261626c655365743a20696e646578206f7574206f6620626f756e60008201527f6473000000000000000000000000000000000000000000000000000000000000602082015250565b60006115b86022836110cb565b91506115c38261155c565b604082019050919050565b600060208201905081810360008301526115e7816115ab565b905091905056fea26469706673582212202c3b856375cd348b3560167a1cc4530a0ad4f115da0da41a7400e771a595131664736f6c634300080a0033",
  "immutableReferences": {},
  "source": "// SPDX-License-Identifier: MIT\n\npragma solidity ^0.8.0;\n\nimport \"../access/AccessControlEnumerable.sol\";\n\ncontract AccessControlEnumerableMock is AccessControlEnumerable {\n    constructor() {\n        _setupRole(DEFAULT_ADMIN_ROLE, _msgSender());\n    }\n\n    function setRoleAdmin(bytes32 roleId, bytes32 adminRoleId) public {\n        _setRoleAdmin(roleId, adminRoleId);\n    }\n\n    function senderProtected(bytes32 roleId) public onlyRole(roleId) {}\n}\n",
  "sourcePath": "D:\\FYP\\FYP\\Dapp\\src\\contracts\\openzeppelin-contracts-4.1.0\\openzeppelin-contracts-4.1.0\\contracts\\mocks\\AccessControlEnumerableMock.sol",
  "compiler": {
    "name": "solc",
    "version": "0.8.10+commit.fc410830.Emscripten.clang"
  },
  "schemaVersion": "3.4.3",
  "updatedAt": "2021-11-25T02:44:54.900Z",
  "devdoc": {
    "kind": "dev",
    "methods": {
      "getRoleAdmin(bytes32)": {
        "details": "Returns the admin role that controls `role`. See {grantRole} and {revokeRole}. To change a role's admin, use {_setRoleAdmin}."
      },
      "getRoleMember(bytes32,uint256)": {
        "details": "Returns one of the accounts that have `role`. `index` must be a value between 0 and {getRoleMemberCount}, non-inclusive. Role bearers are not sorted in any particular way, and their ordering may change at any point. WARNING: When using {getRoleMember} and {getRoleMemberCount}, make sure you perform all queries on the same block. See the following https://forum.openzeppelin.com/t/iterating-over-elements-on-enumerableset-in-openzeppelin-contracts/2296[forum post] for more information."
      },
      "getRoleMemberCount(bytes32)": {
        "details": "Returns the number of accounts that have `role`. Can be used together with {getRoleMember} to enumerate all bearers of a role."
      },
      "grantRole(bytes32,address)": {
        "details": "Overload {grantRole} to track enumerable memberships"
      },
      "hasRole(bytes32,address)": {
        "details": "Returns `true` if `account` has been granted `role`."
      },
      "renounceRole(bytes32,address)": {
        "details": "Overload {renounceRole} to track enumerable memberships"
      },
      "revokeRole(bytes32,address)": {
        "details": "Overload {revokeRole} to track enumerable memberships"
      },
      "supportsInterface(bytes4)": {
        "details": "See {IERC165-supportsInterface}."
      }
    },
    "version": 1
  },
  "userdoc": {
    "kind": "user",
    "methods": {},
    "version": 1
  }
}