{
  "contractName": "ArraysImpl",
  "abi": [
    {
      "inputs": [
        {
          "internalType": "uint256[]",
          "name": "array",
          "type": "uint256[]"
        }
      ],
      "stateMutability": "nonpayable",
      "type": "constructor"
    },
    {
      "inputs": [
        {
          "internalType": "uint256",
          "name": "element",
          "type": "uint256"
        }
      ],
      "name": "findUpperBound",
      "outputs": [
        {
          "internalType": "uint256",
          "name": "",
          "type": "uint256"
        }
      ],
      "stateMutability": "view",
      "type": "function"
    }
  ],
  "bytecode": "0x608060405234801561001057600080fd5b506040516106b33803806106b38339818101604052810190610032919061025c565b806000908051906020019061004892919061004f565b50506102a5565b82805482825590600052602060002090810192821561008b579160200282015b8281111561008a57825182559160200191906001019061006f565b5b509050610098919061009c565b5090565b5b808211156100b557600081600090555060010161009d565b5090565b6000604051905090565b600080fd5b600080fd5b600080fd5b6000601f19601f8301169050919050565b7f4e487b7100000000000000000000000000000000000000000000000000000000600052604160045260246000fd5b61011b826100d2565b810181811067ffffffffffffffff8211171561013a576101396100e3565b5b80604052505050565b600061014d6100b9565b90506101598282610112565b919050565b600067ffffffffffffffff821115610179576101786100e3565b5b602082029050602081019050919050565b600080fd5b6000819050919050565b6101a28161018f565b81146101ad57600080fd5b50565b6000815190506101bf81610199565b92915050565b60006101d86101d38461015e565b610143565b905080838252602082019050602084028301858111156101fb576101fa61018a565b5b835b81811015610224578061021088826101b0565b8452602084019350506020810190506101fd565b5050509392505050565b600082601f830112610243576102426100cd565b5b81516102538482602086016101c5565b91505092915050565b600060208284031215610272576102716100c3565b5b600082015167ffffffffffffffff8111156102905761028f6100c8565b5b61029c8482850161022e565b91505092915050565b6103ff806102b46000396000f3fe608060405234801561001057600080fd5b506004361061002b5760003560e01c806333e3a58a14610030575b600080fd5b61004a600480360381019061004591906101f9565b610060565b6040516100579190610235565b60405180910390f35b600061007682600061007d90919063ffffffff16565b9050919050565b600080838054905014156100945760009050610151565b600080848054905090505b808210156100f85760006100b38383610157565b9050848682815481106100c9576100c8610250565b5b906000526020600020015411156100e2578091506100f2565b6001816100ef91906102ae565b92505b5061009f565b600082118015610130575083856001846101129190610304565b8154811061012357610122610250565b5b9060005260206000200154145b1561014b576001826101429190610304565b92505050610151565b81925050505b92915050565b6000600280836101679190610367565b6002856101749190610367565b61017e91906102ae565b6101889190610398565b6002836101959190610398565b6002856101a29190610398565b6101ac91906102ae565b6101b691906102ae565b905092915050565b600080fd5b6000819050919050565b6101d6816101c3565b81146101e157600080fd5b50565b6000813590506101f3816101cd565b92915050565b60006020828403121561020f5761020e6101be565b5b600061021d848285016101e4565b91505092915050565b61022f816101c3565b82525050565b600060208201905061024a6000830184610226565b92915050565b7f4e487b7100000000000000000000000000000000000000000000000000000000600052603260045260246000fd5b7f4e487b7100000000000000000000000000000000000000000000000000000000600052601160045260246000fd5b60006102b9826101c3565b91506102c4836101c3565b9250827fffffffffffffffffffffffffffffffffffffffffffffffffffffffffffffffff038211156102f9576102f861027f565b5b828201905092915050565b600061030f826101c3565b915061031a836101c3565b92508282101561032d5761032c61027f565b5b828203905092915050565b7f4e487b7100000000000000000000000000000000000000000000000000000000600052601260045260246000fd5b6000610372826101c3565b915061037d836101c3565b92508261038d5761038c610338565b5b828206905092915050565b60006103a3826101c3565b91506103ae836101c3565b9250826103be576103bd610338565b5b82820490509291505056fea264697066735822122066e7eb5649f263dcd5d332372ddcafc66cc275d23dcdd980d92d2f6a892df64c64736f6c634300080a0033",
  "immutableReferences": {},
  "source": "// SPDX-License-Identifier: MIT\n\npragma solidity ^0.8.0;\n\nimport \"../utils/Arrays.sol\";\n\ncontract ArraysImpl {\n    using Arrays for uint256[];\n\n    uint256[] private _array;\n\n    constructor (uint256[] memory array) {\n        _array = array;\n    }\n\n    function findUpperBound(uint256 element) external view returns (uint256) {\n        return _array.findUpperBound(element);\n    }\n}\n",
  "sourcePath": "D:\\FYP\\FYP\\Dapp\\src\\contracts\\openzeppelin-contracts-4.1.0\\openzeppelin-contracts-4.1.0\\contracts\\mocks\\ArraysImpl.sol",
  "compiler": {
    "name": "solc",
    "version": "0.8.10+commit.fc410830.Emscripten.clang"
  },
  "schemaVersion": "3.4.3",
  "updatedAt": "2021-11-25T02:44:54.924Z",
  "devdoc": {
    "kind": "dev",
    "methods": {},
    "version": 1
  },
  "userdoc": {
    "kind": "user",
    "methods": {},
    "version": 1
  }
}