{
  "contractName": "CountersImpl",
  "abi": [
    {
      "inputs": [],
      "name": "current",
      "outputs": [
        {
          "internalType": "uint256",
          "name": "",
          "type": "uint256"
        }
      ],
      "stateMutability": "view",
      "type": "function"
    },
    {
      "inputs": [],
      "name": "increment",
      "outputs": [],
      "stateMutability": "nonpayable",
      "type": "function"
    },
    {
      "inputs": [],
      "name": "decrement",
      "outputs": [],
      "stateMutability": "nonpayable",
      "type": "function"
    }
  ],
  "bytecode": "0x608060405234801561001057600080fd5b50610208806100206000396000f3fe608060405234801561001057600080fd5b50600436106100415760003560e01c80632baeceb7146100465780639fa6a6e314610050578063d09de08a1461006e575b600080fd5b61004e610078565b005b610058610084565b604051610065919061013a565b60405180910390f35b610076610095565b005b61008260006100a1565b565b600061009060006100fd565b905090565b61009f600061010b565b565b600081600001549050600081116100ed576040517f08c379a00000000000000000000000000000000000000000000000000000000081526004016100e4906101b2565b60405180910390fd5b6001810382600001819055505050565b600081600001549050919050565b6001816000016000828254019250508190555050565b6000819050919050565b61013481610121565b82525050565b600060208201905061014f600083018461012b565b92915050565b600082825260208201905092915050565b7f436f756e7465723a2064656372656d656e74206f766572666c6f770000000000600082015250565b600061019c601b83610155565b91506101a782610166565b602082019050919050565b600060208201905081810360008301526101cb8161018f565b905091905056fea26469706673582212201ec0c5d5c76ef7f6fd24016473d7230a73e4b99d3ab4808180d9d2e4568fcf6a64736f6c634300080a0033",
  "immutableReferences": {},
  "source": "// SPDX-License-Identifier: MIT\n\npragma solidity ^0.8.0;\n\nimport \"../utils/Counters.sol\";\n\ncontract CountersImpl {\n    using Counters for Counters.Counter;\n\n    Counters.Counter private _counter;\n\n    function current() public view returns (uint256) {\n        return _counter.current();\n    }\n\n    function increment() public {\n        _counter.increment();\n    }\n\n    function decrement() public {\n        _counter.decrement();\n    }\n}\n",
  "sourcePath": "D:\\FYP\\FYP\\Dapp\\src\\contracts\\openzeppelin-contracts-4.1.0\\openzeppelin-contracts-4.1.0\\contracts\\mocks\\CountersImpl.sol",
  "compiler": {
    "name": "solc",
    "version": "0.8.10+commit.fc410830.Emscripten.clang"
  },
  "schemaVersion": "3.4.3",
  "updatedAt": "2021-11-25T02:44:54.958Z",
  "devdoc": {
    "kind": "dev",
    "methods": {},
    "version": 1
  },
  "userdoc": {
    "kind": "user",
    "methods": {},
    "version": 1
  }
}