{
  "contractName": "ECDSAMock",
  "abi": [
    {
      "inputs": [
        {
          "internalType": "bytes32",
          "name": "hash",
          "type": "bytes32"
        },
        {
          "internalType": "bytes",
          "name": "signature",
          "type": "bytes"
        }
      ],
      "name": "recover",
      "outputs": [
        {
          "internalType": "address",
          "name": "",
          "type": "address"
        }
      ],
      "stateMutability": "pure",
      "type": "function"
    },
    {
      "inputs": [
        {
          "internalType": "bytes32",
          "name": "hash",
          "type": "bytes32"
        }
      ],
      "name": "toEthSignedMessageHash",
      "outputs": [
        {
          "internalType": "bytes32",
          "name": "",
          "type": "bytes32"
        }
      ],
      "stateMutability": "pure",
      "type": "function"
    }
  ],
  "bytecode": "0x608060405234801561001057600080fd5b50610930806100206000396000f3fe608060405234801561001057600080fd5b50600436106100365760003560e01c806319045a251461003b578063918a15cf1461006b575b600080fd5b610055600480360381019061005091906104df565b61009b565b604051610062919061057c565b60405180910390f35b61008560048036038101906100809190610597565b6100b8565b60405161009291906105d3565b60405180910390f35b60006100b082846100ca90919063ffffffff16565b905092915050565b60006100c382610194565b9050919050565b6000806000806041855114156100f7576020850151925060408501519150606085015160001a905061017d565b604085511415610141576040850151602086015193507f7fffffffffffffffffffffffffffffffffffffffffffffffffffffffffffffff81169250601b8160ff1c0191505061017c565b6040517f08c379a00000000000000000000000000000000000000000000000000000000081526004016101739061064b565b60405180910390fd5b5b610189868285856101c4565b935050505092915050565b6000816040516020016101a791906106e3565b604051602081830303815290604052805190602001209050919050565b60007f7fffffffffffffffffffffffffffffff5d576e7357a4501ddfe92f46681b20a08260001c111561022c576040517f08c379a00000000000000000000000000000000000000000000000000000000081526004016102239061077b565b60405180910390fd5b601b8460ff1614806102415750601c8460ff16145b610280576040517f08c379a00000000000000000000000000000000000000000000000000000000081526004016102779061080d565b60405180910390fd5b6000600186868686604051600081526020016040526040516102a59493929190610849565b6020604051602081039080840390855afa1580156102c7573d6000803e3d6000fd5b505050602060405103519050600073ffffffffffffffffffffffffffffffffffffffff168173ffffffffffffffffffffffffffffffffffffffff161415610343576040517f08c379a000000000000000000000000000000000000000000000000000000000815260040161033a906108da565b60405180910390fd5b80915050949350505050565b6000604051905090565b600080fd5b600080fd5b6000819050919050565b61037681610363565b811461038157600080fd5b50565b6000813590506103938161036d565b92915050565b600080fd5b600080fd5b6000601f19601f8301169050919050565b7f4e487b7100000000000000000000000000000000000000000000000000000000600052604160045260246000fd5b6103ec826103a3565b810181811067ffffffffffffffff8211171561040b5761040a6103b4565b5b80604052505050565b600061041e61034f565b905061042a82826103e3565b919050565b600067ffffffffffffffff82111561044a576104496103b4565b5b610453826103a3565b9050602081019050919050565b82818337600083830152505050565b600061048261047d8461042f565b610414565b90508281526020810184848401111561049e5761049d61039e565b5b6104a9848285610460565b509392505050565b600082601f8301126104c6576104c5610399565b5b81356104d684826020860161046f565b91505092915050565b600080604083850312156104f6576104f5610359565b5b600061050485828601610384565b925050602083013567ffffffffffffffff8111156105255761052461035e565b5b610531858286016104b1565b9150509250929050565b600073ffffffffffffffffffffffffffffffffffffffff82169050919050565b60006105668261053b565b9050919050565b6105768161055b565b82525050565b6000602082019050610591600083018461056d565b92915050565b6000602082840312156105ad576105ac610359565b5b60006105bb84828501610384565b91505092915050565b6105cd81610363565b82525050565b60006020820190506105e860008301846105c4565b92915050565b600082825260208201905092915050565b7f45434453413a20696e76616c6964207369676e6174757265206c656e67746800600082015250565b6000610635601f836105ee565b9150610640826105ff565b602082019050919050565b6000602082019050818103600083015261066481610628565b9050919050565b600081905092915050565b7f19457468657265756d205369676e6564204d6573736167653a0a333200000000600082015250565b60006106ac601c8361066b565b91506106b782610676565b601c82019050919050565b6000819050919050565b6106dd6106d882610363565b6106c2565b82525050565b60006106ee8261069f565b91506106fa82846106cc565b60208201915081905092915050565b7f45434453413a20696e76616c6964207369676e6174757265202773272076616c60008201527f7565000000000000000000000000000000000000000000000000000000000000602082015250565b60006107656022836105ee565b915061077082610709565b604082019050919050565b6000602082019050818103600083015261079481610758565b9050919050565b7f45434453413a20696e76616c6964207369676e6174757265202776272076616c60008201527f7565000000000000000000000000000000000000000000000000000000000000602082015250565b60006107f76022836105ee565b91506108028261079b565b604082019050919050565b60006020820190508181036000830152610826816107ea565b9050919050565b600060ff82169050919050565b6108438161082d565b82525050565b600060808201905061085e60008301876105c4565b61086b602083018661083a565b61087860408301856105c4565b61088560608301846105c4565b95945050505050565b7f45434453413a20696e76616c6964207369676e61747572650000000000000000600082015250565b60006108c46018836105ee565b91506108cf8261088e565b602082019050919050565b600060208201905081810360008301526108f3816108b7565b905091905056fea26469706673582212205cc1ce60521688375572946c08612d98a7f2ca7082705dcf69ca301dd5e80f3b64736f6c634300080a0033",
  "immutableReferences": {},
  "source": "// SPDX-License-Identifier: MIT\n\npragma solidity ^0.8.0;\n\nimport \"../utils/cryptography/ECDSA.sol\";\n\ncontract ECDSAMock {\n    using ECDSA for bytes32;\n\n    function recover(bytes32 hash, bytes memory signature) public pure returns (address) {\n        return hash.recover(signature);\n    }\n\n    function toEthSignedMessageHash(bytes32 hash) public pure returns (bytes32) {\n        return hash.toEthSignedMessageHash();\n    }\n}\n",
  "sourcePath": "D:\\FYP\\FYP\\Dapp\\src\\contracts\\openzeppelin-contracts-4.1.0\\openzeppelin-contracts-4.1.0\\contracts\\mocks\\ECDSAMock.sol",
  "compiler": {
    "name": "solc",
    "version": "0.8.10+commit.fc410830.Emscripten.clang"
  },
  "schemaVersion": "3.4.3",
  "updatedAt": "2021-11-25T02:44:54.981Z",
  "devdoc": {
    "kind": "dev",
    "methods": {},
    "version": 1
  },
  "userdoc": {
    "kind": "user",
    "methods": {},
    "version": 1
  }
}