{
  "contractName": "EnumerableBytes32SetMock",
  "abi": [
    {
      "anonymous": false,
      "inputs": [
        {
          "indexed": false,
          "internalType": "bool",
          "name": "result",
          "type": "bool"
        }
      ],
      "name": "OperationResult",
      "type": "event"
    },
    {
      "inputs": [
        {
          "internalType": "bytes32",
          "name": "value",
          "type": "bytes32"
        }
      ],
      "name": "contains",
      "outputs": [
        {
          "internalType": "bool",
          "name": "",
          "type": "bool"
        }
      ],
      "stateMutability": "view",
      "type": "function"
    },
    {
      "inputs": [
        {
          "internalType": "bytes32",
          "name": "value",
          "type": "bytes32"
        }
      ],
      "name": "add",
      "outputs": [],
      "stateMutability": "nonpayable",
      "type": "function"
    },
    {
      "inputs": [
        {
          "internalType": "bytes32",
          "name": "value",
          "type": "bytes32"
        }
      ],
      "name": "remove",
      "outputs": [],
      "stateMutability": "nonpayable",
      "type": "function"
    },
    {
      "inputs": [],
      "name": "length",
      "outputs": [
        {
          "internalType": "uint256",
          "name": "",
          "type": "uint256"
        }
      ],
      "stateMutability": "view",
      "type": "function"
    },
    {
      "inputs": [
        {
          "internalType": "uint256",
          "name": "index",
          "type": "uint256"
        }
      ],
      "name": "at",
      "outputs": [
        {
          "internalType": "bytes32",
          "name": "",
          "type": "bytes32"
        }
      ],
      "stateMutability": "view",
      "type": "function"
    }
  ],
  "bytecode": "0x608060405234801561001057600080fd5b50610787806100206000396000f3fe608060405234801561001057600080fd5b50600436106100575760003560e01c80631d1a696d1461005c5780631f7b6d321461008c578063446bffba146100aa57806395bc2673146100c6578063e0886f90146100e2575b600080fd5b610076600480360381019061007191906104d3565b610112565b604051610083919061051b565b60405180910390f35b61009461012f565b6040516100a1919061054f565b60405180910390f35b6100c460048036038101906100bf91906104d3565b610140565b005b6100e060048036038101906100db91906104d3565b610193565b005b6100fc60048036038101906100f79190610596565b6101e6565b60405161010991906105d2565b60405180910390f35b600061012882600061020390919063ffffffff16565b9050919050565b600061013b600061021a565b905090565b600061015682600061022f90919063ffffffff16565b90507fed9840e0775590557ad736875d96c95cf1458b766335f74339951a32c82a9e3381604051610187919061051b565b60405180910390a15050565b60006101a982600061024690919063ffffffff16565b90507fed9840e0775590557ad736875d96c95cf1458b766335f74339951a32c82a9e33816040516101da919061051b565b60405180910390a15050565b60006101fc82600061025d90919063ffffffff16565b9050919050565b60006102128360000183610274565b905092915050565b600061022882600001610297565b9050919050565b600061023e83600001836102a8565b905092915050565b60006102558360000183610318565b905092915050565b600061026c8360000183610424565b905092915050565b600080836001016000848152602001908152602001600020541415905092915050565b600081600001805490509050919050565b60006102b48383610274565b61030d578260000182908060018154018082558091505060019003906000526020600020016000909190919091505582600001805490508360010160008481526020019081526020016000208190555060019050610312565b600090505b92915050565b6000808360010160008481526020019081526020016000205490506000811461041857600060018261034a919061061c565b9050600060018660000180549050610362919061061c565b9050600086600001828154811061037c5761037b610650565b5b90600052602060002001549050808760000184815481106103a05761039f610650565b5b90600052602060002001819055508387600101600083815260200190815260200160002081905550866000018054806103dc576103db61067f565b5b6001900381819060005260206000200160009055905586600101600087815260200190815260200160002060009055600194505050505061041e565b60009150505b92915050565b60008183600001805490501161046f576040517f08c379a000000000000000000000000000000000000000000000000000000000815260040161046690610731565b60405180910390fd5b82600001828154811061048557610484610650565b5b9060005260206000200154905092915050565b600080fd5b6000819050919050565b6104b08161049d565b81146104bb57600080fd5b50565b6000813590506104cd816104a7565b92915050565b6000602082840312156104e9576104e8610498565b5b60006104f7848285016104be565b91505092915050565b60008115159050919050565b61051581610500565b82525050565b6000602082019050610530600083018461050c565b92915050565b6000819050919050565b61054981610536565b82525050565b60006020820190506105646000830184610540565b92915050565b61057381610536565b811461057e57600080fd5b50565b6000813590506105908161056a565b92915050565b6000602082840312156105ac576105ab610498565b5b60006105ba84828501610581565b91505092915050565b6105cc8161049d565b82525050565b60006020820190506105e760008301846105c3565b92915050565b7f4e487b7100000000000000000000000000000000000000000000000000000000600052601160045260246000fd5b600061062782610536565b915061063283610536565b925082821015610645576106446105ed565b5b828203905092915050565b7f4e487b7100000000000000000000000000000000000000000000000000000000600052603260045260246000fd5b7f4e487b7100000000000000000000000000000000000000000000000000000000600052603160045260246000fd5b600082825260208201905092915050565b7f456e756d657261626c655365743a20696e646578206f7574206f6620626f756e60008201527f6473000000000000000000000000000000000000000000000000000000000000602082015250565b600061071b6022836106ae565b9150610726826106bf565b604082019050919050565b6000602082019050818103600083015261074a8161070e565b905091905056fea2646970667358221220dc1bd1870de132b77d7f385a8620a844c45b0e03ed32742b32eb0f3d64dbd84a64736f6c634300080a0033",
  "immutableReferences": {},
  "source": "// SPDX-License-Identifier: MIT\n\npragma solidity ^0.8.0;\n\nimport \"../utils/structs/EnumerableSet.sol\";\n\n// Bytes32Set\ncontract EnumerableBytes32SetMock {\n    using EnumerableSet for EnumerableSet.Bytes32Set;\n\n    event OperationResult(bool result);\n\n    EnumerableSet.Bytes32Set private _set;\n\n    function contains(bytes32 value) public view returns (bool) {\n        return _set.contains(value);\n    }\n\n    function add(bytes32 value) public {\n        bool result = _set.add(value);\n        emit OperationResult(result);\n    }\n\n    function remove(bytes32 value) public {\n        bool result = _set.remove(value);\n        emit OperationResult(result);\n    }\n\n    function length() public view returns (uint256) {\n        return _set.length();\n    }\n\n    function at(uint256 index) public view returns (bytes32) {\n        return _set.at(index);\n    }\n}\n\n// AddressSet\ncontract EnumerableAddressSetMock {\n    using EnumerableSet for EnumerableSet.AddressSet;\n\n    event OperationResult(bool result);\n\n    EnumerableSet.AddressSet private _set;\n\n    function contains(address value) public view returns (bool) {\n        return _set.contains(value);\n    }\n\n    function add(address value) public {\n        bool result = _set.add(value);\n        emit OperationResult(result);\n    }\n\n    function remove(address value) public {\n        bool result = _set.remove(value);\n        emit OperationResult(result);\n    }\n\n    function length() public view returns (uint256) {\n        return _set.length();\n    }\n\n    function at(uint256 index) public view returns (address) {\n        return _set.at(index);\n    }\n}\n\n// UintSet\ncontract EnumerableUintSetMock {\n    using EnumerableSet for EnumerableSet.UintSet;\n\n    event OperationResult(bool result);\n\n    EnumerableSet.UintSet private _set;\n\n    function contains(uint256 value) public view returns (bool) {\n        return _set.contains(value);\n    }\n\n    function add(uint256 value) public {\n        bool result = _set.add(value);\n        emit OperationResult(result);\n    }\n\n    function remove(uint256 value) public {\n        bool result = _set.remove(value);\n        emit OperationResult(result);\n    }\n\n    function length() public view returns (uint256) {\n        return _set.length();\n    }\n\n    function at(uint256 index) public view returns (uint256) {\n        return _set.at(index);\n    }\n}\n",
  "sourcePath": "D:\\FYP\\FYP\\Dapp\\src\\contracts\\openzeppelin-contracts-4.1.0\\openzeppelin-contracts-4.1.0\\contracts\\mocks\\EnumerableSetMock.sol",
  "compiler": {
    "name": "solc",
    "version": "0.8.10+commit.fc410830.Emscripten.clang"
  },
  "schemaVersion": "3.4.3",
  "updatedAt": "2021-11-25T02:44:55.308Z",
  "devdoc": {
    "kind": "dev",
    "methods": {},
    "version": 1
  },
  "userdoc": {
    "kind": "user",
    "methods": {},
    "version": 1
  }
}