{
  "contractName": "ERC1155BurnableMock",
  "abi": [
    {
      "inputs": [
        {
          "internalType": "string",
          "name": "uri",
          "type": "string"
        }
      ],
      "stateMutability": "nonpayable",
      "type": "constructor"
    },
    {
      "anonymous": false,
      "inputs": [
        {
          "indexed": true,
          "internalType": "address",
          "name": "account",
          "type": "address"
        },
        {
          "indexed": true,
          "internalType": "address",
          "name": "operator",
          "type": "address"
        },
        {
          "indexed": false,
          "internalType": "bool",
          "name": "approved",
          "type": "bool"
        }
      ],
      "name": "ApprovalForAll",
      "type": "event"
    },
    {
      "anonymous": false,
      "inputs": [
        {
          "indexed": true,
          "internalType": "address",
          "name": "operator",
          "type": "address"
        },
        {
          "indexed": true,
          "internalType": "address",
          "name": "from",
          "type": "address"
        },
        {
          "indexed": true,
          "internalType": "address",
          "name": "to",
          "type": "address"
        },
        {
          "indexed": false,
          "internalType": "uint256[]",
          "name": "ids",
          "type": "uint256[]"
        },
        {
          "indexed": false,
          "internalType": "uint256[]",
          "name": "values",
          "type": "uint256[]"
        }
      ],
      "name": "TransferBatch",
      "type": "event"
    },
    {
      "anonymous": false,
      "inputs": [
        {
          "indexed": true,
          "internalType": "address",
          "name": "operator",
          "type": "address"
        },
        {
          "indexed": true,
          "internalType": "address",
          "name": "from",
          "type": "address"
        },
        {
          "indexed": true,
          "internalType": "address",
          "name": "to",
          "type": "address"
        },
        {
          "indexed": false,
          "internalType": "uint256",
          "name": "id",
          "type": "uint256"
        },
        {
          "indexed": false,
          "internalType": "uint256",
          "name": "value",
          "type": "uint256"
        }
      ],
      "name": "TransferSingle",
      "type": "event"
    },
    {
      "anonymous": false,
      "inputs": [
        {
          "indexed": false,
          "internalType": "string",
          "name": "value",
          "type": "string"
        },
        {
          "indexed": true,
          "internalType": "uint256",
          "name": "id",
          "type": "uint256"
        }
      ],
      "name": "URI",
      "type": "event"
    },
    {
      "inputs": [
        {
          "internalType": "address",
          "name": "account",
          "type": "address"
        },
        {
          "internalType": "uint256",
          "name": "id",
          "type": "uint256"
        }
      ],
      "name": "balanceOf",
      "outputs": [
        {
          "internalType": "uint256",
          "name": "",
          "type": "uint256"
        }
      ],
      "stateMutability": "view",
      "type": "function"
    },
    {
      "inputs": [
        {
          "internalType": "address[]",
          "name": "accounts",
          "type": "address[]"
        },
        {
          "internalType": "uint256[]",
          "name": "ids",
          "type": "uint256[]"
        }
      ],
      "name": "balanceOfBatch",
      "outputs": [
        {
          "internalType": "uint256[]",
          "name": "",
          "type": "uint256[]"
        }
      ],
      "stateMutability": "view",
      "type": "function"
    },
    {
      "inputs": [
        {
          "internalType": "address",
          "name": "account",
          "type": "address"
        },
        {
          "internalType": "uint256",
          "name": "id",
          "type": "uint256"
        },
        {
          "internalType": "uint256",
          "name": "value",
          "type": "uint256"
        }
      ],
      "name": "burn",
      "outputs": [],
      "stateMutability": "nonpayable",
      "type": "function"
    },
    {
      "inputs": [
        {
          "internalType": "address",
          "name": "account",
          "type": "address"
        },
        {
          "internalType": "uint256[]",
          "name": "ids",
          "type": "uint256[]"
        },
        {
          "internalType": "uint256[]",
          "name": "values",
          "type": "uint256[]"
        }
      ],
      "name": "burnBatch",
      "outputs": [],
      "stateMutability": "nonpayable",
      "type": "function"
    },
    {
      "inputs": [
        {
          "internalType": "address",
          "name": "account",
          "type": "address"
        },
        {
          "internalType": "address",
          "name": "operator",
          "type": "address"
        }
      ],
      "name": "isApprovedForAll",
      "outputs": [
        {
          "internalType": "bool",
          "name": "",
          "type": "bool"
        }
      ],
      "stateMutability": "view",
      "type": "function"
    },
    {
      "inputs": [
        {
          "internalType": "address",
          "name": "from",
          "type": "address"
        },
        {
          "internalType": "address",
          "name": "to",
          "type": "address"
        },
        {
          "internalType": "uint256[]",
          "name": "ids",
          "type": "uint256[]"
        },
        {
          "internalType": "uint256[]",
          "name": "amounts",
          "type": "uint256[]"
        },
        {
          "internalType": "bytes",
          "name": "data",
          "type": "bytes"
        }
      ],
      "name": "safeBatchTransferFrom",
      "outputs": [],
      "stateMutability": "nonpayable",
      "type": "function"
    },
    {
      "inputs": [
        {
          "internalType": "address",
          "name": "from",
          "type": "address"
        },
        {
          "internalType": "address",
          "name": "to",
          "type": "address"
        },
        {
          "internalType": "uint256",
          "name": "id",
          "type": "uint256"
        },
        {
          "internalType": "uint256",
          "name": "amount",
          "type": "uint256"
        },
        {
          "internalType": "bytes",
          "name": "data",
          "type": "bytes"
        }
      ],
      "name": "safeTransferFrom",
      "outputs": [],
      "stateMutability": "nonpayable",
      "type": "function"
    },
    {
      "inputs": [
        {
          "internalType": "address",
          "name": "operator",
          "type": "address"
        },
        {
          "internalType": "bool",
          "name": "approved",
          "type": "bool"
        }
      ],
      "name": "setApprovalForAll",
      "outputs": [],
      "stateMutability": "nonpayable",
      "type": "function"
    },
    {
      "inputs": [
        {
          "internalType": "bytes4",
          "name": "interfaceId",
          "type": "bytes4"
        }
      ],
      "name": "supportsInterface",
      "outputs": [
        {
          "internalType": "bool",
          "name": "",
          "type": "bool"
        }
      ],
      "stateMutability": "view",
      "type": "function"
    },
    {
      "inputs": [
        {
          "internalType": "uint256",
          "name": "",
          "type": "uint256"
        }
      ],
      "name": "uri",
      "outputs": [
        {
          "internalType": "string",
          "name": "",
          "type": "string"
        }
      ],
      "stateMutability": "view",
      "type": "function"
    },
    {
      "inputs": [
        {
          "internalType": "address",
          "name": "to",
          "type": "address"
        },
        {
          "internalType": "uint256",
          "name": "id",
          "type": "uint256"
        },
        {
          "internalType": "uint256",
          "name": "value",
          "type": "uint256"
        },
        {
          "internalType": "bytes",
          "name": "data",
          "type": "bytes"
        }
      ],
      "name": "mint",
      "outputs": [],
      "stateMutability": "nonpayable",
      "type": "function"
    }
  ],
  "bytecode": "0x60806040523480156200001157600080fd5b506040516200346c3803806200346c8339818101604052810190620000379190620002ba565b8062000049816200005160201b60201c565b505062000370565b8060029080519060200190620000699291906200006d565b5050565b8280546200007b906200033a565b90600052602060002090601f0160209004810192826200009f5760008555620000eb565b82601f10620000ba57805160ff1916838001178555620000eb565b82800160010185558215620000eb579182015b82811115620000ea578251825591602001919060010190620000cd565b5b509050620000fa9190620000fe565b5090565b5b8082111562000119576000816000905550600101620000ff565b5090565b6000604051905090565b600080fd5b600080fd5b600080fd5b600080fd5b6000601f19601f8301169050919050565b7f4e487b7100000000000000000000000000000000000000000000000000000000600052604160045260246000fd5b62000186826200013b565b810181811067ffffffffffffffff82111715620001a857620001a76200014c565b5b80604052505050565b6000620001bd6200011d565b9050620001cb82826200017b565b919050565b600067ffffffffffffffff821115620001ee57620001ed6200014c565b5b620001f9826200013b565b9050602081019050919050565b60005b838110156200022657808201518184015260208101905062000209565b8381111562000236576000848401525b50505050565b6000620002536200024d84620001d0565b620001b1565b90508281526020810184848401111562000272576200027162000136565b5b6200027f84828562000206565b509392505050565b600082601f8301126200029f576200029e62000131565b5b8151620002b18482602086016200023c565b91505092915050565b600060208284031215620002d357620002d262000127565b5b600082015167ffffffffffffffff811115620002f457620002f36200012c565b5b620003028482850162000287565b91505092915050565b7f4e487b7100000000000000000000000000000000000000000000000000000000600052602260045260246000fd5b600060028204905060018216806200035357607f821691505b602082108114156200036a57620003696200030b565b5b50919050565b6130ec80620003806000396000f3fe608060405234801561001057600080fd5b50600436106100a85760003560e01c80636b20c454116100715780636b20c45414610189578063731133e9146101a5578063a22cb465146101c1578063e985e9c5146101dd578063f242432a1461020d578063f5298aca14610229576100a8565b8062fdd58e146100ad57806301ffc9a7146100dd5780630e89341c1461010d5780632eb2c2d61461013d5780634e1273f414610159575b600080fd5b6100c760048036038101906100c29190611b95565b610245565b6040516100d49190611be4565b60405180910390f35b6100f760048036038101906100f29190611c57565b61030e565b6040516101049190611c9f565b60405180910390f35b61012760048036038101906101229190611cba565b6103f0565b6040516101349190611d80565b60405180910390f35b61015760048036038101906101529190611f9f565b610484565b005b610173600480360381019061016e9190612131565b61082e565b6040516101809190612267565b60405180910390f35b6101a3600480360381019061019e9190612289565b610947565b005b6101bf60048036038101906101ba9190612314565b6109e4565b005b6101db60048036038101906101d691906123c3565b6109f6565b005b6101f760048036038101906101f29190612403565b610b77565b6040516102049190611c9f565b60405180910390f35b61022760048036038101906102229190612443565b610c0b565b005b610243600480360381019061023e91906124da565b610f23565b005b60008073ffffffffffffffffffffffffffffffffffffffff168373ffffffffffffffffffffffffffffffffffffffff1614156102b6576040517f08c379a00000000000000000000000000000000000000000000000000000000081526004016102ad9061259f565b60405180910390fd5b60008083815260200190815260200160002060008473ffffffffffffffffffffffffffffffffffffffff1673ffffffffffffffffffffffffffffffffffffffff16815260200190815260200160002054905092915050565b60007fd9b67a26000000000000000000000000000000000000000000000000000000007bffffffffffffffffffffffffffffffffffffffffffffffffffffffff1916827bffffffffffffffffffffffffffffffffffffffffffffffffffffffff191614806103d957507f0e89341c000000000000000000000000000000000000000000000000000000007bffffffffffffffffffffffffffffffffffffffffffffffffffffffff1916827bffffffffffffffffffffffffffffffffffffffffffffffffffffffff1916145b806103e957506103e882610fc0565b5b9050919050565b6060600280546103ff906125ee565b80601f016020809104026020016040519081016040528092919081815260200182805461042b906125ee565b80156104785780601f1061044d57610100808354040283529160200191610478565b820191906000526020600020905b81548152906001019060200180831161045b57829003601f168201915b50505050509050919050565b81518351146104c8576040517f08c379a00000000000000000000000000000000000000000000000000000000081526004016104bf90612692565b60405180910390fd5b600073ffffffffffffffffffffffffffffffffffffffff168473ffffffffffffffffffffffffffffffffffffffff161415610538576040517f08c379a000000000000000000000000000000000000000000000000000000000815260040161052f90612724565b60405180910390fd5b61054061102a565b73ffffffffffffffffffffffffffffffffffffffff168573ffffffffffffffffffffffffffffffffffffffff16148061058657506105858561058061102a565b610b77565b5b6105c5576040517f08c379a00000000000000000000000000000000000000000000000000000000081526004016105bc906127b6565b60405180910390fd5b60006105cf61102a565b90506105df818787878787611032565b60005b8451811015610799576000858281518110610600576105ff6127d6565b5b60200260200101519050600085838151811061061f5761061e6127d6565b5b60200260200101519050600080600084815260200190815260200160002060008b73ffffffffffffffffffffffffffffffffffffffff1673ffffffffffffffffffffffffffffffffffffffff168152602001908152602001600020549050818110156106c0576040517f08c379a00000000000000000000000000000000000000000000000000000000081526004016106b790612877565b60405180910390fd5b81816106cc91906128c6565b60008085815260200190815260200160002060008c73ffffffffffffffffffffffffffffffffffffffff1673ffffffffffffffffffffffffffffffffffffffff168152602001908152602001600020819055508160008085815260200190815260200160002060008b73ffffffffffffffffffffffffffffffffffffffff1673ffffffffffffffffffffffffffffffffffffffff168152602001908152602001600020600082825461077e91906128fa565b925050819055505050508061079290612950565b90506105e2565b508473ffffffffffffffffffffffffffffffffffffffff168673ffffffffffffffffffffffffffffffffffffffff168273ffffffffffffffffffffffffffffffffffffffff167f4a39dc06d4c0dbc64b70af90fd698a233a518aa5d07e595d983b8c0526c8f7fb8787604051610810929190612999565b60405180910390a461082681878787878761103a565b505050505050565b60608151835114610874576040517f08c379a000000000000000000000000000000000000000000000000000000000815260040161086b90612a42565b60405180910390fd5b6000835167ffffffffffffffff81111561089157610890611da7565b5b6040519080825280602002602001820160405280156108bf5781602001602082028036833780820191505090505b50905060005b845181101561093c5761090c8582815181106108e4576108e36127d6565b5b60200260200101518583815181106108ff576108fe6127d6565b5b6020026020010151610245565b82828151811061091f5761091e6127d6565b5b6020026020010181815250508061093590612950565b90506108c5565b508091505092915050565b61094f61102a565b73ffffffffffffffffffffffffffffffffffffffff168373ffffffffffffffffffffffffffffffffffffffff16148061099557506109948361098f61102a565b610b77565b5b6109d4576040517f08c379a00000000000000000000000000000000000000000000000000000000081526004016109cb90612ad4565b60405180910390fd5b6109df838383611212565b505050565b6109f0848484846114cc565b50505050565b8173ffffffffffffffffffffffffffffffffffffffff16610a1561102a565b73ffffffffffffffffffffffffffffffffffffffff161415610a6c576040517f08c379a0000000000000000000000000000000000000000000000000000000008152600401610a6390612b66565b60405180910390fd5b8060016000610a7961102a565b73ffffffffffffffffffffffffffffffffffffffff1673ffffffffffffffffffffffffffffffffffffffff16815260200190815260200160002060008473ffffffffffffffffffffffffffffffffffffffff1673ffffffffffffffffffffffffffffffffffffffff16815260200190815260200160002060006101000a81548160ff0219169083151502179055508173ffffffffffffffffffffffffffffffffffffffff16610b2661102a565b73ffffffffffffffffffffffffffffffffffffffff167f17307eab39ab6107e8899845ad3d59bd9653f200f220920489ca2b5937696c3183604051610b6b9190611c9f565b60405180910390a35050565b6000600160008473ffffffffffffffffffffffffffffffffffffffff1673ffffffffffffffffffffffffffffffffffffffff16815260200190815260200160002060008373ffffffffffffffffffffffffffffffffffffffff1673ffffffffffffffffffffffffffffffffffffffff16815260200190815260200160002060009054906101000a900460ff16905092915050565b600073ffffffffffffffffffffffffffffffffffffffff168473ffffffffffffffffffffffffffffffffffffffff161415610c7b576040517f08c379a0000000000000000000000000000000000000000000000000000000008152600401610c7290612724565b60405180910390fd5b610c8361102a565b73ffffffffffffffffffffffffffffffffffffffff168573ffffffffffffffffffffffffffffffffffffffff161480610cc95750610cc885610cc361102a565b610b77565b5b610d08576040517f08c379a0000000000000000000000000000000000000000000000000000000008152600401610cff90612ad4565b60405180910390fd5b6000610d1261102a565b9050610d32818787610d2388611662565b610d2c88611662565b87611032565b600080600086815260200190815260200160002060008873ffffffffffffffffffffffffffffffffffffffff1673ffffffffffffffffffffffffffffffffffffffff16815260200190815260200160002054905083811015610dc9576040517f08c379a0000000000000000000000000000000000000000000000000000000008152600401610dc090612877565b60405180910390fd5b8381610dd591906128c6565b60008087815260200190815260200160002060008973ffffffffffffffffffffffffffffffffffffffff1673ffffffffffffffffffffffffffffffffffffffff168152602001908152602001600020819055508360008087815260200190815260200160002060008873ffffffffffffffffffffffffffffffffffffffff1673ffffffffffffffffffffffffffffffffffffffff1681526020019081526020016000206000828254610e8791906128fa565b925050819055508573ffffffffffffffffffffffffffffffffffffffff168773ffffffffffffffffffffffffffffffffffffffff168373ffffffffffffffffffffffffffffffffffffffff167fc3d58168c5ae7397731d063d5bbf3d657854427343f4c083240f7aacaa2d0f628888604051610f04929190612b86565b60405180910390a4610f1a8288888888886116dc565b50505050505050565b610f2b61102a565b73ffffffffffffffffffffffffffffffffffffffff168373ffffffffffffffffffffffffffffffffffffffff161480610f715750610f7083610f6b61102a565b610b77565b5b610fb0576040517f08c379a0000000000000000000000000000000000000000000000000000000008152600401610fa790612ad4565b60405180910390fd5b610fbb8383836118b4565b505050565b60007f01ffc9a7000000000000000000000000000000000000000000000000000000007bffffffffffffffffffffffffffffffffffffffffffffffffffffffff1916827bffffffffffffffffffffffffffffffffffffffffffffffffffffffff1916149050919050565b600033905090565b505050505050565b6110598473ffffffffffffffffffffffffffffffffffffffff16611ada565b1561120a578373ffffffffffffffffffffffffffffffffffffffff1663bc197c8187878686866040518663ffffffff1660e01b815260040161109f959493929190612c13565b6020604051808303816000875af19250505080156110db57506040513d601f19601f820116820180604052508101906110d89190612c90565b60015b611181576110e7612cca565b806308c379a0141561114457506110fc612cec565b806111075750611146565b806040517f08c379a000000000000000000000000000000000000000000000000000000000815260040161113b9190611d80565b60405180910390fd5b505b6040517f08c379a000000000000000000000000000000000000000000000000000000000815260040161117890612df4565b60405180910390fd5b63bc197c8160e01b7bffffffffffffffffffffffffffffffffffffffffffffffffffffffff1916817bffffffffffffffffffffffffffffffffffffffffffffffffffffffff191614611208576040517f08c379a00000000000000000000000000000000000000000000000000000000081526004016111ff90612e86565b60405180910390fd5b505b505050505050565b600073ffffffffffffffffffffffffffffffffffffffff168373ffffffffffffffffffffffffffffffffffffffff161415611282576040517f08c379a000000000000000000000000000000000000000000000000000000000815260040161127990612f18565b60405180910390fd5b80518251146112c6576040517f08c379a00000000000000000000000000000000000000000000000000000000081526004016112bd90612692565b60405180910390fd5b60006112d061102a565b90506112f081856000868660405180602001604052806000815250611032565b60005b8351811015611446576000848281518110611311576113106127d6565b5b6020026020010151905060008483815181106113305761132f6127d6565b5b60200260200101519050600080600084815260200190815260200160002060008973ffffffffffffffffffffffffffffffffffffffff1673ffffffffffffffffffffffffffffffffffffffff168152602001908152602001600020549050818110156113d1576040517f08c379a00000000000000000000000000000000000000000000000000000000081526004016113c890612faa565b60405180910390fd5b81816113dd91906128c6565b60008085815260200190815260200160002060008a73ffffffffffffffffffffffffffffffffffffffff1673ffffffffffffffffffffffffffffffffffffffff16815260200190815260200160002081905550505050808061143e90612950565b9150506112f3565b50600073ffffffffffffffffffffffffffffffffffffffff168473ffffffffffffffffffffffffffffffffffffffff168273ffffffffffffffffffffffffffffffffffffffff167f4a39dc06d4c0dbc64b70af90fd698a233a518aa5d07e595d983b8c0526c8f7fb86866040516114be929190612999565b60405180910390a450505050565b600073ffffffffffffffffffffffffffffffffffffffff168473ffffffffffffffffffffffffffffffffffffffff16141561153c576040517f08c379a00000000000000000000000000000000000000000000000000000000081526004016115339061303c565b60405180910390fd5b600061154661102a565b90506115678160008761155888611662565b61156188611662565b87611032565b8260008086815260200190815260200160002060008773ffffffffffffffffffffffffffffffffffffffff1673ffffffffffffffffffffffffffffffffffffffff16815260200190815260200160002060008282546115c691906128fa565b925050819055508473ffffffffffffffffffffffffffffffffffffffff16600073ffffffffffffffffffffffffffffffffffffffff168273ffffffffffffffffffffffffffffffffffffffff167fc3d58168c5ae7397731d063d5bbf3d657854427343f4c083240f7aacaa2d0f628787604051611644929190612b86565b60405180910390a461165b816000878787876116dc565b5050505050565b60606000600167ffffffffffffffff81111561168157611680611da7565b5b6040519080825280602002602001820160405280156116af5781602001602082028036833780820191505090505b50905082816000815181106116c7576116c66127d6565b5b60200260200101818152505080915050919050565b6116fb8473ffffffffffffffffffffffffffffffffffffffff16611ada565b156118ac578373ffffffffffffffffffffffffffffffffffffffff1663f23a6e6187878686866040518663ffffffff1660e01b815260040161174195949392919061305c565b6020604051808303816000875af192505050801561177d57506040513d601f19601f8201168201806040525081019061177a9190612c90565b60015b61182357611789612cca565b806308c379a014156117e6575061179e612cec565b806117a957506117e8565b806040517f08c379a00000000000000000000000000000000000000000000000000000000081526004016117dd9190611d80565b60405180910390fd5b505b6040517f08c379a000000000000000000000000000000000000000000000000000000000815260040161181a90612df4565b60405180910390fd5b63f23a6e6160e01b7bffffffffffffffffffffffffffffffffffffffffffffffffffffffff1916817bffffffffffffffffffffffffffffffffffffffffffffffffffffffff1916146118aa576040517f08c379a00000000000000000000000000000000000000000000000000000000081526004016118a190612e86565b60405180910390fd5b505b505050505050565b600073ffffffffffffffffffffffffffffffffffffffff168373ffffffffffffffffffffffffffffffffffffffff161415611924576040517f08c379a000000000000000000000000000000000000000000000000000000000815260040161191b90612f18565b60405180910390fd5b600061192e61102a565b905061195e8185600061194087611662565b61194987611662565b60405180602001604052806000815250611032565b600080600085815260200190815260200160002060008673ffffffffffffffffffffffffffffffffffffffff1673ffffffffffffffffffffffffffffffffffffffff168152602001908152602001600020549050828110156119f5576040517f08c379a00000000000000000000000000000000000000000000000000000000081526004016119ec90612faa565b60405180910390fd5b8281611a0191906128c6565b60008086815260200190815260200160002060008773ffffffffffffffffffffffffffffffffffffffff1673ffffffffffffffffffffffffffffffffffffffff16815260200190815260200160002081905550600073ffffffffffffffffffffffffffffffffffffffff168573ffffffffffffffffffffffffffffffffffffffff168373ffffffffffffffffffffffffffffffffffffffff167fc3d58168c5ae7397731d063d5bbf3d657854427343f4c083240f7aacaa2d0f628787604051611acb929190612b86565b60405180910390a45050505050565b600080823b905060008111915050919050565b6000604051905090565b600080fd5b600080fd5b600073ffffffffffffffffffffffffffffffffffffffff82169050919050565b6000611b2c82611b01565b9050919050565b611b3c81611b21565b8114611b4757600080fd5b50565b600081359050611b5981611b33565b92915050565b6000819050919050565b611b7281611b5f565b8114611b7d57600080fd5b50565b600081359050611b8f81611b69565b92915050565b60008060408385031215611bac57611bab611af7565b5b6000611bba85828601611b4a565b9250506020611bcb85828601611b80565b9150509250929050565b611bde81611b5f565b82525050565b6000602082019050611bf96000830184611bd5565b92915050565b60007fffffffff0000000000000000000000000000000000000000000000000000000082169050919050565b611c3481611bff565b8114611c3f57600080fd5b50565b600081359050611c5181611c2b565b92915050565b600060208284031215611c6d57611c6c611af7565b5b6000611c7b84828501611c42565b91505092915050565b60008115159050919050565b611c9981611c84565b82525050565b6000602082019050611cb46000830184611c90565b92915050565b600060208284031215611cd057611ccf611af7565b5b6000611cde84828501611b80565b91505092915050565b600081519050919050565b600082825260208201905092915050565b60005b83811015611d21578082015181840152602081019050611d06565b83811115611d30576000848401525b50505050565b6000601f19601f8301169050919050565b6000611d5282611ce7565b611d5c8185611cf2565b9350611d6c818560208601611d03565b611d7581611d36565b840191505092915050565b60006020820190508181036000830152611d9a8184611d47565b905092915050565b600080fd5b7f4e487b7100000000000000000000000000000000000000000000000000000000600052604160045260246000fd5b611ddf82611d36565b810181811067ffffffffffffffff82111715611dfe57611dfd611da7565b5b80604052505050565b6000611e11611aed565b9050611e1d8282611dd6565b919050565b600067ffffffffffffffff821115611e3d57611e3c611da7565b5b602082029050602081019050919050565b600080fd5b6000611e66611e6184611e22565b611e07565b90508083825260208201905060208402830185811115611e8957611e88611e4e565b5b835b81811015611eb25780611e9e8882611b80565b845260208401935050602081019050611e8b565b5050509392505050565b600082601f830112611ed157611ed0611da2565b5b8135611ee1848260208601611e53565b91505092915050565b600080fd5b600067ffffffffffffffff821115611f0a57611f09611da7565b5b611f1382611d36565b9050602081019050919050565b82818337600083830152505050565b6000611f42611f3d84611eef565b611e07565b905082815260208101848484011115611f5e57611f5d611eea565b5b611f69848285611f20565b509392505050565b600082601f830112611f8657611f85611da2565b5b8135611f96848260208601611f2f565b91505092915050565b600080600080600060a08688031215611fbb57611fba611af7565b5b6000611fc988828901611b4a565b9550506020611fda88828901611b4a565b945050604086013567ffffffffffffffff811115611ffb57611ffa611afc565b5b61200788828901611ebc565b935050606086013567ffffffffffffffff81111561202857612027611afc565b5b61203488828901611ebc565b925050608086013567ffffffffffffffff81111561205557612054611afc565b5b61206188828901611f71565b9150509295509295909350565b600067ffffffffffffffff82111561208957612088611da7565b5b602082029050602081019050919050565b60006120ad6120a88461206e565b611e07565b905080838252602082019050602084028301858111156120d0576120cf611e4e565b5b835b818110156120f957806120e58882611b4a565b8452602084019350506020810190506120d2565b5050509392505050565b600082601f83011261211857612117611da2565b5b813561212884826020860161209a565b91505092915050565b6000806040838503121561214857612147611af7565b5b600083013567ffffffffffffffff81111561216657612165611afc565b5b61217285828601612103565b925050602083013567ffffffffffffffff81111561219357612192611afc565b5b61219f85828601611ebc565b9150509250929050565b600081519050919050565b600082825260208201905092915050565b6000819050602082019050919050565b6121de81611b5f565b82525050565b60006121f083836121d5565b60208301905092915050565b6000602082019050919050565b6000612214826121a9565b61221e81856121b4565b9350612229836121c5565b8060005b8381101561225a57815161224188826121e4565b975061224c836121fc565b92505060018101905061222d565b5085935050505092915050565b600060208201905081810360008301526122818184612209565b905092915050565b6000806000606084860312156122a2576122a1611af7565b5b60006122b086828701611b4a565b935050602084013567ffffffffffffffff8111156122d1576122d0611afc565b5b6122dd86828701611ebc565b925050604084013567ffffffffffffffff8111156122fe576122fd611afc565b5b61230a86828701611ebc565b9150509250925092565b6000806000806080858703121561232e5761232d611af7565b5b600061233c87828801611b4a565b945050602061234d87828801611b80565b935050604061235e87828801611b80565b925050606085013567ffffffffffffffff81111561237f5761237e611afc565b5b61238b87828801611f71565b91505092959194509250565b6123a081611c84565b81146123ab57600080fd5b50565b6000813590506123bd81612397565b92915050565b600080604083850312156123da576123d9611af7565b5b60006123e885828601611b4a565b92505060206123f9858286016123ae565b9150509250929050565b6000806040838503121561241a57612419611af7565b5b600061242885828601611b4a565b925050602061243985828601611b4a565b9150509250929050565b600080600080600060a0868803121561245f5761245e611af7565b5b600061246d88828901611b4a565b955050602061247e88828901611b4a565b945050604061248f88828901611b80565b93505060606124a088828901611b80565b925050608086013567ffffffffffffffff8111156124c1576124c0611afc565b5b6124cd88828901611f71565b9150509295509295909350565b6000806000606084860312156124f3576124f2611af7565b5b600061250186828701611b4a565b935050602061251286828701611b80565b925050604061252386828701611b80565b9150509250925092565b7f455243313135353a2062616c616e636520717565727920666f7220746865207a60008201527f65726f2061646472657373000000000000000000000000000000000000000000602082015250565b6000612589602b83611cf2565b91506125948261252d565b604082019050919050565b600060208201905081810360008301526125b88161257c565b9050919050565b7f4e487b7100000000000000000000000000000000000000000000000000000000600052602260045260246000fd5b6000600282049050600182168061260657607f821691505b6020821081141561261a576126196125bf565b5b50919050565b7f455243313135353a2069647320616e6420616d6f756e7473206c656e6774682060008201527f6d69736d61746368000000000000000000000000000000000000000000000000602082015250565b600061267c602883611cf2565b915061268782612620565b604082019050919050565b600060208201905081810360008301526126ab8161266f565b9050919050565b7f455243313135353a207472616e7366657220746f20746865207a65726f20616460008201527f6472657373000000000000000000000000000000000000000000000000000000602082015250565b600061270e602583611cf2565b9150612719826126b2565b604082019050919050565b6000602082019050818103600083015261273d81612701565b9050919050565b7f455243313135353a207472616e736665722063616c6c6572206973206e6f742060008201527f6f776e6572206e6f7220617070726f7665640000000000000000000000000000602082015250565b60006127a0603283611cf2565b91506127ab82612744565b604082019050919050565b600060208201905081810360008301526127cf81612793565b9050919050565b7f4e487b7100000000000000000000000000000000000000000000000000000000600052603260045260246000fd5b7f455243313135353a20696e73756666696369656e742062616c616e636520666f60008201527f72207472616e7366657200000000000000000000000000000000000000000000602082015250565b6000612861602a83611cf2565b915061286c82612805565b604082019050919050565b6000602082019050818103600083015261289081612854565b9050919050565b7f4e487b7100000000000000000000000000000000000000000000000000000000600052601160045260246000fd5b60006128d182611b5f565b91506128dc83611b5f565b9250828210156128ef576128ee612897565b5b828203905092915050565b600061290582611b5f565b915061291083611b5f565b9250827fffffffffffffffffffffffffffffffffffffffffffffffffffffffffffffffff0382111561294557612944612897565b5b828201905092915050565b600061295b82611b5f565b91507fffffffffffffffffffffffffffffffffffffffffffffffffffffffffffffffff82141561298e5761298d612897565b5b600182019050919050565b600060408201905081810360008301526129b38185612209565b905081810360208301526129c78184612209565b90509392505050565b7f455243313135353a206163636f756e747320616e6420696473206c656e67746860008201527f206d69736d617463680000000000000000000000000000000000000000000000602082015250565b6000612a2c602983611cf2565b9150612a37826129d0565b604082019050919050565b60006020820190508181036000830152612a5b81612a1f565b9050919050565b7f455243313135353a2063616c6c6572206973206e6f74206f776e6572206e6f7260008201527f20617070726f7665640000000000000000000000000000000000000000000000602082015250565b6000612abe602983611cf2565b9150612ac982612a62565b604082019050919050565b60006020820190508181036000830152612aed81612ab1565b9050919050565b7f455243313135353a2073657474696e6720617070726f76616c2073746174757360008201527f20666f722073656c660000000000000000000000000000000000000000000000602082015250565b6000612b50602983611cf2565b9150612b5b82612af4565b604082019050919050565b60006020820190508181036000830152612b7f81612b43565b9050919050565b6000604082019050612b9b6000830185611bd5565b612ba86020830184611bd5565b9392505050565b612bb881611b21565b82525050565b600081519050919050565b600082825260208201905092915050565b6000612be582612bbe565b612bef8185612bc9565b9350612bff818560208601611d03565b612c0881611d36565b840191505092915050565b600060a082019050612c286000830188612baf565b612c356020830187612baf565b8181036040830152612c478186612209565b90508181036060830152612c5b8185612209565b90508181036080830152612c6f8184612bda565b90509695505050505050565b600081519050612c8a81611c2b565b92915050565b600060208284031215612ca657612ca5611af7565b5b6000612cb484828501612c7b565b91505092915050565b60008160e01c9050919050565b600060033d1115612ce95760046000803e612ce6600051612cbd565b90505b90565b600060443d1015612cfc57612d7f565b612d04611aed565b60043d036004823e80513d602482011167ffffffffffffffff82111715612d2c575050612d7f565b808201805167ffffffffffffffff811115612d4a5750505050612d7f565b80602083010160043d038501811115612d67575050505050612d7f565b612d7682602001850186611dd6565b82955050505050505b90565b7f455243313135353a207472616e7366657220746f206e6f6e204552433131353560008201527f526563656976657220696d706c656d656e746572000000000000000000000000602082015250565b6000612dde603483611cf2565b9150612de982612d82565b604082019050919050565b60006020820190508181036000830152612e0d81612dd1565b9050919050565b7f455243313135353a204552433131353552656365697665722072656a6563746560008201527f6420746f6b656e73000000000000000000000000000000000000000000000000602082015250565b6000612e70602883611cf2565b9150612e7b82612e14565b604082019050919050565b60006020820190508181036000830152612e9f81612e63565b9050919050565b7f455243313135353a206275726e2066726f6d20746865207a65726f206164647260008201527f6573730000000000000000000000000000000000000000000000000000000000602082015250565b6000612f02602383611cf2565b9150612f0d82612ea6565b604082019050919050565b60006020820190508181036000830152612f3181612ef5565b9050919050565b7f455243313135353a206275726e20616d6f756e7420657863656564732062616c60008201527f616e636500000000000000000000000000000000000000000000000000000000602082015250565b6000612f94602483611cf2565b9150612f9f82612f38565b604082019050919050565b60006020820190508181036000830152612fc381612f87565b9050919050565b7f455243313135353a206d696e7420746f20746865207a65726f2061646472657360008201527f7300000000000000000000000000000000000000000000000000000000000000602082015250565b6000613026602183611cf2565b915061303182612fca565b604082019050919050565b6000602082019050818103600083015261305581613019565b9050919050565b600060a0820190506130716000830188612baf565b61307e6020830187612baf565b61308b6040830186611bd5565b6130986060830185611bd5565b81810360808301526130aa8184612bda565b9050969550505050505056fea2646970667358221220e83c7e201ff75367adae6b31bbab4b9532994562d9f03ea785dde072707a8be764736f6c634300080a0033",
  "immutableReferences": {},
  "source": "// SPDX-License-Identifier: MIT\n\npragma solidity ^0.8.0;\n\nimport \"../token/ERC1155/extensions/ERC1155Burnable.sol\";\n\ncontract ERC1155BurnableMock is ERC1155Burnable {\n    constructor(string memory uri) ERC1155(uri) { }\n\n    function mint(address to, uint256 id, uint256 value, bytes memory data) public {\n        _mint(to, id, value, data);\n    }\n}\n",
  "sourcePath": "D:\\FYP\\FYP\\Dapp\\src\\contracts\\openzeppelin-contracts-4.1.0\\openzeppelin-contracts-4.1.0\\contracts\\mocks\\ERC1155BurnableMock.sol",
  "compiler": {
    "name": "solc",
    "version": "0.8.10+commit.fc410830.Emscripten.clang"
  },
  "schemaVersion": "3.4.3",
  "updatedAt": "2021-11-25T02:44:55.002Z",
  "devdoc": {
    "kind": "dev",
    "methods": {
      "balanceOf(address,uint256)": {
        "details": "See {IERC1155-balanceOf}. Requirements: - `account` cannot be the zero address."
      },
      "balanceOfBatch(address[],uint256[])": {
        "details": "See {IERC1155-balanceOfBatch}. Requirements: - `accounts` and `ids` must have the same length."
      },
      "isApprovedForAll(address,address)": {
        "details": "See {IERC1155-isApprovedForAll}."
      },
      "safeBatchTransferFrom(address,address,uint256[],uint256[],bytes)": {
        "details": "See {IERC1155-safeBatchTransferFrom}."
      },
      "safeTransferFrom(address,address,uint256,uint256,bytes)": {
        "details": "See {IERC1155-safeTransferFrom}."
      },
      "setApprovalForAll(address,bool)": {
        "details": "See {IERC1155-setApprovalForAll}."
      },
      "supportsInterface(bytes4)": {
        "details": "See {IERC165-supportsInterface}."
      },
      "uri(uint256)": {
        "details": "See {IERC1155MetadataURI-uri}. This implementation returns the same URI for *all* token types. It relies on the token type ID substitution mechanism https://eips.ethereum.org/EIPS/eip-1155#metadata[defined in the EIP]. Clients calling this function must replace the `\\{id\\}` substring with the actual token type ID."
      }
    },
    "version": 1
  },
  "userdoc": {
    "kind": "user",
    "methods": {},
    "version": 1
  }
}