{
  "contractName": "ERC1271WalletMock",
  "abi": [
    {
      "inputs": [
        {
          "internalType": "address",
          "name": "originalOwner",
          "type": "address"
        }
      ],
      "stateMutability": "nonpayable",
      "type": "constructor"
    },
    {
      "anonymous": false,
      "inputs": [
        {
          "indexed": true,
          "internalType": "address",
          "name": "previousOwner",
          "type": "address"
        },
        {
          "indexed": true,
          "internalType": "address",
          "name": "newOwner",
          "type": "address"
        }
      ],
      "name": "OwnershipTransferred",
      "type": "event"
    },
    {
      "inputs": [],
      "name": "owner",
      "outputs": [
        {
          "internalType": "address",
          "name": "",
          "type": "address"
        }
      ],
      "stateMutability": "view",
      "type": "function"
    },
    {
      "inputs": [],
      "name": "renounceOwnership",
      "outputs": [],
      "stateMutability": "nonpayable",
      "type": "function"
    },
    {
      "inputs": [
        {
          "internalType": "address",
          "name": "newOwner",
          "type": "address"
        }
      ],
      "name": "transferOwnership",
      "outputs": [],
      "stateMutability": "nonpayable",
      "type": "function"
    },
    {
      "inputs": [
        {
          "internalType": "bytes32",
          "name": "hash",
          "type": "bytes32"
        },
        {
          "internalType": "bytes",
          "name": "signature",
          "type": "bytes"
        }
      ],
      "name": "isValidSignature",
      "outputs": [
        {
          "internalType": "bytes4",
          "name": "magicValue",
          "type": "bytes4"
        }
      ],
      "stateMutability": "view",
      "type": "function"
    }
  ],
  "bytecode": "0x60806040523480156200001157600080fd5b50604051620011ec380380620011ec833981810160405281019062000037919062000359565b600062000049620000ff60201b60201c565b9050806000806101000a81548173ffffffffffffffffffffffffffffffffffffffff021916908373ffffffffffffffffffffffffffffffffffffffff1602179055508073ffffffffffffffffffffffffffffffffffffffff16600073ffffffffffffffffffffffffffffffffffffffff167f8be0079c531659141344cd1fd0a4f28419497f9722a3daafe3b4186f6b6457e060405160405180910390a350620000f8816200010760201b60201c565b50620004a6565b600033905090565b62000117620000ff60201b60201c565b73ffffffffffffffffffffffffffffffffffffffff166200013d620002c660201b60201c565b73ffffffffffffffffffffffffffffffffffffffff161462000196576040517f08c379a00000000000000000000000000000000000000000000000000000000081526004016200018d90620003ec565b60405180910390fd5b600073ffffffffffffffffffffffffffffffffffffffff168173ffffffffffffffffffffffffffffffffffffffff16141562000209576040517f08c379a0000000000000000000000000000000000000000000000000000000008152600401620002009062000484565b60405180910390fd5b8073ffffffffffffffffffffffffffffffffffffffff1660008054906101000a900473ffffffffffffffffffffffffffffffffffffffff1673ffffffffffffffffffffffffffffffffffffffff167f8be0079c531659141344cd1fd0a4f28419497f9722a3daafe3b4186f6b6457e060405160405180910390a3806000806101000a81548173ffffffffffffffffffffffffffffffffffffffff021916908373ffffffffffffffffffffffffffffffffffffffff16021790555050565b60008060009054906101000a900473ffffffffffffffffffffffffffffffffffffffff16905090565b600080fd5b600073ffffffffffffffffffffffffffffffffffffffff82169050919050565b60006200032182620002f4565b9050919050565b620003338162000314565b81146200033f57600080fd5b50565b600081519050620003538162000328565b92915050565b600060208284031215620003725762000371620002ef565b5b6000620003828482850162000342565b91505092915050565b600082825260208201905092915050565b7f4f776e61626c653a2063616c6c6572206973206e6f7420746865206f776e6572600082015250565b6000620003d46020836200038b565b9150620003e1826200039c565b602082019050919050565b600060208201905081810360008301526200040781620003c5565b9050919050565b7f4f776e61626c653a206e6577206f776e657220697320746865207a65726f206160008201527f6464726573730000000000000000000000000000000000000000000000000000602082015250565b60006200046c6026836200038b565b915062000479826200040e565b604082019050919050565b600060208201905081810360008301526200049f816200045d565b9050919050565b610d3680620004b66000396000f3fe608060405234801561001057600080fd5b506004361061004c5760003560e01c80631626ba7e14610051578063715018a6146100815780638da5cb5b1461008b578063f2fde38b146100a9575b600080fd5b61006b6004803603810190610066919061081e565b6100c5565b60405161007891906108b5565b60405180910390f35b610089610125565b005b61009361025f565b6040516100a09190610911565b60405180910390f35b6100c360048036038101906100be9190610958565b610288565b005b60006100cf61025f565b73ffffffffffffffffffffffffffffffffffffffff166100ef8484610431565b73ffffffffffffffffffffffffffffffffffffffff161461011457600060e01b61011d565b631626ba7e60e01b5b905092915050565b61012d6104fb565b73ffffffffffffffffffffffffffffffffffffffff1661014b61025f565b73ffffffffffffffffffffffffffffffffffffffff16146101a1576040517f08c379a0000000000000000000000000000000000000000000000000000000008152600401610198906109e2565b60405180910390fd5b600073ffffffffffffffffffffffffffffffffffffffff1660008054906101000a900473ffffffffffffffffffffffffffffffffffffffff1673ffffffffffffffffffffffffffffffffffffffff167f8be0079c531659141344cd1fd0a4f28419497f9722a3daafe3b4186f6b6457e060405160405180910390a360008060006101000a81548173ffffffffffffffffffffffffffffffffffffffff021916908373ffffffffffffffffffffffffffffffffffffffff160217905550565b60008060009054906101000a900473ffffffffffffffffffffffffffffffffffffffff16905090565b6102906104fb565b73ffffffffffffffffffffffffffffffffffffffff166102ae61025f565b73ffffffffffffffffffffffffffffffffffffffff1614610304576040517f08c379a00000000000000000000000000000000000000000000000000000000081526004016102fb906109e2565b60405180910390fd5b600073ffffffffffffffffffffffffffffffffffffffff168173ffffffffffffffffffffffffffffffffffffffff161415610374576040517f08c379a000000000000000000000000000000000000000000000000000000000815260040161036b90610a74565b60405180910390fd5b8073ffffffffffffffffffffffffffffffffffffffff1660008054906101000a900473ffffffffffffffffffffffffffffffffffffffff1673ffffffffffffffffffffffffffffffffffffffff167f8be0079c531659141344cd1fd0a4f28419497f9722a3daafe3b4186f6b6457e060405160405180910390a3806000806101000a81548173ffffffffffffffffffffffffffffffffffffffff021916908373ffffffffffffffffffffffffffffffffffffffff16021790555050565b60008060008060418551141561045e576020850151925060408501519150606085015160001a90506104e4565b6040855114156104a8576040850151602086015193507f7fffffffffffffffffffffffffffffffffffffffffffffffffffffffffffffff81169250601b8160ff1c019150506104e3565b6040517f08c379a00000000000000000000000000000000000000000000000000000000081526004016104da90610ae0565b60405180910390fd5b5b6104f086828585610503565b935050505092915050565b600033905090565b60007f7fffffffffffffffffffffffffffffff5d576e7357a4501ddfe92f46681b20a08260001c111561056b576040517f08c379a000000000000000000000000000000000000000000000000000000000815260040161056290610b72565b60405180910390fd5b601b8460ff1614806105805750601c8460ff16145b6105bf576040517f08c379a00000000000000000000000000000000000000000000000000000000081526004016105b690610c04565b60405180910390fd5b6000600186868686604051600081526020016040526040516105e49493929190610c4f565b6020604051602081039080840390855afa158015610606573d6000803e3d6000fd5b505050602060405103519050600073ffffffffffffffffffffffffffffffffffffffff168173ffffffffffffffffffffffffffffffffffffffff161415610682576040517f08c379a000000000000000000000000000000000000000000000000000000000815260040161067990610ce0565b60405180910390fd5b80915050949350505050565b6000604051905090565b600080fd5b600080fd5b6000819050919050565b6106b5816106a2565b81146106c057600080fd5b50565b6000813590506106d2816106ac565b92915050565b600080fd5b600080fd5b6000601f19601f8301169050919050565b7f4e487b7100000000000000000000000000000000000000000000000000000000600052604160045260246000fd5b61072b826106e2565b810181811067ffffffffffffffff8211171561074a576107496106f3565b5b80604052505050565b600061075d61068e565b90506107698282610722565b919050565b600067ffffffffffffffff821115610789576107886106f3565b5b610792826106e2565b9050602081019050919050565b82818337600083830152505050565b60006107c16107bc8461076e565b610753565b9050828152602081018484840111156107dd576107dc6106dd565b5b6107e884828561079f565b509392505050565b600082601f830112610805576108046106d8565b5b81356108158482602086016107ae565b91505092915050565b6000806040838503121561083557610834610698565b5b6000610843858286016106c3565b925050602083013567ffffffffffffffff8111156108645761086361069d565b5b610870858286016107f0565b9150509250929050565b60007fffffffff0000000000000000000000000000000000000000000000000000000082169050919050565b6108af8161087a565b82525050565b60006020820190506108ca60008301846108a6565b92915050565b600073ffffffffffffffffffffffffffffffffffffffff82169050919050565b60006108fb826108d0565b9050919050565b61090b816108f0565b82525050565b60006020820190506109266000830184610902565b92915050565b610935816108f0565b811461094057600080fd5b50565b6000813590506109528161092c565b92915050565b60006020828403121561096e5761096d610698565b5b600061097c84828501610943565b91505092915050565b600082825260208201905092915050565b7f4f776e61626c653a2063616c6c6572206973206e6f7420746865206f776e6572600082015250565b60006109cc602083610985565b91506109d782610996565b602082019050919050565b600060208201905081810360008301526109fb816109bf565b9050919050565b7f4f776e61626c653a206e6577206f776e657220697320746865207a65726f206160008201527f6464726573730000000000000000000000000000000000000000000000000000602082015250565b6000610a5e602683610985565b9150610a6982610a02565b604082019050919050565b60006020820190508181036000830152610a8d81610a51565b9050919050565b7f45434453413a20696e76616c6964207369676e6174757265206c656e67746800600082015250565b6000610aca601f83610985565b9150610ad582610a94565b602082019050919050565b60006020820190508181036000830152610af981610abd565b9050919050565b7f45434453413a20696e76616c6964207369676e6174757265202773272076616c60008201527f7565000000000000000000000000000000000000000000000000000000000000602082015250565b6000610b5c602283610985565b9150610b6782610b00565b604082019050919050565b60006020820190508181036000830152610b8b81610b4f565b9050919050565b7f45434453413a20696e76616c6964207369676e6174757265202776272076616c60008201527f7565000000000000000000000000000000000000000000000000000000000000602082015250565b6000610bee602283610985565b9150610bf982610b92565b604082019050919050565b60006020820190508181036000830152610c1d81610be1565b9050919050565b610c2d816106a2565b82525050565b600060ff82169050919050565b610c4981610c33565b82525050565b6000608082019050610c646000830187610c24565b610c716020830186610c40565b610c7e6040830185610c24565b610c8b6060830184610c24565b95945050505050565b7f45434453413a20696e76616c6964207369676e61747572650000000000000000600082015250565b6000610cca601883610985565b9150610cd582610c94565b602082019050919050565b60006020820190508181036000830152610cf981610cbd565b905091905056fea26469706673582212204993ef8382d049c1e8d6cb045d93239cef19d19f584ca00f107731577911775064736f6c634300080a0033",
  "immutableReferences": {},
  "source": "// SPDX-License-Identifier: MIT\n\npragma solidity ^0.8.0;\n\nimport \"../access/Ownable.sol\";\nimport \"../interfaces/IERC1271.sol\";\nimport \"../utils/cryptography/ECDSA.sol\";\n\ncontract ERC1271WalletMock is Ownable, IERC1271 {\n    constructor(address originalOwner) {\n        transferOwnership(originalOwner);\n    }\n\n    function isValidSignature(bytes32 hash, bytes memory signature) public view override returns (bytes4 magicValue) {\n        return ECDSA.recover(hash, signature) == owner() ? this.isValidSignature.selector : bytes4(0);\n    }\n}\n",
  "sourcePath": "D:\\FYP\\FYP\\Dapp\\src\\contracts\\openzeppelin-contracts-4.1.0\\openzeppelin-contracts-4.1.0\\contracts\\mocks\\ERC1271WalletMock.sol",
  "compiler": {
    "name": "solc",
    "version": "0.8.10+commit.fc410830.Emscripten.clang"
  },
  "schemaVersion": "3.4.3",
  "updatedAt": "2021-11-25T02:44:55.053Z",
  "devdoc": {
    "kind": "dev",
    "methods": {
      "isValidSignature(bytes32,bytes)": {
        "details": "Should return whether the signature provided is valid for the provided data",
        "params": {
          "hash": "Hash of the data to be signed",
          "signature": "Signature byte array associated with _data"
        }
      },
      "owner()": {
        "details": "Returns the address of the current owner."
      },
      "renounceOwnership()": {
        "details": "Leaves the contract without owner. It will not be possible to call `onlyOwner` functions anymore. Can only be called by the current owner. NOTE: Renouncing ownership will leave the contract without an owner, thereby removing any functionality that is only available to the owner."
      },
      "transferOwnership(address)": {
        "details": "Transfers ownership of the contract to a new account (`newOwner`). Can only be called by the current owner."
      }
    },
    "version": 1
  },
  "userdoc": {
    "kind": "user",
    "methods": {},
    "version": 1
  }
}