{
  "contractName": "ERC20PausableMock",
  "abi": [
    {
      "inputs": [
        {
          "internalType": "string",
          "name": "name",
          "type": "string"
        },
        {
          "internalType": "string",
          "name": "symbol",
          "type": "string"
        },
        {
          "internalType": "address",
          "name": "initialAccount",
          "type": "address"
        },
        {
          "internalType": "uint256",
          "name": "initialBalance",
          "type": "uint256"
        }
      ],
      "stateMutability": "nonpayable",
      "type": "constructor"
    },
    {
      "anonymous": false,
      "inputs": [
        {
          "indexed": true,
          "internalType": "address",
          "name": "owner",
          "type": "address"
        },
        {
          "indexed": true,
          "internalType": "address",
          "name": "spender",
          "type": "address"
        },
        {
          "indexed": false,
          "internalType": "uint256",
          "name": "value",
          "type": "uint256"
        }
      ],
      "name": "Approval",
      "type": "event"
    },
    {
      "anonymous": false,
      "inputs": [
        {
          "indexed": false,
          "internalType": "address",
          "name": "account",
          "type": "address"
        }
      ],
      "name": "Paused",
      "type": "event"
    },
    {
      "anonymous": false,
      "inputs": [
        {
          "indexed": true,
          "internalType": "address",
          "name": "from",
          "type": "address"
        },
        {
          "indexed": true,
          "internalType": "address",
          "name": "to",
          "type": "address"
        },
        {
          "indexed": false,
          "internalType": "uint256",
          "name": "value",
          "type": "uint256"
        }
      ],
      "name": "Transfer",
      "type": "event"
    },
    {
      "anonymous": false,
      "inputs": [
        {
          "indexed": false,
          "internalType": "address",
          "name": "account",
          "type": "address"
        }
      ],
      "name": "Unpaused",
      "type": "event"
    },
    {
      "inputs": [
        {
          "internalType": "address",
          "name": "owner",
          "type": "address"
        },
        {
          "internalType": "address",
          "name": "spender",
          "type": "address"
        }
      ],
      "name": "allowance",
      "outputs": [
        {
          "internalType": "uint256",
          "name": "",
          "type": "uint256"
        }
      ],
      "stateMutability": "view",
      "type": "function"
    },
    {
      "inputs": [
        {
          "internalType": "address",
          "name": "spender",
          "type": "address"
        },
        {
          "internalType": "uint256",
          "name": "amount",
          "type": "uint256"
        }
      ],
      "name": "approve",
      "outputs": [
        {
          "internalType": "bool",
          "name": "",
          "type": "bool"
        }
      ],
      "stateMutability": "nonpayable",
      "type": "function"
    },
    {
      "inputs": [
        {
          "internalType": "address",
          "name": "account",
          "type": "address"
        }
      ],
      "name": "balanceOf",
      "outputs": [
        {
          "internalType": "uint256",
          "name": "",
          "type": "uint256"
        }
      ],
      "stateMutability": "view",
      "type": "function"
    },
    {
      "inputs": [],
      "name": "decimals",
      "outputs": [
        {
          "internalType": "uint8",
          "name": "",
          "type": "uint8"
        }
      ],
      "stateMutability": "view",
      "type": "function"
    },
    {
      "inputs": [
        {
          "internalType": "address",
          "name": "spender",
          "type": "address"
        },
        {
          "internalType": "uint256",
          "name": "subtractedValue",
          "type": "uint256"
        }
      ],
      "name": "decreaseAllowance",
      "outputs": [
        {
          "internalType": "bool",
          "name": "",
          "type": "bool"
        }
      ],
      "stateMutability": "nonpayable",
      "type": "function"
    },
    {
      "inputs": [
        {
          "internalType": "address",
          "name": "spender",
          "type": "address"
        },
        {
          "internalType": "uint256",
          "name": "addedValue",
          "type": "uint256"
        }
      ],
      "name": "increaseAllowance",
      "outputs": [
        {
          "internalType": "bool",
          "name": "",
          "type": "bool"
        }
      ],
      "stateMutability": "nonpayable",
      "type": "function"
    },
    {
      "inputs": [],
      "name": "name",
      "outputs": [
        {
          "internalType": "string",
          "name": "",
          "type": "string"
        }
      ],
      "stateMutability": "view",
      "type": "function"
    },
    {
      "inputs": [],
      "name": "paused",
      "outputs": [
        {
          "internalType": "bool",
          "name": "",
          "type": "bool"
        }
      ],
      "stateMutability": "view",
      "type": "function"
    },
    {
      "inputs": [],
      "name": "symbol",
      "outputs": [
        {
          "internalType": "string",
          "name": "",
          "type": "string"
        }
      ],
      "stateMutability": "view",
      "type": "function"
    },
    {
      "inputs": [],
      "name": "totalSupply",
      "outputs": [
        {
          "internalType": "uint256",
          "name": "",
          "type": "uint256"
        }
      ],
      "stateMutability": "view",
      "type": "function"
    },
    {
      "inputs": [
        {
          "internalType": "address",
          "name": "recipient",
          "type": "address"
        },
        {
          "internalType": "uint256",
          "name": "amount",
          "type": "uint256"
        }
      ],
      "name": "transfer",
      "outputs": [
        {
          "internalType": "bool",
          "name": "",
          "type": "bool"
        }
      ],
      "stateMutability": "nonpayable",
      "type": "function"
    },
    {
      "inputs": [
        {
          "internalType": "address",
          "name": "sender",
          "type": "address"
        },
        {
          "internalType": "address",
          "name": "recipient",
          "type": "address"
        },
        {
          "internalType": "uint256",
          "name": "amount",
          "type": "uint256"
        }
      ],
      "name": "transferFrom",
      "outputs": [
        {
          "internalType": "bool",
          "name": "",
          "type": "bool"
        }
      ],
      "stateMutability": "nonpayable",
      "type": "function"
    },
    {
      "inputs": [],
      "name": "pause",
      "outputs": [],
      "stateMutability": "nonpayable",
      "type": "function"
    },
    {
      "inputs": [],
      "name": "unpause",
      "outputs": [],
      "stateMutability": "nonpayable",
      "type": "function"
    },
    {
      "inputs": [
        {
          "internalType": "address",
          "name": "to",
          "type": "address"
        },
        {
          "internalType": "uint256",
          "name": "amount",
          "type": "uint256"
        }
      ],
      "name": "mint",
      "outputs": [],
      "stateMutability": "nonpayable",
      "type": "function"
    },
    {
      "inputs": [
        {
          "internalType": "address",
          "name": "from",
          "type": "address"
        },
        {
          "internalType": "uint256",
          "name": "amount",
          "type": "uint256"
        }
      ],
      "name": "burn",
      "outputs": [],
      "stateMutability": "nonpayable",
      "type": "function"
    }
  ],
  "bytecode": "0x60806040523480156200001157600080fd5b506040516200255638038062002556833981810160405281019062000037919062000582565b838381600390805190602001906200005192919062000295565b5080600490805190602001906200006a92919062000295565b5050506000600560006101000a81548160ff0219169083151502179055506200009a8282620000a460201b60201c565b505050506200086c565b600073ffffffffffffffffffffffffffffffffffffffff168273ffffffffffffffffffffffffffffffffffffffff16141562000117576040517f08c379a00000000000000000000000000000000000000000000000000000000081526004016200010e9062000693565b60405180910390fd5b6200012b600083836200020960201b60201c565b80600260008282546200013f9190620006e4565b92505081905550806000808473ffffffffffffffffffffffffffffffffffffffff1673ffffffffffffffffffffffffffffffffffffffff1681526020019081526020016000206000828254620001969190620006e4565b925050819055508173ffffffffffffffffffffffffffffffffffffffff16600073ffffffffffffffffffffffffffffffffffffffff167fddf252ad1be2c89b69c2b068fc378daa952ba7f163c4a11628f55a4df523b3ef83604051620001fd919062000752565b60405180910390a35050565b620002218383836200027960201b620008611760201c565b620002316200027e60201b60201c565b1562000274576040517f08c379a00000000000000000000000000000000000000000000000000000000081526004016200026b90620007e5565b60405180910390fd5b505050565b505050565b6000600560009054906101000a900460ff16905090565b828054620002a39062000836565b90600052602060002090601f016020900481019282620002c7576000855562000313565b82601f10620002e257805160ff191683800117855562000313565b8280016001018555821562000313579182015b8281111562000312578251825591602001919060010190620002f5565b5b50905062000322919062000326565b5090565b5b808211156200034157600081600090555060010162000327565b5090565b6000604051905090565b600080fd5b600080fd5b600080fd5b600080fd5b6000601f19601f8301169050919050565b7f4e487b7100000000000000000000000000000000000000000000000000000000600052604160045260246000fd5b620003ae8262000363565b810181811067ffffffffffffffff82111715620003d057620003cf62000374565b5b80604052505050565b6000620003e562000345565b9050620003f38282620003a3565b919050565b600067ffffffffffffffff82111562000416576200041562000374565b5b620004218262000363565b9050602081019050919050565b60005b838110156200044e57808201518184015260208101905062000431565b838111156200045e576000848401525b50505050565b60006200047b6200047584620003f8565b620003d9565b9050828152602081018484840111156200049a57620004996200035e565b5b620004a78482856200042e565b509392505050565b600082601f830112620004c757620004c662000359565b5b8151620004d984826020860162000464565b91505092915050565b600073ffffffffffffffffffffffffffffffffffffffff82169050919050565b60006200050f82620004e2565b9050919050565b620005218162000502565b81146200052d57600080fd5b50565b600081519050620005418162000516565b92915050565b6000819050919050565b6200055c8162000547565b81146200056857600080fd5b50565b6000815190506200057c8162000551565b92915050565b600080600080608085870312156200059f576200059e6200034f565b5b600085015167ffffffffffffffff811115620005c057620005bf62000354565b5b620005ce87828801620004af565b945050602085015167ffffffffffffffff811115620005f257620005f162000354565b5b6200060087828801620004af565b9350506040620006138782880162000530565b925050606062000626878288016200056b565b91505092959194509250565b600082825260208201905092915050565b7f45524332303a206d696e7420746f20746865207a65726f206164647265737300600082015250565b60006200067b601f8362000632565b9150620006888262000643565b602082019050919050565b60006020820190508181036000830152620006ae816200066c565b9050919050565b7f4e487b7100000000000000000000000000000000000000000000000000000000600052601160045260246000fd5b6000620006f18262000547565b9150620006fe8362000547565b9250827fffffffffffffffffffffffffffffffffffffffffffffffffffffffffffffffff03821115620007365762000735620006b5565b5b828201905092915050565b6200074c8162000547565b82525050565b600060208201905062000769600083018462000741565b92915050565b7f45524332305061757361626c653a20746f6b656e207472616e7366657220776860008201527f696c652070617573656400000000000000000000000000000000000000000000602082015250565b6000620007cd602a8362000632565b9150620007da826200076f565b604082019050919050565b600060208201905081810360008301526200080081620007be565b9050919050565b7f4e487b7100000000000000000000000000000000000000000000000000000000600052602260045260246000fd5b600060028204905060018216806200084f57607f821691505b6020821081141562000866576200086562000807565b5b50919050565b611cda806200087c6000396000f3fe608060405234801561001057600080fd5b50600436106101005760003560e01c80635c975abb116100975780639dc29fac116100665780639dc29fac1461028b578063a457c2d7146102a7578063a9059cbb146102d7578063dd62ed3e1461030757610100565b80635c975abb1461021557806370a08231146102335780638456cb591461026357806395d89b411461026d57610100565b8063313ce567116100d3578063313ce567146101a157806339509351146101bf5780633f4ba83a146101ef57806340c10f19146101f957610100565b806306fdde0314610105578063095ea7b31461012357806318160ddd1461015357806323b872dd14610171575b600080fd5b61010d610337565b60405161011a9190611216565b60405180910390f35b61013d600480360381019061013891906112d1565b6103c9565b60405161014a919061132c565b60405180910390f35b61015b6103e7565b6040516101689190611356565b60405180910390f35b61018b60048036038101906101869190611371565b6103f1565b604051610198919061132c565b60405180910390f35b6101a96104f2565b6040516101b691906113e0565b60405180910390f35b6101d960048036038101906101d491906112d1565b6104fb565b6040516101e6919061132c565b60405180910390f35b6101f76105a7565b005b610213600480360381019061020e91906112d1565b6105b1565b005b61021d6105bf565b60405161022a919061132c565b60405180910390f35b61024d600480360381019061024891906113fb565b6105d6565b60405161025a9190611356565b60405180910390f35b61026b61061e565b005b610275610628565b6040516102829190611216565b60405180910390f35b6102a560048036038101906102a091906112d1565b6106ba565b005b6102c160048036038101906102bc91906112d1565b6106c8565b6040516102ce919061132c565b60405180910390f35b6102f160048036038101906102ec91906112d1565b6107bc565b6040516102fe919061132c565b60405180910390f35b610321600480360381019061031c9190611428565b6107da565b60405161032e9190611356565b60405180910390f35b60606003805461034690611497565b80601f016020809104026020016040519081016040528092919081815260200182805461037290611497565b80156103bf5780601f10610394576101008083540402835291602001916103bf565b820191906000526020600020905b8154815290600101906020018083116103a257829003601f168201915b5050505050905090565b60006103dd6103d6610866565b848461086e565b6001905092915050565b6000600254905090565b60006103fe848484610a39565b6000600160008673ffffffffffffffffffffffffffffffffffffffff1673ffffffffffffffffffffffffffffffffffffffff1681526020019081526020016000206000610449610866565b73ffffffffffffffffffffffffffffffffffffffff1673ffffffffffffffffffffffffffffffffffffffff168152602001908152602001600020549050828110156104c9576040517f08c379a00000000000000000000000000000000000000000000000000000000081526004016104c09061153b565b60405180910390fd5b6104e6856104d5610866565b85846104e1919061158a565b61086e565b60019150509392505050565b60006012905090565b600061059d610508610866565b848460016000610516610866565b73ffffffffffffffffffffffffffffffffffffffff1673ffffffffffffffffffffffffffffffffffffffff16815260200190815260200160002060008873ffffffffffffffffffffffffffffffffffffffff1673ffffffffffffffffffffffffffffffffffffffff1681526020019081526020016000205461059891906115be565b61086e565b6001905092915050565b6105af610cb8565b565b6105bb8282610d5a565b5050565b6000600560009054906101000a900460ff16905090565b60008060008373ffffffffffffffffffffffffffffffffffffffff1673ffffffffffffffffffffffffffffffffffffffff168152602001908152602001600020549050919050565b610626610eae565b565b60606004805461063790611497565b80601f016020809104026020016040519081016040528092919081815260200182805461066390611497565b80156106b05780601f10610685576101008083540402835291602001916106b0565b820191906000526020600020905b81548152906001019060200180831161069357829003601f168201915b5050505050905090565b6106c48282610f51565b5050565b600080600160006106d7610866565b73ffffffffffffffffffffffffffffffffffffffff1673ffffffffffffffffffffffffffffffffffffffff16815260200190815260200160002060008573ffffffffffffffffffffffffffffffffffffffff1673ffffffffffffffffffffffffffffffffffffffff16815260200190815260200160002054905082811015610794576040517f08c379a000000000000000000000000000000000000000000000000000000000815260040161078b90611686565b60405180910390fd5b6107b161079f610866565b8585846107ac919061158a565b61086e565b600191505092915050565b60006107d06107c9610866565b8484610a39565b6001905092915050565b6000600160008473ffffffffffffffffffffffffffffffffffffffff1673ffffffffffffffffffffffffffffffffffffffff16815260200190815260200160002060008373ffffffffffffffffffffffffffffffffffffffff1673ffffffffffffffffffffffffffffffffffffffff16815260200190815260200160002054905092915050565b505050565b600033905090565b600073ffffffffffffffffffffffffffffffffffffffff168373ffffffffffffffffffffffffffffffffffffffff1614156108de576040517f08c379a00000000000000000000000000000000000000000000000000000000081526004016108d590611718565b60405180910390fd5b600073ffffffffffffffffffffffffffffffffffffffff168273ffffffffffffffffffffffffffffffffffffffff16141561094e576040517f08c379a0000000000000000000000000000000000000000000000000000000008152600401610945906117aa565b60405180910390fd5b80600160008573ffffffffffffffffffffffffffffffffffffffff1673ffffffffffffffffffffffffffffffffffffffff16815260200190815260200160002060008473ffffffffffffffffffffffffffffffffffffffff1673ffffffffffffffffffffffffffffffffffffffff168152602001908152602001600020819055508173ffffffffffffffffffffffffffffffffffffffff168373ffffffffffffffffffffffffffffffffffffffff167f8c5be1e5ebec7d5bd14f71427d1e84f3dd0314c0f7b2291e5b200ac8c7c3b92583604051610a2c9190611356565b60405180910390a3505050565b600073ffffffffffffffffffffffffffffffffffffffff168373ffffffffffffffffffffffffffffffffffffffff161415610aa9576040517f08c379a0000000000000000000000000000000000000000000000000000000008152600401610aa09061183c565b60405180910390fd5b600073ffffffffffffffffffffffffffffffffffffffff168273ffffffffffffffffffffffffffffffffffffffff161415610b19576040517f08c379a0000000000000000000000000000000000000000000000000000000008152600401610b10906118ce565b60405180910390fd5b610b24838383611125565b60008060008573ffffffffffffffffffffffffffffffffffffffff1673ffffffffffffffffffffffffffffffffffffffff16815260200190815260200160002054905081811015610baa576040517f08c379a0000000000000000000000000000000000000000000000000000000008152600401610ba190611960565b60405180910390fd5b8181610bb6919061158a565b6000808673ffffffffffffffffffffffffffffffffffffffff1673ffffffffffffffffffffffffffffffffffffffff16815260200190815260200160002081905550816000808573ffffffffffffffffffffffffffffffffffffffff1673ffffffffffffffffffffffffffffffffffffffff1681526020019081526020016000206000828254610c4691906115be565b925050819055508273ffffffffffffffffffffffffffffffffffffffff168473ffffffffffffffffffffffffffffffffffffffff167fddf252ad1be2c89b69c2b068fc378daa952ba7f163c4a11628f55a4df523b3ef84604051610caa9190611356565b60405180910390a350505050565b610cc06105bf565b610cff576040517f08c379a0000000000000000000000000000000000000000000000000000000008152600401610cf6906119cc565b60405180910390fd5b6000600560006101000a81548160ff0219169083151502179055507f5db9ee0a495bf2e6ff9c91a7834c1ba4fdd244a5e8aa4e537bd38aeae4b073aa610d43610866565b604051610d5091906119fb565b60405180910390a1565b600073ffffffffffffffffffffffffffffffffffffffff168273ffffffffffffffffffffffffffffffffffffffff161415610dca576040517f08c379a0000000000000000000000000000000000000000000000000000000008152600401610dc190611a62565b60405180910390fd5b610dd660008383611125565b8060026000828254610de891906115be565b92505081905550806000808473ffffffffffffffffffffffffffffffffffffffff1673ffffffffffffffffffffffffffffffffffffffff1681526020019081526020016000206000828254610e3d91906115be565b925050819055508173ffffffffffffffffffffffffffffffffffffffff16600073ffffffffffffffffffffffffffffffffffffffff167fddf252ad1be2c89b69c2b068fc378daa952ba7f163c4a11628f55a4df523b3ef83604051610ea29190611356565b60405180910390a35050565b610eb66105bf565b15610ef6576040517f08c379a0000000000000000000000000000000000000000000000000000000008152600401610eed90611ace565b60405180910390fd5b6001600560006101000a81548160ff0219169083151502179055507f62e78cea01bee320cd4e420270b5ea74000d11b0c9f74754ebdbfc544b05a258610f3a610866565b604051610f4791906119fb565b60405180910390a1565b600073ffffffffffffffffffffffffffffffffffffffff168273ffffffffffffffffffffffffffffffffffffffff161415610fc1576040517f08c379a0000000000000000000000000000000000000000000000000000000008152600401610fb890611b60565b60405180910390fd5b610fcd82600083611125565b60008060008473ffffffffffffffffffffffffffffffffffffffff1673ffffffffffffffffffffffffffffffffffffffff16815260200190815260200160002054905081811015611053576040517f08c379a000000000000000000000000000000000000000000000000000000000815260040161104a90611bf2565b60405180910390fd5b818161105f919061158a565b6000808573ffffffffffffffffffffffffffffffffffffffff1673ffffffffffffffffffffffffffffffffffffffff1681526020019081526020016000208190555081600260008282546110b3919061158a565b92505081905550600073ffffffffffffffffffffffffffffffffffffffff168373ffffffffffffffffffffffffffffffffffffffff167fddf252ad1be2c89b69c2b068fc378daa952ba7f163c4a11628f55a4df523b3ef846040516111189190611356565b60405180910390a3505050565b611130838383610861565b6111386105bf565b15611178576040517f08c379a000000000000000000000000000000000000000000000000000000000815260040161116f90611c84565b60405180910390fd5b505050565b600081519050919050565b600082825260208201905092915050565b60005b838110156111b757808201518184015260208101905061119c565b838111156111c6576000848401525b50505050565b6000601f19601f8301169050919050565b60006111e88261117d565b6111f28185611188565b9350611202818560208601611199565b61120b816111cc565b840191505092915050565b6000602082019050818103600083015261123081846111dd565b905092915050565b600080fd5b600073ffffffffffffffffffffffffffffffffffffffff82169050919050565b60006112688261123d565b9050919050565b6112788161125d565b811461128357600080fd5b50565b6000813590506112958161126f565b92915050565b6000819050919050565b6112ae8161129b565b81146112b957600080fd5b50565b6000813590506112cb816112a5565b92915050565b600080604083850312156112e8576112e7611238565b5b60006112f685828601611286565b9250506020611307858286016112bc565b9150509250929050565b60008115159050919050565b61132681611311565b82525050565b6000602082019050611341600083018461131d565b92915050565b6113508161129b565b82525050565b600060208201905061136b6000830184611347565b92915050565b60008060006060848603121561138a57611389611238565b5b600061139886828701611286565b93505060206113a986828701611286565b92505060406113ba868287016112bc565b9150509250925092565b600060ff82169050919050565b6113da816113c4565b82525050565b60006020820190506113f560008301846113d1565b92915050565b60006020828403121561141157611410611238565b5b600061141f84828501611286565b91505092915050565b6000806040838503121561143f5761143e611238565b5b600061144d85828601611286565b925050602061145e85828601611286565b9150509250929050565b7f4e487b7100000000000000000000000000000000000000000000000000000000600052602260045260246000fd5b600060028204905060018216806114af57607f821691505b602082108114156114c3576114c2611468565b5b50919050565b7f45524332303a207472616e7366657220616d6f756e742065786365656473206160008201527f6c6c6f77616e6365000000000000000000000000000000000000000000000000602082015250565b6000611525602883611188565b9150611530826114c9565b604082019050919050565b6000602082019050818103600083015261155481611518565b9050919050565b7f4e487b7100000000000000000000000000000000000000000000000000000000600052601160045260246000fd5b60006115958261129b565b91506115a08361129b565b9250828210156115b3576115b261155b565b5b828203905092915050565b60006115c98261129b565b91506115d48361129b565b9250827fffffffffffffffffffffffffffffffffffffffffffffffffffffffffffffffff038211156116095761160861155b565b5b828201905092915050565b7f45524332303a2064656372656173656420616c6c6f77616e63652062656c6f7760008201527f207a65726f000000000000000000000000000000000000000000000000000000602082015250565b6000611670602583611188565b915061167b82611614565b604082019050919050565b6000602082019050818103600083015261169f81611663565b9050919050565b7f45524332303a20617070726f76652066726f6d20746865207a65726f2061646460008201527f7265737300000000000000000000000000000000000000000000000000000000602082015250565b6000611702602483611188565b915061170d826116a6565b604082019050919050565b60006020820190508181036000830152611731816116f5565b9050919050565b7f45524332303a20617070726f766520746f20746865207a65726f20616464726560008201527f7373000000000000000000000000000000000000000000000000000000000000602082015250565b6000611794602283611188565b915061179f82611738565b604082019050919050565b600060208201905081810360008301526117c381611787565b9050919050565b7f45524332303a207472616e736665722066726f6d20746865207a65726f20616460008201527f6472657373000000000000000000000000000000000000000000000000000000602082015250565b6000611826602583611188565b9150611831826117ca565b604082019050919050565b6000602082019050818103600083015261185581611819565b9050919050565b7f45524332303a207472616e7366657220746f20746865207a65726f206164647260008201527f6573730000000000000000000000000000000000000000000000000000000000602082015250565b60006118b8602383611188565b91506118c38261185c565b604082019050919050565b600060208201905081810360008301526118e7816118ab565b9050919050565b7f45524332303a207472616e7366657220616d6f756e742065786365656473206260008201527f616c616e63650000000000000000000000000000000000000000000000000000602082015250565b600061194a602683611188565b9150611955826118ee565b604082019050919050565b600060208201905081810360008301526119798161193d565b9050919050565b7f5061757361626c653a206e6f7420706175736564000000000000000000000000600082015250565b60006119b6601483611188565b91506119c182611980565b602082019050919050565b600060208201905081810360008301526119e5816119a9565b9050919050565b6119f58161125d565b82525050565b6000602082019050611a1060008301846119ec565b92915050565b7f45524332303a206d696e7420746f20746865207a65726f206164647265737300600082015250565b6000611a4c601f83611188565b9150611a5782611a16565b602082019050919050565b60006020820190508181036000830152611a7b81611a3f565b9050919050565b7f5061757361626c653a2070617573656400000000000000000000000000000000600082015250565b6000611ab8601083611188565b9150611ac382611a82565b602082019050919050565b60006020820190508181036000830152611ae781611aab565b9050919050565b7f45524332303a206275726e2066726f6d20746865207a65726f2061646472657360008201527f7300000000000000000000000000000000000000000000000000000000000000602082015250565b6000611b4a602183611188565b9150611b5582611aee565b604082019050919050565b60006020820190508181036000830152611b7981611b3d565b9050919050565b7f45524332303a206275726e20616d6f756e7420657863656564732062616c616e60008201527f6365000000000000000000000000000000000000000000000000000000000000602082015250565b6000611bdc602283611188565b9150611be782611b80565b604082019050919050565b60006020820190508181036000830152611c0b81611bcf565b9050919050565b7f45524332305061757361626c653a20746f6b656e207472616e7366657220776860008201527f696c652070617573656400000000000000000000000000000000000000000000602082015250565b6000611c6e602a83611188565b9150611c7982611c12565b604082019050919050565b60006020820190508181036000830152611c9d81611c61565b905091905056fea2646970667358221220e2ebea45f0ba9bdc6f2d596b13d9ea59303abe5dc8698dfdcc332e754c851cb964736f6c634300080a0033",
  "immutableReferences": {},
  "source": "// SPDX-License-Identifier: MIT\n\npragma solidity ^0.8.0;\n\nimport \"../token/ERC20/extensions/ERC20Pausable.sol\";\n\n// mock class using ERC20Pausable\ncontract ERC20PausableMock is ERC20Pausable {\n    constructor (\n        string memory name,\n        string memory symbol,\n        address initialAccount,\n        uint256 initialBalance\n    ) ERC20(name, symbol) {\n        _mint(initialAccount, initialBalance);\n    }\n\n    function pause() external {\n        _pause();\n    }\n\n    function unpause() external {\n        _unpause();\n    }\n\n    function mint(address to, uint256 amount) public {\n        _mint(to, amount);\n    }\n\n    function burn(address from, uint256 amount) public {\n        _burn(from, amount);\n    }\n}\n",
  "sourcePath": "D:\\FYP\\FYP\\Dapp\\src\\contracts\\openzeppelin-contracts-4.1.0\\openzeppelin-contracts-4.1.0\\contracts\\mocks\\ERC20PausableMock.sol",
  "compiler": {
    "name": "solc",
    "version": "0.8.10+commit.fc410830.Emscripten.clang"
  },
  "schemaVersion": "3.4.3",
  "updatedAt": "2021-11-25T02:44:55.128Z",
  "devdoc": {
    "kind": "dev",
    "methods": {
      "allowance(address,address)": {
        "details": "See {IERC20-allowance}."
      },
      "approve(address,uint256)": {
        "details": "See {IERC20-approve}. Requirements: - `spender` cannot be the zero address."
      },
      "balanceOf(address)": {
        "details": "See {IERC20-balanceOf}."
      },
      "decimals()": {
        "details": "Returns the number of decimals used to get its user representation. For example, if `decimals` equals `2`, a balance of `505` tokens should be displayed to a user as `5,05` (`505 / 10 ** 2`). Tokens usually opt for a value of 18, imitating the relationship between Ether and Wei. This is the value {ERC20} uses, unless this function is overridden; NOTE: This information is only used for _display_ purposes: it in no way affects any of the arithmetic of the contract, including {IERC20-balanceOf} and {IERC20-transfer}."
      },
      "decreaseAllowance(address,uint256)": {
        "details": "Atomically decreases the allowance granted to `spender` by the caller. This is an alternative to {approve} that can be used as a mitigation for problems described in {IERC20-approve}. Emits an {Approval} event indicating the updated allowance. Requirements: - `spender` cannot be the zero address. - `spender` must have allowance for the caller of at least `subtractedValue`."
      },
      "increaseAllowance(address,uint256)": {
        "details": "Atomically increases the allowance granted to `spender` by the caller. This is an alternative to {approve} that can be used as a mitigation for problems described in {IERC20-approve}. Emits an {Approval} event indicating the updated allowance. Requirements: - `spender` cannot be the zero address."
      },
      "name()": {
        "details": "Returns the name of the token."
      },
      "paused()": {
        "details": "Returns true if the contract is paused, and false otherwise."
      },
      "symbol()": {
        "details": "Returns the symbol of the token, usually a shorter version of the name."
      },
      "totalSupply()": {
        "details": "See {IERC20-totalSupply}."
      },
      "transfer(address,uint256)": {
        "details": "See {IERC20-transfer}. Requirements: - `recipient` cannot be the zero address. - the caller must have a balance of at least `amount`."
      },
      "transferFrom(address,address,uint256)": {
        "details": "See {IERC20-transferFrom}. Emits an {Approval} event indicating the updated allowance. This is not required by the EIP. See the note at the beginning of {ERC20}. Requirements: - `sender` and `recipient` cannot be the zero address. - `sender` must have a balance of at least `amount`. - the caller must have allowance for ``sender``'s tokens of at least `amount`."
      }
    },
    "version": 1
  },
  "userdoc": {
    "kind": "user",
    "methods": {},
    "version": 1
  }
}