{
  "contractName": "ERC721PausableMock",
  "abi": [
    {
      "inputs": [
        {
          "internalType": "string",
          "name": "name",
          "type": "string"
        },
        {
          "internalType": "string",
          "name": "symbol",
          "type": "string"
        }
      ],
      "stateMutability": "nonpayable",
      "type": "constructor"
    },
    {
      "anonymous": false,
      "inputs": [
        {
          "indexed": true,
          "internalType": "address",
          "name": "owner",
          "type": "address"
        },
        {
          "indexed": true,
          "internalType": "address",
          "name": "approved",
          "type": "address"
        },
        {
          "indexed": true,
          "internalType": "uint256",
          "name": "tokenId",
          "type": "uint256"
        }
      ],
      "name": "Approval",
      "type": "event"
    },
    {
      "anonymous": false,
      "inputs": [
        {
          "indexed": true,
          "internalType": "address",
          "name": "owner",
          "type": "address"
        },
        {
          "indexed": true,
          "internalType": "address",
          "name": "operator",
          "type": "address"
        },
        {
          "indexed": false,
          "internalType": "bool",
          "name": "approved",
          "type": "bool"
        }
      ],
      "name": "ApprovalForAll",
      "type": "event"
    },
    {
      "anonymous": false,
      "inputs": [
        {
          "indexed": false,
          "internalType": "address",
          "name": "account",
          "type": "address"
        }
      ],
      "name": "Paused",
      "type": "event"
    },
    {
      "anonymous": false,
      "inputs": [
        {
          "indexed": true,
          "internalType": "address",
          "name": "from",
          "type": "address"
        },
        {
          "indexed": true,
          "internalType": "address",
          "name": "to",
          "type": "address"
        },
        {
          "indexed": true,
          "internalType": "uint256",
          "name": "tokenId",
          "type": "uint256"
        }
      ],
      "name": "Transfer",
      "type": "event"
    },
    {
      "anonymous": false,
      "inputs": [
        {
          "indexed": false,
          "internalType": "address",
          "name": "account",
          "type": "address"
        }
      ],
      "name": "Unpaused",
      "type": "event"
    },
    {
      "inputs": [
        {
          "internalType": "address",
          "name": "to",
          "type": "address"
        },
        {
          "internalType": "uint256",
          "name": "tokenId",
          "type": "uint256"
        }
      ],
      "name": "approve",
      "outputs": [],
      "stateMutability": "nonpayable",
      "type": "function"
    },
    {
      "inputs": [
        {
          "internalType": "address",
          "name": "owner",
          "type": "address"
        }
      ],
      "name": "balanceOf",
      "outputs": [
        {
          "internalType": "uint256",
          "name": "",
          "type": "uint256"
        }
      ],
      "stateMutability": "view",
      "type": "function"
    },
    {
      "inputs": [
        {
          "internalType": "uint256",
          "name": "tokenId",
          "type": "uint256"
        }
      ],
      "name": "getApproved",
      "outputs": [
        {
          "internalType": "address",
          "name": "",
          "type": "address"
        }
      ],
      "stateMutability": "view",
      "type": "function"
    },
    {
      "inputs": [
        {
          "internalType": "address",
          "name": "owner",
          "type": "address"
        },
        {
          "internalType": "address",
          "name": "operator",
          "type": "address"
        }
      ],
      "name": "isApprovedForAll",
      "outputs": [
        {
          "internalType": "bool",
          "name": "",
          "type": "bool"
        }
      ],
      "stateMutability": "view",
      "type": "function"
    },
    {
      "inputs": [],
      "name": "name",
      "outputs": [
        {
          "internalType": "string",
          "name": "",
          "type": "string"
        }
      ],
      "stateMutability": "view",
      "type": "function"
    },
    {
      "inputs": [
        {
          "internalType": "uint256",
          "name": "tokenId",
          "type": "uint256"
        }
      ],
      "name": "ownerOf",
      "outputs": [
        {
          "internalType": "address",
          "name": "",
          "type": "address"
        }
      ],
      "stateMutability": "view",
      "type": "function"
    },
    {
      "inputs": [],
      "name": "paused",
      "outputs": [
        {
          "internalType": "bool",
          "name": "",
          "type": "bool"
        }
      ],
      "stateMutability": "view",
      "type": "function"
    },
    {
      "inputs": [
        {
          "internalType": "address",
          "name": "from",
          "type": "address"
        },
        {
          "internalType": "address",
          "name": "to",
          "type": "address"
        },
        {
          "internalType": "uint256",
          "name": "tokenId",
          "type": "uint256"
        }
      ],
      "name": "safeTransferFrom",
      "outputs": [],
      "stateMutability": "nonpayable",
      "type": "function"
    },
    {
      "inputs": [
        {
          "internalType": "address",
          "name": "from",
          "type": "address"
        },
        {
          "internalType": "address",
          "name": "to",
          "type": "address"
        },
        {
          "internalType": "uint256",
          "name": "tokenId",
          "type": "uint256"
        },
        {
          "internalType": "bytes",
          "name": "_data",
          "type": "bytes"
        }
      ],
      "name": "safeTransferFrom",
      "outputs": [],
      "stateMutability": "nonpayable",
      "type": "function"
    },
    {
      "inputs": [
        {
          "internalType": "address",
          "name": "operator",
          "type": "address"
        },
        {
          "internalType": "bool",
          "name": "approved",
          "type": "bool"
        }
      ],
      "name": "setApprovalForAll",
      "outputs": [],
      "stateMutability": "nonpayable",
      "type": "function"
    },
    {
      "inputs": [
        {
          "internalType": "bytes4",
          "name": "interfaceId",
          "type": "bytes4"
        }
      ],
      "name": "supportsInterface",
      "outputs": [
        {
          "internalType": "bool",
          "name": "",
          "type": "bool"
        }
      ],
      "stateMutability": "view",
      "type": "function"
    },
    {
      "inputs": [],
      "name": "symbol",
      "outputs": [
        {
          "internalType": "string",
          "name": "",
          "type": "string"
        }
      ],
      "stateMutability": "view",
      "type": "function"
    },
    {
      "inputs": [
        {
          "internalType": "uint256",
          "name": "tokenId",
          "type": "uint256"
        }
      ],
      "name": "tokenURI",
      "outputs": [
        {
          "internalType": "string",
          "name": "",
          "type": "string"
        }
      ],
      "stateMutability": "view",
      "type": "function"
    },
    {
      "inputs": [
        {
          "internalType": "address",
          "name": "from",
          "type": "address"
        },
        {
          "internalType": "address",
          "name": "to",
          "type": "address"
        },
        {
          "internalType": "uint256",
          "name": "tokenId",
          "type": "uint256"
        }
      ],
      "name": "transferFrom",
      "outputs": [],
      "stateMutability": "nonpayable",
      "type": "function"
    },
    {
      "inputs": [],
      "name": "pause",
      "outputs": [],
      "stateMutability": "nonpayable",
      "type": "function"
    },
    {
      "inputs": [],
      "name": "unpause",
      "outputs": [],
      "stateMutability": "nonpayable",
      "type": "function"
    },
    {
      "inputs": [
        {
          "internalType": "uint256",
          "name": "tokenId",
          "type": "uint256"
        }
      ],
      "name": "exists",
      "outputs": [
        {
          "internalType": "bool",
          "name": "",
          "type": "bool"
        }
      ],
      "stateMutability": "view",
      "type": "function"
    },
    {
      "inputs": [
        {
          "internalType": "address",
          "name": "to",
          "type": "address"
        },
        {
          "internalType": "uint256",
          "name": "tokenId",
          "type": "uint256"
        }
      ],
      "name": "mint",
      "outputs": [],
      "stateMutability": "nonpayable",
      "type": "function"
    },
    {
      "inputs": [
        {
          "internalType": "address",
          "name": "to",
          "type": "address"
        },
        {
          "internalType": "uint256",
          "name": "tokenId",
          "type": "uint256"
        },
        {
          "internalType": "bytes",
          "name": "_data",
          "type": "bytes"
        }
      ],
      "name": "safeMint",
      "outputs": [],
      "stateMutability": "nonpayable",
      "type": "function"
    },
    {
      "inputs": [
        {
          "internalType": "address",
          "name": "to",
          "type": "address"
        },
        {
          "internalType": "uint256",
          "name": "tokenId",
          "type": "uint256"
        }
      ],
      "name": "safeMint",
      "outputs": [],
      "stateMutability": "nonpayable",
      "type": "function"
    },
    {
      "inputs": [
        {
          "internalType": "uint256",
          "name": "tokenId",
          "type": "uint256"
        }
      ],
      "name": "burn",
      "outputs": [],
      "stateMutability": "nonpayable",
      "type": "function"
    }
  ],
  "bytecode": "0x60806040523480156200001157600080fd5b50604051620030e9380380620030e98339818101604052810190620000379190620002dd565b818181600090805190602001906200005192919062000090565b5080600190805190602001906200006a92919062000090565b5050506000600660006101000a81548160ff0219169083151502179055505050620003c7565b8280546200009e9062000391565b90600052602060002090601f016020900481019282620000c257600085556200010e565b82601f10620000dd57805160ff19168380011785556200010e565b828001600101855582156200010e579182015b828111156200010d578251825591602001919060010190620000f0565b5b5090506200011d919062000121565b5090565b5b808211156200013c57600081600090555060010162000122565b5090565b6000604051905090565b600080fd5b600080fd5b600080fd5b600080fd5b6000601f19601f8301169050919050565b7f4e487b7100000000000000000000000000000000000000000000000000000000600052604160045260246000fd5b620001a9826200015e565b810181811067ffffffffffffffff82111715620001cb57620001ca6200016f565b5b80604052505050565b6000620001e062000140565b9050620001ee82826200019e565b919050565b600067ffffffffffffffff8211156200021157620002106200016f565b5b6200021c826200015e565b9050602081019050919050565b60005b83811015620002495780820151818401526020810190506200022c565b8381111562000259576000848401525b50505050565b6000620002766200027084620001f3565b620001d4565b90508281526020810184848401111562000295576200029462000159565b5b620002a284828562000229565b509392505050565b600082601f830112620002c257620002c162000154565b5b8151620002d48482602086016200025f565b91505092915050565b60008060408385031215620002f757620002f66200014a565b5b600083015167ffffffffffffffff8111156200031857620003176200014f565b5b6200032685828601620002aa565b925050602083015167ffffffffffffffff8111156200034a57620003496200014f565b5b6200035885828601620002aa565b9150509250929050565b7f4e487b7100000000000000000000000000000000000000000000000000000000600052602260045260246000fd5b60006002820490506001821680620003aa57607f821691505b60208210811415620003c157620003c062000362565b5b50919050565b612d1280620003d76000396000f3fe608060405234801561001057600080fd5b50600436106101375760003560e01c80635c975abb116100b857806395d89b411161007c57806395d89b4114610324578063a144819414610342578063a22cb4651461035e578063b88d4fde1461037a578063c87b56dd14610396578063e985e9c5146103c657610137565b80635c975abb146102805780636352211e1461029e57806370a08231146102ce5780638456cb59146102fe5780638832e6e31461030857610137565b80633f4ba83a116100ff5780633f4ba83a146101f257806340c10f19146101fc57806342842e0e1461021857806342966c68146102345780634f558e791461025057610137565b806301ffc9a71461013c57806306fdde031461016c578063081812fc1461018a578063095ea7b3146101ba57806323b872dd146101d6575b600080fd5b61015660048036038101906101519190611abc565b6103f6565b6040516101639190611b04565b60405180910390f35b6101746104d8565b6040516101819190611bb8565b60405180910390f35b6101a4600480360381019061019f9190611c10565b61056a565b6040516101b19190611c7e565b60405180910390f35b6101d460048036038101906101cf9190611cc5565b6105ef565b005b6101f060048036038101906101eb9190611d05565b610707565b005b6101fa610767565b005b61021660048036038101906102119190611cc5565b610771565b005b610232600480360381019061022d9190611d05565b61077f565b005b61024e60048036038101906102499190611c10565b61079f565b005b61026a60048036038101906102659190611c10565b6107ab565b6040516102779190611b04565b60405180910390f35b6102886107bd565b6040516102959190611b04565b60405180910390f35b6102b860048036038101906102b39190611c10565b6107d4565b6040516102c59190611c7e565b60405180910390f35b6102e860048036038101906102e39190611d58565b610886565b6040516102f59190611d94565b60405180910390f35b61030661093e565b005b610322600480360381019061031d9190611ee4565b610948565b005b61032c610958565b6040516103399190611bb8565b60405180910390f35b61035c60048036038101906103579190611cc5565b6109ea565b005b61037860048036038101906103739190611f7f565b6109f8565b005b610394600480360381019061038f9190611fbf565b610b79565b005b6103b060048036038101906103ab9190611c10565b610bdb565b6040516103bd9190611bb8565b60405180910390f35b6103e060048036038101906103db9190612042565b610c82565b6040516103ed9190611b04565b60405180910390f35b60007f80ac58cd000000000000000000000000000000000000000000000000000000007bffffffffffffffffffffffffffffffffffffffffffffffffffffffff1916827bffffffffffffffffffffffffffffffffffffffffffffffffffffffff191614806104c157507f5b5e139f000000000000000000000000000000000000000000000000000000007bffffffffffffffffffffffffffffffffffffffffffffffffffffffff1916827bffffffffffffffffffffffffffffffffffffffffffffffffffffffff1916145b806104d157506104d082610d16565b5b9050919050565b6060600080546104e7906120b1565b80601f0160208091040260200160405190810160405280929190818152602001828054610513906120b1565b80156105605780601f1061053557610100808354040283529160200191610560565b820191906000526020600020905b81548152906001019060200180831161054357829003601f168201915b5050505050905090565b600061057582610d80565b6105b4576040517f08c379a00000000000000000000000000000000000000000000000000000000081526004016105ab90612155565b60405180910390fd5b6004600083815260200190815260200160002060009054906101000a900473ffffffffffffffffffffffffffffffffffffffff169050919050565b60006105fa826107d4565b90508073ffffffffffffffffffffffffffffffffffffffff168373ffffffffffffffffffffffffffffffffffffffff16141561066b576040517f08c379a0000000000000000000000000000000000000000000000000000000008152600401610662906121e7565b60405180910390fd5b8073ffffffffffffffffffffffffffffffffffffffff1661068a610dec565b73ffffffffffffffffffffffffffffffffffffffff1614806106b957506106b8816106b3610dec565b610c82565b5b6106f8576040517f08c379a00000000000000000000000000000000000000000000000000000000081526004016106ef90612279565b60405180910390fd5b6107028383610df4565b505050565b610718610712610dec565b82610ead565b610757576040517f08c379a000000000000000000000000000000000000000000000000000000000815260040161074e9061230b565b60405180910390fd5b610762838383610f8b565b505050565b61076f6111e7565b565b61077b8282611289565b5050565b61079a83838360405180602001604052806000815250610b79565b505050565b6107a881611457565b50565b60006107b682610d80565b9050919050565b6000600660009054906101000a900460ff16905090565b6000806002600084815260200190815260200160002060009054906101000a900473ffffffffffffffffffffffffffffffffffffffff169050600073ffffffffffffffffffffffffffffffffffffffff168173ffffffffffffffffffffffffffffffffffffffff16141561087d576040517f08c379a00000000000000000000000000000000000000000000000000000000081526004016108749061239d565b60405180910390fd5b80915050919050565b60008073ffffffffffffffffffffffffffffffffffffffff168273ffffffffffffffffffffffffffffffffffffffff1614156108f7576040517f08c379a00000000000000000000000000000000000000000000000000000000081526004016108ee9061242f565b60405180910390fd5b600360008373ffffffffffffffffffffffffffffffffffffffff1673ffffffffffffffffffffffffffffffffffffffff168152602001908152602001600020549050919050565b610946611568565b565b61095383838361160b565b505050565b606060018054610967906120b1565b80601f0160208091040260200160405190810160405280929190818152602001828054610993906120b1565b80156109e05780601f106109b5576101008083540402835291602001916109e0565b820191906000526020600020905b8154815290600101906020018083116109c357829003601f168201915b5050505050905090565b6109f48282611666565b5050565b610a00610dec565b73ffffffffffffffffffffffffffffffffffffffff168273ffffffffffffffffffffffffffffffffffffffff161415610a6e576040517f08c379a0000000000000000000000000000000000000000000000000000000008152600401610a659061249b565b60405180910390fd5b8060056000610a7b610dec565b73ffffffffffffffffffffffffffffffffffffffff1673ffffffffffffffffffffffffffffffffffffffff16815260200190815260200160002060008473ffffffffffffffffffffffffffffffffffffffff1673ffffffffffffffffffffffffffffffffffffffff16815260200190815260200160002060006101000a81548160ff0219169083151502179055508173ffffffffffffffffffffffffffffffffffffffff16610b28610dec565b73ffffffffffffffffffffffffffffffffffffffff167f17307eab39ab6107e8899845ad3d59bd9653f200f220920489ca2b5937696c3183604051610b6d9190611b04565b60405180910390a35050565b610b8a610b84610dec565b83610ead565b610bc9576040517f08c379a0000000000000000000000000000000000000000000000000000000008152600401610bc09061230b565b60405180910390fd5b610bd584848484611684565b50505050565b6060610be682610d80565b610c25576040517f08c379a0000000000000000000000000000000000000000000000000000000008152600401610c1c9061252d565b60405180910390fd5b6000610c2f6116e0565b90506000815111610c4f5760405180602001604052806000815250610c7a565b80610c59846116f7565b604051602001610c6a929190612589565b6040516020818303038152906040525b915050919050565b6000600560008473ffffffffffffffffffffffffffffffffffffffff1673ffffffffffffffffffffffffffffffffffffffff16815260200190815260200160002060008373ffffffffffffffffffffffffffffffffffffffff1673ffffffffffffffffffffffffffffffffffffffff16815260200190815260200160002060009054906101000a900460ff16905092915050565b60007f01ffc9a7000000000000000000000000000000000000000000000000000000007bffffffffffffffffffffffffffffffffffffffffffffffffffffffff1916827bffffffffffffffffffffffffffffffffffffffffffffffffffffffff1916149050919050565b60008073ffffffffffffffffffffffffffffffffffffffff166002600084815260200190815260200160002060009054906101000a900473ffffffffffffffffffffffffffffffffffffffff1673ffffffffffffffffffffffffffffffffffffffff1614159050919050565b600033905090565b816004600083815260200190815260200160002060006101000a81548173ffffffffffffffffffffffffffffffffffffffff021916908373ffffffffffffffffffffffffffffffffffffffff160217905550808273ffffffffffffffffffffffffffffffffffffffff16610e67836107d4565b73ffffffffffffffffffffffffffffffffffffffff167f8c5be1e5ebec7d5bd14f71427d1e84f3dd0314c0f7b2291e5b200ac8c7c3b92560405160405180910390a45050565b6000610eb882610d80565b610ef7576040517f08c379a0000000000000000000000000000000000000000000000000000000008152600401610eee9061261f565b60405180910390fd5b6000610f02836107d4565b90508073ffffffffffffffffffffffffffffffffffffffff168473ffffffffffffffffffffffffffffffffffffffff161480610f7157508373ffffffffffffffffffffffffffffffffffffffff16610f598461056a565b73ffffffffffffffffffffffffffffffffffffffff16145b80610f825750610f818185610c82565b5b91505092915050565b8273ffffffffffffffffffffffffffffffffffffffff16610fab826107d4565b73ffffffffffffffffffffffffffffffffffffffff1614611001576040517f08c379a0000000000000000000000000000000000000000000000000000000008152600401610ff8906126b1565b60405180910390fd5b600073ffffffffffffffffffffffffffffffffffffffff168273ffffffffffffffffffffffffffffffffffffffff161415611071576040517f08c379a000000000000000000000000000000000000000000000000000000000815260040161106890612743565b60405180910390fd5b61107c838383611858565b611087600082610df4565b6001600360008573ffffffffffffffffffffffffffffffffffffffff1673ffffffffffffffffffffffffffffffffffffffff16815260200190815260200160002060008282546110d79190612792565b925050819055506001600360008473ffffffffffffffffffffffffffffffffffffffff1673ffffffffffffffffffffffffffffffffffffffff168152602001908152602001600020600082825461112e91906127c6565b92505081905550816002600083815260200190815260200160002060006101000a81548173ffffffffffffffffffffffffffffffffffffffff021916908373ffffffffffffffffffffffffffffffffffffffff160217905550808273ffffffffffffffffffffffffffffffffffffffff168473ffffffffffffffffffffffffffffffffffffffff167fddf252ad1be2c89b69c2b068fc378daa952ba7f163c4a11628f55a4df523b3ef60405160405180910390a4505050565b6111ef6107bd565b61122e576040517f08c379a000000000000000000000000000000000000000000000000000000000815260040161122590612868565b60405180910390fd5b6000600660006101000a81548160ff0219169083151502179055507f5db9ee0a495bf2e6ff9c91a7834c1ba4fdd244a5e8aa4e537bd38aeae4b073aa611272610dec565b60405161127f9190611c7e565b60405180910390a1565b600073ffffffffffffffffffffffffffffffffffffffff168273ffffffffffffffffffffffffffffffffffffffff1614156112f9576040517f08c379a00000000000000000000000000000000000000000000000000000000081526004016112f0906128d4565b60405180910390fd5b61130281610d80565b15611342576040517f08c379a000000000000000000000000000000000000000000000000000000000815260040161133990612940565b60405180910390fd5b61134e60008383611858565b6001600360008473ffffffffffffffffffffffffffffffffffffffff1673ffffffffffffffffffffffffffffffffffffffff168152602001908152602001600020600082825461139e91906127c6565b92505081905550816002600083815260200190815260200160002060006101000a81548173ffffffffffffffffffffffffffffffffffffffff021916908373ffffffffffffffffffffffffffffffffffffffff160217905550808273ffffffffffffffffffffffffffffffffffffffff16600073ffffffffffffffffffffffffffffffffffffffff167fddf252ad1be2c89b69c2b068fc378daa952ba7f163c4a11628f55a4df523b3ef60405160405180910390a45050565b6000611462826107d4565b905061147081600084611858565b61147b600083610df4565b6001600360008373ffffffffffffffffffffffffffffffffffffffff1673ffffffffffffffffffffffffffffffffffffffff16815260200190815260200160002060008282546114cb9190612792565b925050819055506002600083815260200190815260200160002060006101000a81549073ffffffffffffffffffffffffffffffffffffffff021916905581600073ffffffffffffffffffffffffffffffffffffffff168273ffffffffffffffffffffffffffffffffffffffff167fddf252ad1be2c89b69c2b068fc378daa952ba7f163c4a11628f55a4df523b3ef60405160405180910390a45050565b6115706107bd565b156115b0576040517f08c379a00000000000000000000000000000000000000000000000000000000081526004016115a7906129ac565b60405180910390fd5b6001600660006101000a81548160ff0219169083151502179055507f62e78cea01bee320cd4e420270b5ea74000d11b0c9f74754ebdbfc544b05a2586115f4610dec565b6040516116019190611c7e565b60405180910390a1565b6116158383611289565b61162260008484846118b0565b611661576040517f08c379a000000000000000000000000000000000000000000000000000000000815260040161165890612a3e565b60405180910390fd5b505050565b61168082826040518060200160405280600081525061160b565b5050565b61168f848484610f8b565b61169b848484846118b0565b6116da576040517f08c379a00000000000000000000000000000000000000000000000000000000081526004016116d190612a3e565b60405180910390fd5b50505050565b606060405180602001604052806000815250905090565b6060600082141561173f576040518060400160405280600181526020017f30000000000000000000000000000000000000000000000000000000000000008152509050611853565b600082905060005b6000821461177157808061175a90612a5e565b915050600a8261176a9190612ad6565b9150611747565b60008167ffffffffffffffff81111561178d5761178c611db9565b5b6040519080825280601f01601f1916602001820160405280156117bf5781602001600182028036833780820191505090505b5090505b6000851461184c576001826117d89190612792565b9150600a856117e79190612b07565b60306117f391906127c6565b60f81b81838151811061180957611808612b38565b5b60200101907effffffffffffffffffffffffffffffffffffffffffffffffffffffffffffff1916908160001a905350600a856118459190612ad6565b94506117c3565b8093505050505b919050565b611863838383611a38565b61186b6107bd565b156118ab576040517f08c379a00000000000000000000000000000000000000000000000000000000081526004016118a290612bd9565b60405180910390fd5b505050565b60006118d18473ffffffffffffffffffffffffffffffffffffffff16611a3d565b15611a2b578373ffffffffffffffffffffffffffffffffffffffff1663150b7a026118fa610dec565b8786866040518563ffffffff1660e01b815260040161191c9493929190612c4e565b6020604051808303816000875af192505050801561195857506040513d601f19601f820116820180604052508101906119559190612caf565b60015b6119db573d8060008114611988576040519150601f19603f3d011682016040523d82523d6000602084013e61198d565b606091505b506000815114156119d3576040517f08c379a00000000000000000000000000000000000000000000000000000000081526004016119ca90612a3e565b60405180910390fd5b805181602001fd5b63150b7a0260e01b7bffffffffffffffffffffffffffffffffffffffffffffffffffffffff1916817bffffffffffffffffffffffffffffffffffffffffffffffffffffffff191614915050611a30565b600190505b949350505050565b505050565b600080823b905060008111915050919050565b6000604051905090565b600080fd5b600080fd5b60007fffffffff0000000000000000000000000000000000000000000000000000000082169050919050565b611a9981611a64565b8114611aa457600080fd5b50565b600081359050611ab681611a90565b92915050565b600060208284031215611ad257611ad1611a5a565b5b6000611ae084828501611aa7565b91505092915050565b60008115159050919050565b611afe81611ae9565b82525050565b6000602082019050611b196000830184611af5565b92915050565b600081519050919050565b600082825260208201905092915050565b60005b83811015611b59578082015181840152602081019050611b3e565b83811115611b68576000848401525b50505050565b6000601f19601f8301169050919050565b6000611b8a82611b1f565b611b948185611b2a565b9350611ba4818560208601611b3b565b611bad81611b6e565b840191505092915050565b60006020820190508181036000830152611bd28184611b7f565b905092915050565b6000819050919050565b611bed81611bda565b8114611bf857600080fd5b50565b600081359050611c0a81611be4565b92915050565b600060208284031215611c2657611c25611a5a565b5b6000611c3484828501611bfb565b91505092915050565b600073ffffffffffffffffffffffffffffffffffffffff82169050919050565b6000611c6882611c3d565b9050919050565b611c7881611c5d565b82525050565b6000602082019050611c936000830184611c6f565b92915050565b611ca281611c5d565b8114611cad57600080fd5b50565b600081359050611cbf81611c99565b92915050565b60008060408385031215611cdc57611cdb611a5a565b5b6000611cea85828601611cb0565b9250506020611cfb85828601611bfb565b9150509250929050565b600080600060608486031215611d1e57611d1d611a5a565b5b6000611d2c86828701611cb0565b9350506020611d3d86828701611cb0565b9250506040611d4e86828701611bfb565b9150509250925092565b600060208284031215611d6e57611d6d611a5a565b5b6000611d7c84828501611cb0565b91505092915050565b611d8e81611bda565b82525050565b6000602082019050611da96000830184611d85565b92915050565b600080fd5b600080fd5b7f4e487b7100000000000000000000000000000000000000000000000000000000600052604160045260246000fd5b611df182611b6e565b810181811067ffffffffffffffff82111715611e1057611e0f611db9565b5b80604052505050565b6000611e23611a50565b9050611e2f8282611de8565b919050565b600067ffffffffffffffff821115611e4f57611e4e611db9565b5b611e5882611b6e565b9050602081019050919050565b82818337600083830152505050565b6000611e87611e8284611e34565b611e19565b905082815260208101848484011115611ea357611ea2611db4565b5b611eae848285611e65565b509392505050565b600082601f830112611ecb57611eca611daf565b5b8135611edb848260208601611e74565b91505092915050565b600080600060608486031215611efd57611efc611a5a565b5b6000611f0b86828701611cb0565b9350506020611f1c86828701611bfb565b925050604084013567ffffffffffffffff811115611f3d57611f3c611a5f565b5b611f4986828701611eb6565b9150509250925092565b611f5c81611ae9565b8114611f6757600080fd5b50565b600081359050611f7981611f53565b92915050565b60008060408385031215611f9657611f95611a5a565b5b6000611fa485828601611cb0565b9250506020611fb585828601611f6a565b9150509250929050565b60008060008060808587031215611fd957611fd8611a5a565b5b6000611fe787828801611cb0565b9450506020611ff887828801611cb0565b935050604061200987828801611bfb565b925050606085013567ffffffffffffffff81111561202a57612029611a5f565b5b61203687828801611eb6565b91505092959194509250565b6000806040838503121561205957612058611a5a565b5b600061206785828601611cb0565b925050602061207885828601611cb0565b9150509250929050565b7f4e487b7100000000000000000000000000000000000000000000000000000000600052602260045260246000fd5b600060028204905060018216806120c957607f821691505b602082108114156120dd576120dc612082565b5b50919050565b7f4552433732313a20617070726f76656420717565727920666f72206e6f6e657860008201527f697374656e7420746f6b656e0000000000000000000000000000000000000000602082015250565b600061213f602c83611b2a565b915061214a826120e3565b604082019050919050565b6000602082019050818103600083015261216e81612132565b9050919050565b7f4552433732313a20617070726f76616c20746f2063757272656e74206f776e6560008201527f7200000000000000000000000000000000000000000000000000000000000000602082015250565b60006121d1602183611b2a565b91506121dc82612175565b604082019050919050565b60006020820190508181036000830152612200816121c4565b9050919050565b7f4552433732313a20617070726f76652063616c6c6572206973206e6f74206f7760008201527f6e6572206e6f7220617070726f76656420666f7220616c6c0000000000000000602082015250565b6000612263603883611b2a565b915061226e82612207565b604082019050919050565b6000602082019050818103600083015261229281612256565b9050919050565b7f4552433732313a207472616e736665722063616c6c6572206973206e6f74206f60008201527f776e6572206e6f7220617070726f766564000000000000000000000000000000602082015250565b60006122f5603183611b2a565b915061230082612299565b604082019050919050565b60006020820190508181036000830152612324816122e8565b9050919050565b7f4552433732313a206f776e657220717565727920666f72206e6f6e657869737460008201527f656e7420746f6b656e0000000000000000000000000000000000000000000000602082015250565b6000612387602983611b2a565b91506123928261232b565b604082019050919050565b600060208201905081810360008301526123b68161237a565b9050919050565b7f4552433732313a2062616c616e636520717565727920666f7220746865207a6560008201527f726f206164647265737300000000000000000000000000000000000000000000602082015250565b6000612419602a83611b2a565b9150612424826123bd565b604082019050919050565b600060208201905081810360008301526124488161240c565b9050919050565b7f4552433732313a20617070726f766520746f2063616c6c657200000000000000600082015250565b6000612485601983611b2a565b91506124908261244f565b602082019050919050565b600060208201905081810360008301526124b481612478565b9050919050565b7f4552433732314d657461646174613a2055524920717565727920666f72206e6f60008201527f6e6578697374656e7420746f6b656e0000000000000000000000000000000000602082015250565b6000612517602f83611b2a565b9150612522826124bb565b604082019050919050565b600060208201905081810360008301526125468161250a565b9050919050565b600081905092915050565b600061256382611b1f565b61256d818561254d565b935061257d818560208601611b3b565b80840191505092915050565b60006125958285612558565b91506125a18284612558565b91508190509392505050565b7f4552433732313a206f70657261746f7220717565727920666f72206e6f6e657860008201527f697374656e7420746f6b656e0000000000000000000000000000000000000000602082015250565b6000612609602c83611b2a565b9150612614826125ad565b604082019050919050565b60006020820190508181036000830152612638816125fc565b9050919050565b7f4552433732313a207472616e73666572206f6620746f6b656e2074686174206960008201527f73206e6f74206f776e0000000000000000000000000000000000000000000000602082015250565b600061269b602983611b2a565b91506126a68261263f565b604082019050919050565b600060208201905081810360008301526126ca8161268e565b9050919050565b7f4552433732313a207472616e7366657220746f20746865207a65726f2061646460008201527f7265737300000000000000000000000000000000000000000000000000000000602082015250565b600061272d602483611b2a565b9150612738826126d1565b604082019050919050565b6000602082019050818103600083015261275c81612720565b9050919050565b7f4e487b7100000000000000000000000000000000000000000000000000000000600052601160045260246000fd5b600061279d82611bda565b91506127a883611bda565b9250828210156127bb576127ba612763565b5b828203905092915050565b60006127d182611bda565b91506127dc83611bda565b9250827fffffffffffffffffffffffffffffffffffffffffffffffffffffffffffffffff0382111561281157612810612763565b5b828201905092915050565b7f5061757361626c653a206e6f7420706175736564000000000000000000000000600082015250565b6000612852601483611b2a565b915061285d8261281c565b602082019050919050565b6000602082019050818103600083015261288181612845565b9050919050565b7f4552433732313a206d696e7420746f20746865207a65726f2061646472657373600082015250565b60006128be602083611b2a565b91506128c982612888565b602082019050919050565b600060208201905081810360008301526128ed816128b1565b9050919050565b7f4552433732313a20746f6b656e20616c7265616479206d696e74656400000000600082015250565b600061292a601c83611b2a565b9150612935826128f4565b602082019050919050565b600060208201905081810360008301526129598161291d565b9050919050565b7f5061757361626c653a2070617573656400000000000000000000000000000000600082015250565b6000612996601083611b2a565b91506129a182612960565b602082019050919050565b600060208201905081810360008301526129c581612989565b9050919050565b7f4552433732313a207472616e7366657220746f206e6f6e20455243373231526560008201527f63656976657220696d706c656d656e7465720000000000000000000000000000602082015250565b6000612a28603283611b2a565b9150612a33826129cc565b604082019050919050565b60006020820190508181036000830152612a5781612a1b565b9050919050565b6000612a6982611bda565b91507fffffffffffffffffffffffffffffffffffffffffffffffffffffffffffffffff821415612a9c57612a9b612763565b5b600182019050919050565b7f4e487b7100000000000000000000000000000000000000000000000000000000600052601260045260246000fd5b6000612ae182611bda565b9150612aec83611bda565b925082612afc57612afb612aa7565b5b828204905092915050565b6000612b1282611bda565b9150612b1d83611bda565b925082612b2d57612b2c612aa7565b5b828206905092915050565b7f4e487b7100000000000000000000000000000000000000000000000000000000600052603260045260246000fd5b7f4552433732315061757361626c653a20746f6b656e207472616e73666572207760008201527f68696c6520706175736564000000000000000000000000000000000000000000602082015250565b6000612bc3602b83611b2a565b9150612bce82612b67565b604082019050919050565b60006020820190508181036000830152612bf281612bb6565b9050919050565b600081519050919050565b600082825260208201905092915050565b6000612c2082612bf9565b612c2a8185612c04565b9350612c3a818560208601611b3b565b612c4381611b6e565b840191505092915050565b6000608082019050612c636000830187611c6f565b612c706020830186611c6f565b612c7d6040830185611d85565b8181036060830152612c8f8184612c15565b905095945050505050565b600081519050612ca981611a90565b92915050565b600060208284031215612cc557612cc4611a5a565b5b6000612cd384828501612c9a565b9150509291505056fea26469706673582212200aebc23e16891d061ad4947294fabf8aeda09fff51731c94737a1289a8b3257064736f6c634300080a0033",
  "immutableReferences": {},
  "source": "// SPDX-License-Identifier: MIT\n\npragma solidity ^0.8.0;\n\nimport \"../token/ERC721/extensions/ERC721Pausable.sol\";\n\n/**\n * @title ERC721PausableMock\n * This mock just provides a public mint, burn and exists functions for testing purposes\n */\ncontract ERC721PausableMock is ERC721Pausable {\n    constructor (string memory name, string memory symbol) ERC721(name, symbol) { }\n\n    function pause() external {\n        _pause();\n    }\n\n    function unpause() external {\n        _unpause();\n    }\n\n    function exists(uint256 tokenId) public view returns (bool) {\n        return _exists(tokenId);\n    }\n\n    function mint(address to, uint256 tokenId) public {\n        _mint(to, tokenId);\n    }\n\n    function safeMint(address to, uint256 tokenId) public {\n        _safeMint(to, tokenId);\n    }\n\n    function safeMint(address to, uint256 tokenId, bytes memory _data) public {\n        _safeMint(to, tokenId, _data);\n    }\n\n    function burn(uint256 tokenId) public {\n        _burn(tokenId);\n    }\n}\n",
  "sourcePath": "D:\\FYP\\FYP\\Dapp\\src\\contracts\\openzeppelin-contracts-4.1.0\\openzeppelin-contracts-4.1.0\\contracts\\mocks\\ERC721PausableMock.sol",
  "compiler": {
    "name": "solc",
    "version": "0.8.10+commit.fc410830.Emscripten.clang"
  },
  "schemaVersion": "3.4.3",
  "updatedAt": "2021-11-25T02:44:55.231Z",
  "devdoc": {
    "kind": "dev",
    "methods": {
      "approve(address,uint256)": {
        "details": "See {IERC721-approve}."
      },
      "balanceOf(address)": {
        "details": "See {IERC721-balanceOf}."
      },
      "getApproved(uint256)": {
        "details": "See {IERC721-getApproved}."
      },
      "isApprovedForAll(address,address)": {
        "details": "See {IERC721-isApprovedForAll}."
      },
      "name()": {
        "details": "See {IERC721Metadata-name}."
      },
      "ownerOf(uint256)": {
        "details": "See {IERC721-ownerOf}."
      },
      "paused()": {
        "details": "Returns true if the contract is paused, and false otherwise."
      },
      "safeTransferFrom(address,address,uint256)": {
        "details": "See {IERC721-safeTransferFrom}."
      },
      "safeTransferFrom(address,address,uint256,bytes)": {
        "details": "See {IERC721-safeTransferFrom}."
      },
      "setApprovalForAll(address,bool)": {
        "details": "See {IERC721-setApprovalForAll}."
      },
      "supportsInterface(bytes4)": {
        "details": "See {IERC165-supportsInterface}."
      },
      "symbol()": {
        "details": "See {IERC721Metadata-symbol}."
      },
      "tokenURI(uint256)": {
        "details": "See {IERC721Metadata-tokenURI}."
      },
      "transferFrom(address,address,uint256)": {
        "details": "See {IERC721-transferFrom}."
      }
    },
    "title": "ERC721PausableMock This mock just provides a public mint, burn and exists functions for testing purposes",
    "version": 1
  },
  "userdoc": {
    "kind": "user",
    "methods": {},
    "version": 1
  }
}