{
  "contractName": "ERC721BurnableMock",
  "abi": [
    {
      "inputs": [
        {
          "internalType": "string",
          "name": "name",
          "type": "string"
        },
        {
          "internalType": "string",
          "name": "symbol",
          "type": "string"
        }
      ],
      "stateMutability": "nonpayable",
      "type": "constructor"
    },
    {
      "anonymous": false,
      "inputs": [
        {
          "indexed": true,
          "internalType": "address",
          "name": "owner",
          "type": "address"
        },
        {
          "indexed": true,
          "internalType": "address",
          "name": "approved",
          "type": "address"
        },
        {
          "indexed": true,
          "internalType": "uint256",
          "name": "tokenId",
          "type": "uint256"
        }
      ],
      "name": "Approval",
      "type": "event"
    },
    {
      "anonymous": false,
      "inputs": [
        {
          "indexed": true,
          "internalType": "address",
          "name": "owner",
          "type": "address"
        },
        {
          "indexed": true,
          "internalType": "address",
          "name": "operator",
          "type": "address"
        },
        {
          "indexed": false,
          "internalType": "bool",
          "name": "approved",
          "type": "bool"
        }
      ],
      "name": "ApprovalForAll",
      "type": "event"
    },
    {
      "anonymous": false,
      "inputs": [
        {
          "indexed": true,
          "internalType": "address",
          "name": "from",
          "type": "address"
        },
        {
          "indexed": true,
          "internalType": "address",
          "name": "to",
          "type": "address"
        },
        {
          "indexed": true,
          "internalType": "uint256",
          "name": "tokenId",
          "type": "uint256"
        }
      ],
      "name": "Transfer",
      "type": "event"
    },
    {
      "inputs": [
        {
          "internalType": "address",
          "name": "to",
          "type": "address"
        },
        {
          "internalType": "uint256",
          "name": "tokenId",
          "type": "uint256"
        }
      ],
      "name": "approve",
      "outputs": [],
      "stateMutability": "nonpayable",
      "type": "function"
    },
    {
      "inputs": [
        {
          "internalType": "address",
          "name": "owner",
          "type": "address"
        }
      ],
      "name": "balanceOf",
      "outputs": [
        {
          "internalType": "uint256",
          "name": "",
          "type": "uint256"
        }
      ],
      "stateMutability": "view",
      "type": "function"
    },
    {
      "inputs": [
        {
          "internalType": "uint256",
          "name": "tokenId",
          "type": "uint256"
        }
      ],
      "name": "burn",
      "outputs": [],
      "stateMutability": "nonpayable",
      "type": "function"
    },
    {
      "inputs": [
        {
          "internalType": "uint256",
          "name": "tokenId",
          "type": "uint256"
        }
      ],
      "name": "getApproved",
      "outputs": [
        {
          "internalType": "address",
          "name": "",
          "type": "address"
        }
      ],
      "stateMutability": "view",
      "type": "function"
    },
    {
      "inputs": [
        {
          "internalType": "address",
          "name": "owner",
          "type": "address"
        },
        {
          "internalType": "address",
          "name": "operator",
          "type": "address"
        }
      ],
      "name": "isApprovedForAll",
      "outputs": [
        {
          "internalType": "bool",
          "name": "",
          "type": "bool"
        }
      ],
      "stateMutability": "view",
      "type": "function"
    },
    {
      "inputs": [],
      "name": "name",
      "outputs": [
        {
          "internalType": "string",
          "name": "",
          "type": "string"
        }
      ],
      "stateMutability": "view",
      "type": "function"
    },
    {
      "inputs": [
        {
          "internalType": "uint256",
          "name": "tokenId",
          "type": "uint256"
        }
      ],
      "name": "ownerOf",
      "outputs": [
        {
          "internalType": "address",
          "name": "",
          "type": "address"
        }
      ],
      "stateMutability": "view",
      "type": "function"
    },
    {
      "inputs": [
        {
          "internalType": "address",
          "name": "from",
          "type": "address"
        },
        {
          "internalType": "address",
          "name": "to",
          "type": "address"
        },
        {
          "internalType": "uint256",
          "name": "tokenId",
          "type": "uint256"
        }
      ],
      "name": "safeTransferFrom",
      "outputs": [],
      "stateMutability": "nonpayable",
      "type": "function"
    },
    {
      "inputs": [
        {
          "internalType": "address",
          "name": "from",
          "type": "address"
        },
        {
          "internalType": "address",
          "name": "to",
          "type": "address"
        },
        {
          "internalType": "uint256",
          "name": "tokenId",
          "type": "uint256"
        },
        {
          "internalType": "bytes",
          "name": "_data",
          "type": "bytes"
        }
      ],
      "name": "safeTransferFrom",
      "outputs": [],
      "stateMutability": "nonpayable",
      "type": "function"
    },
    {
      "inputs": [
        {
          "internalType": "address",
          "name": "operator",
          "type": "address"
        },
        {
          "internalType": "bool",
          "name": "approved",
          "type": "bool"
        }
      ],
      "name": "setApprovalForAll",
      "outputs": [],
      "stateMutability": "nonpayable",
      "type": "function"
    },
    {
      "inputs": [
        {
          "internalType": "bytes4",
          "name": "interfaceId",
          "type": "bytes4"
        }
      ],
      "name": "supportsInterface",
      "outputs": [
        {
          "internalType": "bool",
          "name": "",
          "type": "bool"
        }
      ],
      "stateMutability": "view",
      "type": "function"
    },
    {
      "inputs": [],
      "name": "symbol",
      "outputs": [
        {
          "internalType": "string",
          "name": "",
          "type": "string"
        }
      ],
      "stateMutability": "view",
      "type": "function"
    },
    {
      "inputs": [
        {
          "internalType": "uint256",
          "name": "tokenId",
          "type": "uint256"
        }
      ],
      "name": "tokenURI",
      "outputs": [
        {
          "internalType": "string",
          "name": "",
          "type": "string"
        }
      ],
      "stateMutability": "view",
      "type": "function"
    },
    {
      "inputs": [
        {
          "internalType": "address",
          "name": "from",
          "type": "address"
        },
        {
          "internalType": "address",
          "name": "to",
          "type": "address"
        },
        {
          "internalType": "uint256",
          "name": "tokenId",
          "type": "uint256"
        }
      ],
      "name": "transferFrom",
      "outputs": [],
      "stateMutability": "nonpayable",
      "type": "function"
    },
    {
      "inputs": [
        {
          "internalType": "uint256",
          "name": "tokenId",
          "type": "uint256"
        }
      ],
      "name": "exists",
      "outputs": [
        {
          "internalType": "bool",
          "name": "",
          "type": "bool"
        }
      ],
      "stateMutability": "view",
      "type": "function"
    },
    {
      "inputs": [
        {
          "internalType": "address",
          "name": "to",
          "type": "address"
        },
        {
          "internalType": "uint256",
          "name": "tokenId",
          "type": "uint256"
        }
      ],
      "name": "mint",
      "outputs": [],
      "stateMutability": "nonpayable",
      "type": "function"
    },
    {
      "inputs": [
        {
          "internalType": "address",
          "name": "to",
          "type": "address"
        },
        {
          "internalType": "uint256",
          "name": "tokenId",
          "type": "uint256"
        },
        {
          "internalType": "bytes",
          "name": "_data",
          "type": "bytes"
        }
      ],
      "name": "safeMint",
      "outputs": [],
      "stateMutability": "nonpayable",
      "type": "function"
    },
    {
      "inputs": [
        {
          "internalType": "address",
          "name": "to",
          "type": "address"
        },
        {
          "internalType": "uint256",
          "name": "tokenId",
          "type": "uint256"
        }
      ],
      "name": "safeMint",
      "outputs": [],
      "stateMutability": "nonpayable",
      "type": "function"
    }
  ],
  "bytecode": "0x60806040523480156200001157600080fd5b5060405162002e2b38038062002e2b8339818101604052810190620000379190620002c2565b818181600090805190602001906200005192919062000075565b5080600190805190602001906200006a92919062000075565b5050505050620003ac565b828054620000839062000376565b90600052602060002090601f016020900481019282620000a75760008555620000f3565b82601f10620000c257805160ff1916838001178555620000f3565b82800160010185558215620000f3579182015b82811115620000f2578251825591602001919060010190620000d5565b5b50905062000102919062000106565b5090565b5b808211156200012157600081600090555060010162000107565b5090565b6000604051905090565b600080fd5b600080fd5b600080fd5b600080fd5b6000601f19601f8301169050919050565b7f4e487b7100000000000000000000000000000000000000000000000000000000600052604160045260246000fd5b6200018e8262000143565b810181811067ffffffffffffffff82111715620001b057620001af62000154565b5b80604052505050565b6000620001c562000125565b9050620001d3828262000183565b919050565b600067ffffffffffffffff821115620001f657620001f562000154565b5b620002018262000143565b9050602081019050919050565b60005b838110156200022e57808201518184015260208101905062000211565b838111156200023e576000848401525b50505050565b60006200025b6200025584620001d8565b620001b9565b9050828152602081018484840111156200027a57620002796200013e565b5b620002878482856200020e565b509392505050565b600082601f830112620002a757620002a662000139565b5b8151620002b984826020860162000244565b91505092915050565b60008060408385031215620002dc57620002db6200012f565b5b600083015167ffffffffffffffff811115620002fd57620002fc62000134565b5b6200030b858286016200028f565b925050602083015167ffffffffffffffff8111156200032f576200032e62000134565b5b6200033d858286016200028f565b9150509250929050565b7f4e487b7100000000000000000000000000000000000000000000000000000000600052602260045260246000fd5b600060028204905060018216806200038f57607f821691505b60208210811415620003a657620003a562000347565b5b50919050565b612a6f80620003bc6000396000f3fe608060405234801561001057600080fd5b50600436106101165760003560e01c80636352211e116100a2578063a144819411610071578063a1448194146102ef578063a22cb4651461030b578063b88d4fde14610327578063c87b56dd14610343578063e985e9c51461037357610116565b80636352211e1461025557806370a08231146102855780638832e6e3146102b557806395d89b41146102d157610116565b806323b872dd116100e957806323b872dd146101b557806340c10f19146101d157806342842e0e146101ed57806342966c68146102095780634f558e791461022557610116565b806301ffc9a71461011b57806306fdde031461014b578063081812fc14610169578063095ea7b314610199575b600080fd5b610135600480360381019061013091906118f1565b6103a3565b6040516101429190611939565b60405180910390f35b610153610485565b60405161016091906119ed565b60405180910390f35b610183600480360381019061017e9190611a45565b610517565b6040516101909190611ab3565b60405180910390f35b6101b360048036038101906101ae9190611afa565b61059c565b005b6101cf60048036038101906101ca9190611b3a565b6106b4565b005b6101eb60048036038101906101e69190611afa565b610714565b005b61020760048036038101906102029190611b3a565b610722565b005b610223600480360381019061021e9190611a45565b610742565b005b61023f600480360381019061023a9190611a45565b61079e565b60405161024c9190611939565b60405180910390f35b61026f600480360381019061026a9190611a45565b6107b0565b60405161027c9190611ab3565b60405180910390f35b61029f600480360381019061029a9190611b8d565b610862565b6040516102ac9190611bc9565b60405180910390f35b6102cf60048036038101906102ca9190611d19565b61091a565b005b6102d961092a565b6040516102e691906119ed565b60405180910390f35b61030960048036038101906103049190611afa565b6109bc565b005b61032560048036038101906103209190611db4565b6109ca565b005b610341600480360381019061033c9190611df4565b610b4b565b005b61035d60048036038101906103589190611a45565b610bad565b60405161036a91906119ed565b60405180910390f35b61038d60048036038101906103889190611e77565b610c54565b60405161039a9190611939565b60405180910390f35b60007f80ac58cd000000000000000000000000000000000000000000000000000000007bffffffffffffffffffffffffffffffffffffffffffffffffffffffff1916827bffffffffffffffffffffffffffffffffffffffffffffffffffffffff1916148061046e57507f5b5e139f000000000000000000000000000000000000000000000000000000007bffffffffffffffffffffffffffffffffffffffffffffffffffffffff1916827bffffffffffffffffffffffffffffffffffffffffffffffffffffffff1916145b8061047e575061047d82610ce8565b5b9050919050565b60606000805461049490611ee6565b80601f01602080910402602001604051908101604052809291908181526020018280546104c090611ee6565b801561050d5780601f106104e25761010080835404028352916020019161050d565b820191906000526020600020905b8154815290600101906020018083116104f057829003601f168201915b5050505050905090565b600061052282610d52565b610561576040517f08c379a000000000000000000000000000000000000000000000000000000000815260040161055890611f8a565b60405180910390fd5b6004600083815260200190815260200160002060009054906101000a900473ffffffffffffffffffffffffffffffffffffffff169050919050565b60006105a7826107b0565b90508073ffffffffffffffffffffffffffffffffffffffff168373ffffffffffffffffffffffffffffffffffffffff161415610618576040517f08c379a000000000000000000000000000000000000000000000000000000000815260040161060f9061201c565b60405180910390fd5b8073ffffffffffffffffffffffffffffffffffffffff16610637610dbe565b73ffffffffffffffffffffffffffffffffffffffff161480610666575061066581610660610dbe565b610c54565b5b6106a5576040517f08c379a000000000000000000000000000000000000000000000000000000000815260040161069c906120ae565b60405180910390fd5b6106af8383610dc6565b505050565b6106c56106bf610dbe565b82610e7f565b610704576040517f08c379a00000000000000000000000000000000000000000000000000000000081526004016106fb90612140565b60405180910390fd5b61070f838383610f5d565b505050565b61071e82826111b9565b5050565b61073d83838360405180602001604052806000815250610b4b565b505050565b61075361074d610dbe565b82610e7f565b610792576040517f08c379a0000000000000000000000000000000000000000000000000000000008152600401610789906121d2565b60405180910390fd5b61079b81611387565b50565b60006107a982610d52565b9050919050565b6000806002600084815260200190815260200160002060009054906101000a900473ffffffffffffffffffffffffffffffffffffffff169050600073ffffffffffffffffffffffffffffffffffffffff168173ffffffffffffffffffffffffffffffffffffffff161415610859576040517f08c379a000000000000000000000000000000000000000000000000000000000815260040161085090612264565b60405180910390fd5b80915050919050565b60008073ffffffffffffffffffffffffffffffffffffffff168273ffffffffffffffffffffffffffffffffffffffff1614156108d3576040517f08c379a00000000000000000000000000000000000000000000000000000000081526004016108ca906122f6565b60405180910390fd5b600360008373ffffffffffffffffffffffffffffffffffffffff1673ffffffffffffffffffffffffffffffffffffffff168152602001908152602001600020549050919050565b610925838383611498565b505050565b60606001805461093990611ee6565b80601f016020809104026020016040519081016040528092919081815260200182805461096590611ee6565b80156109b25780601f10610987576101008083540402835291602001916109b2565b820191906000526020600020905b81548152906001019060200180831161099557829003601f168201915b5050505050905090565b6109c682826114f3565b5050565b6109d2610dbe565b73ffffffffffffffffffffffffffffffffffffffff168273ffffffffffffffffffffffffffffffffffffffff161415610a40576040517f08c379a0000000000000000000000000000000000000000000000000000000008152600401610a3790612362565b60405180910390fd5b8060056000610a4d610dbe565b73ffffffffffffffffffffffffffffffffffffffff1673ffffffffffffffffffffffffffffffffffffffff16815260200190815260200160002060008473ffffffffffffffffffffffffffffffffffffffff1673ffffffffffffffffffffffffffffffffffffffff16815260200190815260200160002060006101000a81548160ff0219169083151502179055508173ffffffffffffffffffffffffffffffffffffffff16610afa610dbe565b73ffffffffffffffffffffffffffffffffffffffff167f17307eab39ab6107e8899845ad3d59bd9653f200f220920489ca2b5937696c3183604051610b3f9190611939565b60405180910390a35050565b610b5c610b56610dbe565b83610e7f565b610b9b576040517f08c379a0000000000000000000000000000000000000000000000000000000008152600401610b9290612140565b60405180910390fd5b610ba784848484611511565b50505050565b6060610bb882610d52565b610bf7576040517f08c379a0000000000000000000000000000000000000000000000000000000008152600401610bee906123f4565b60405180910390fd5b6000610c0161156d565b90506000815111610c215760405180602001604052806000815250610c4c565b80610c2b84611584565b604051602001610c3c929190612450565b6040516020818303038152906040525b915050919050565b6000600560008473ffffffffffffffffffffffffffffffffffffffff1673ffffffffffffffffffffffffffffffffffffffff16815260200190815260200160002060008373ffffffffffffffffffffffffffffffffffffffff1673ffffffffffffffffffffffffffffffffffffffff16815260200190815260200160002060009054906101000a900460ff16905092915050565b60007f01ffc9a7000000000000000000000000000000000000000000000000000000007bffffffffffffffffffffffffffffffffffffffffffffffffffffffff1916827bffffffffffffffffffffffffffffffffffffffffffffffffffffffff1916149050919050565b60008073ffffffffffffffffffffffffffffffffffffffff166002600084815260200190815260200160002060009054906101000a900473ffffffffffffffffffffffffffffffffffffffff1673ffffffffffffffffffffffffffffffffffffffff1614159050919050565b600033905090565b816004600083815260200190815260200160002060006101000a81548173ffffffffffffffffffffffffffffffffffffffff021916908373ffffffffffffffffffffffffffffffffffffffff160217905550808273ffffffffffffffffffffffffffffffffffffffff16610e39836107b0565b73ffffffffffffffffffffffffffffffffffffffff167f8c5be1e5ebec7d5bd14f71427d1e84f3dd0314c0f7b2291e5b200ac8c7c3b92560405160405180910390a45050565b6000610e8a82610d52565b610ec9576040517f08c379a0000000000000000000000000000000000000000000000000000000008152600401610ec0906124e6565b60405180910390fd5b6000610ed4836107b0565b90508073ffffffffffffffffffffffffffffffffffffffff168473ffffffffffffffffffffffffffffffffffffffff161480610f4357508373ffffffffffffffffffffffffffffffffffffffff16610f2b84610517565b73ffffffffffffffffffffffffffffffffffffffff16145b80610f545750610f538185610c54565b5b91505092915050565b8273ffffffffffffffffffffffffffffffffffffffff16610f7d826107b0565b73ffffffffffffffffffffffffffffffffffffffff1614610fd3576040517f08c379a0000000000000000000000000000000000000000000000000000000008152600401610fca90612578565b60405180910390fd5b600073ffffffffffffffffffffffffffffffffffffffff168273ffffffffffffffffffffffffffffffffffffffff161415611043576040517f08c379a000000000000000000000000000000000000000000000000000000000815260040161103a9061260a565b60405180910390fd5b61104e8383836116e5565b611059600082610dc6565b6001600360008573ffffffffffffffffffffffffffffffffffffffff1673ffffffffffffffffffffffffffffffffffffffff16815260200190815260200160002060008282546110a99190612659565b925050819055506001600360008473ffffffffffffffffffffffffffffffffffffffff1673ffffffffffffffffffffffffffffffffffffffff1681526020019081526020016000206000828254611100919061268d565b92505081905550816002600083815260200190815260200160002060006101000a81548173ffffffffffffffffffffffffffffffffffffffff021916908373ffffffffffffffffffffffffffffffffffffffff160217905550808273ffffffffffffffffffffffffffffffffffffffff168473ffffffffffffffffffffffffffffffffffffffff167fddf252ad1be2c89b69c2b068fc378daa952ba7f163c4a11628f55a4df523b3ef60405160405180910390a4505050565b600073ffffffffffffffffffffffffffffffffffffffff168273ffffffffffffffffffffffffffffffffffffffff161415611229576040517f08c379a00000000000000000000000000000000000000000000000000000000081526004016112209061272f565b60405180910390fd5b61123281610d52565b15611272576040517f08c379a00000000000000000000000000000000000000000000000000000000081526004016112699061279b565b60405180910390fd5b61127e600083836116e5565b6001600360008473ffffffffffffffffffffffffffffffffffffffff1673ffffffffffffffffffffffffffffffffffffffff16815260200190815260200160002060008282546112ce919061268d565b92505081905550816002600083815260200190815260200160002060006101000a81548173ffffffffffffffffffffffffffffffffffffffff021916908373ffffffffffffffffffffffffffffffffffffffff160217905550808273ffffffffffffffffffffffffffffffffffffffff16600073ffffffffffffffffffffffffffffffffffffffff167fddf252ad1be2c89b69c2b068fc378daa952ba7f163c4a11628f55a4df523b3ef60405160405180910390a45050565b6000611392826107b0565b90506113a0816000846116e5565b6113ab600083610dc6565b6001600360008373ffffffffffffffffffffffffffffffffffffffff1673ffffffffffffffffffffffffffffffffffffffff16815260200190815260200160002060008282546113fb9190612659565b925050819055506002600083815260200190815260200160002060006101000a81549073ffffffffffffffffffffffffffffffffffffffff021916905581600073ffffffffffffffffffffffffffffffffffffffff168273ffffffffffffffffffffffffffffffffffffffff167fddf252ad1be2c89b69c2b068fc378daa952ba7f163c4a11628f55a4df523b3ef60405160405180910390a45050565b6114a283836111b9565b6114af60008484846116ea565b6114ee576040517f08c379a00000000000000000000000000000000000000000000000000000000081526004016114e59061282d565b60405180910390fd5b505050565b61150d828260405180602001604052806000815250611498565b5050565b61151c848484610f5d565b611528848484846116ea565b611567576040517f08c379a000000000000000000000000000000000000000000000000000000000815260040161155e9061282d565b60405180910390fd5b50505050565b606060405180602001604052806000815250905090565b606060008214156115cc576040518060400160405280600181526020017f300000000000000000000000000000000000000000000000000000000000000081525090506116e0565b600082905060005b600082146115fe5780806115e79061284d565b915050600a826115f791906128c5565b91506115d4565b60008167ffffffffffffffff81111561161a57611619611bee565b5b6040519080825280601f01601f19166020018201604052801561164c5781602001600182028036833780820191505090505b5090505b600085146116d9576001826116659190612659565b9150600a8561167491906128f6565b6030611680919061268d565b60f81b81838151811061169657611695612927565b5b60200101907effffffffffffffffffffffffffffffffffffffffffffffffffffffffffffff1916908160001a905350600a856116d291906128c5565b9450611650565b8093505050505b919050565b505050565b600061170b8473ffffffffffffffffffffffffffffffffffffffff16611872565b15611865578373ffffffffffffffffffffffffffffffffffffffff1663150b7a02611734610dbe565b8786866040518563ffffffff1660e01b815260040161175694939291906129ab565b6020604051808303816000875af192505050801561179257506040513d601f19601f8201168201806040525081019061178f9190612a0c565b60015b611815573d80600081146117c2576040519150601f19603f3d011682016040523d82523d6000602084013e6117c7565b606091505b5060008151141561180d576040517f08c379a00000000000000000000000000000000000000000000000000000000081526004016118049061282d565b60405180910390fd5b805181602001fd5b63150b7a0260e01b7bffffffffffffffffffffffffffffffffffffffffffffffffffffffff1916817bffffffffffffffffffffffffffffffffffffffffffffffffffffffff19161491505061186a565b600190505b949350505050565b600080823b905060008111915050919050565b6000604051905090565b600080fd5b600080fd5b60007fffffffff0000000000000000000000000000000000000000000000000000000082169050919050565b6118ce81611899565b81146118d957600080fd5b50565b6000813590506118eb816118c5565b92915050565b6000602082840312156119075761190661188f565b5b6000611915848285016118dc565b91505092915050565b60008115159050919050565b6119338161191e565b82525050565b600060208201905061194e600083018461192a565b92915050565b600081519050919050565b600082825260208201905092915050565b60005b8381101561198e578082015181840152602081019050611973565b8381111561199d576000848401525b50505050565b6000601f19601f8301169050919050565b60006119bf82611954565b6119c9818561195f565b93506119d9818560208601611970565b6119e2816119a3565b840191505092915050565b60006020820190508181036000830152611a0781846119b4565b905092915050565b6000819050919050565b611a2281611a0f565b8114611a2d57600080fd5b50565b600081359050611a3f81611a19565b92915050565b600060208284031215611a5b57611a5a61188f565b5b6000611a6984828501611a30565b91505092915050565b600073ffffffffffffffffffffffffffffffffffffffff82169050919050565b6000611a9d82611a72565b9050919050565b611aad81611a92565b82525050565b6000602082019050611ac86000830184611aa4565b92915050565b611ad781611a92565b8114611ae257600080fd5b50565b600081359050611af481611ace565b92915050565b60008060408385031215611b1157611b1061188f565b5b6000611b1f85828601611ae5565b9250506020611b3085828601611a30565b9150509250929050565b600080600060608486031215611b5357611b5261188f565b5b6000611b6186828701611ae5565b9350506020611b7286828701611ae5565b9250506040611b8386828701611a30565b9150509250925092565b600060208284031215611ba357611ba261188f565b5b6000611bb184828501611ae5565b91505092915050565b611bc381611a0f565b82525050565b6000602082019050611bde6000830184611bba565b92915050565b600080fd5b600080fd5b7f4e487b7100000000000000000000000000000000000000000000000000000000600052604160045260246000fd5b611c26826119a3565b810181811067ffffffffffffffff82111715611c4557611c44611bee565b5b80604052505050565b6000611c58611885565b9050611c648282611c1d565b919050565b600067ffffffffffffffff821115611c8457611c83611bee565b5b611c8d826119a3565b9050602081019050919050565b82818337600083830152505050565b6000611cbc611cb784611c69565b611c4e565b905082815260208101848484011115611cd857611cd7611be9565b5b611ce3848285611c9a565b509392505050565b600082601f830112611d0057611cff611be4565b5b8135611d10848260208601611ca9565b91505092915050565b600080600060608486031215611d3257611d3161188f565b5b6000611d4086828701611ae5565b9350506020611d5186828701611a30565b925050604084013567ffffffffffffffff811115611d7257611d71611894565b5b611d7e86828701611ceb565b9150509250925092565b611d918161191e565b8114611d9c57600080fd5b50565b600081359050611dae81611d88565b92915050565b60008060408385031215611dcb57611dca61188f565b5b6000611dd985828601611ae5565b9250506020611dea85828601611d9f565b9150509250929050565b60008060008060808587031215611e0e57611e0d61188f565b5b6000611e1c87828801611ae5565b9450506020611e2d87828801611ae5565b9350506040611e3e87828801611a30565b925050606085013567ffffffffffffffff811115611e5f57611e5e611894565b5b611e6b87828801611ceb565b91505092959194509250565b60008060408385031215611e8e57611e8d61188f565b5b6000611e9c85828601611ae5565b9250506020611ead85828601611ae5565b9150509250929050565b7f4e487b7100000000000000000000000000000000000000000000000000000000600052602260045260246000fd5b60006002820490506001821680611efe57607f821691505b60208210811415611f1257611f11611eb7565b5b50919050565b7f4552433732313a20617070726f76656420717565727920666f72206e6f6e657860008201527f697374656e7420746f6b656e0000000000000000000000000000000000000000602082015250565b6000611f74602c8361195f565b9150611f7f82611f18565b604082019050919050565b60006020820190508181036000830152611fa381611f67565b9050919050565b7f4552433732313a20617070726f76616c20746f2063757272656e74206f776e6560008201527f7200000000000000000000000000000000000000000000000000000000000000602082015250565b600061200660218361195f565b915061201182611faa565b604082019050919050565b6000602082019050818103600083015261203581611ff9565b9050919050565b7f4552433732313a20617070726f76652063616c6c6572206973206e6f74206f7760008201527f6e6572206e6f7220617070726f76656420666f7220616c6c0000000000000000602082015250565b600061209860388361195f565b91506120a38261203c565b604082019050919050565b600060208201905081810360008301526120c78161208b565b9050919050565b7f4552433732313a207472616e736665722063616c6c6572206973206e6f74206f60008201527f776e6572206e6f7220617070726f766564000000000000000000000000000000602082015250565b600061212a60318361195f565b9150612135826120ce565b604082019050919050565b600060208201905081810360008301526121598161211d565b9050919050565b7f4552433732314275726e61626c653a2063616c6c6572206973206e6f74206f7760008201527f6e6572206e6f7220617070726f76656400000000000000000000000000000000602082015250565b60006121bc60308361195f565b91506121c782612160565b604082019050919050565b600060208201905081810360008301526121eb816121af565b9050919050565b7f4552433732313a206f776e657220717565727920666f72206e6f6e657869737460008201527f656e7420746f6b656e0000000000000000000000000000000000000000000000602082015250565b600061224e60298361195f565b9150612259826121f2565b604082019050919050565b6000602082019050818103600083015261227d81612241565b9050919050565b7f4552433732313a2062616c616e636520717565727920666f7220746865207a6560008201527f726f206164647265737300000000000000000000000000000000000000000000602082015250565b60006122e0602a8361195f565b91506122eb82612284565b604082019050919050565b6000602082019050818103600083015261230f816122d3565b9050919050565b7f4552433732313a20617070726f766520746f2063616c6c657200000000000000600082015250565b600061234c60198361195f565b915061235782612316565b602082019050919050565b6000602082019050818103600083015261237b8161233f565b9050919050565b7f4552433732314d657461646174613a2055524920717565727920666f72206e6f60008201527f6e6578697374656e7420746f6b656e0000000000000000000000000000000000602082015250565b60006123de602f8361195f565b91506123e982612382565b604082019050919050565b6000602082019050818103600083015261240d816123d1565b9050919050565b600081905092915050565b600061242a82611954565b6124348185612414565b9350612444818560208601611970565b80840191505092915050565b600061245c828561241f565b9150612468828461241f565b91508190509392505050565b7f4552433732313a206f70657261746f7220717565727920666f72206e6f6e657860008201527f697374656e7420746f6b656e0000000000000000000000000000000000000000602082015250565b60006124d0602c8361195f565b91506124db82612474565b604082019050919050565b600060208201905081810360008301526124ff816124c3565b9050919050565b7f4552433732313a207472616e73666572206f6620746f6b656e2074686174206960008201527f73206e6f74206f776e0000000000000000000000000000000000000000000000602082015250565b600061256260298361195f565b915061256d82612506565b604082019050919050565b6000602082019050818103600083015261259181612555565b9050919050565b7f4552433732313a207472616e7366657220746f20746865207a65726f2061646460008201527f7265737300000000000000000000000000000000000000000000000000000000602082015250565b60006125f460248361195f565b91506125ff82612598565b604082019050919050565b60006020820190508181036000830152612623816125e7565b9050919050565b7f4e487b7100000000000000000000000000000000000000000000000000000000600052601160045260246000fd5b600061266482611a0f565b915061266f83611a0f565b9250828210156126825761268161262a565b5b828203905092915050565b600061269882611a0f565b91506126a383611a0f565b9250827fffffffffffffffffffffffffffffffffffffffffffffffffffffffffffffffff038211156126d8576126d761262a565b5b828201905092915050565b7f4552433732313a206d696e7420746f20746865207a65726f2061646472657373600082015250565b600061271960208361195f565b9150612724826126e3565b602082019050919050565b600060208201905081810360008301526127488161270c565b9050919050565b7f4552433732313a20746f6b656e20616c7265616479206d696e74656400000000600082015250565b6000612785601c8361195f565b91506127908261274f565b602082019050919050565b600060208201905081810360008301526127b481612778565b9050919050565b7f4552433732313a207472616e7366657220746f206e6f6e20455243373231526560008201527f63656976657220696d706c656d656e7465720000000000000000000000000000602082015250565b600061281760328361195f565b9150612822826127bb565b604082019050919050565b600060208201905081810360008301526128468161280a565b9050919050565b600061285882611a0f565b91507fffffffffffffffffffffffffffffffffffffffffffffffffffffffffffffffff82141561288b5761288a61262a565b5b600182019050919050565b7f4e487b7100000000000000000000000000000000000000000000000000000000600052601260045260246000fd5b60006128d082611a0f565b91506128db83611a0f565b9250826128eb576128ea612896565b5b828204905092915050565b600061290182611a0f565b915061290c83611a0f565b92508261291c5761291b612896565b5b828206905092915050565b7f4e487b7100000000000000000000000000000000000000000000000000000000600052603260045260246000fd5b600081519050919050565b600082825260208201905092915050565b600061297d82612956565b6129878185612961565b9350612997818560208601611970565b6129a0816119a3565b840191505092915050565b60006080820190506129c06000830187611aa4565b6129cd6020830186611aa4565b6129da6040830185611bba565b81810360608301526129ec8184612972565b905095945050505050565b600081519050612a06816118c5565b92915050565b600060208284031215612a2257612a2161188f565b5b6000612a30848285016129f7565b9150509291505056fea264697066735822122003bd7703fa5c76dc0133aea86e16e738fd1521f54edcaef0c9ec2965f532d3fb64736f6c634300080a0033",
  "immutableReferences": {},
  "source": "// SPDX-License-Identifier: MIT\n\npragma solidity ^0.8.0;\n\nimport \"../token/ERC721/extensions/ERC721Burnable.sol\";\n\ncontract ERC721BurnableMock is ERC721Burnable {\n    constructor(string memory name, string memory symbol) ERC721(name, symbol) { }\n\n    function exists(uint256 tokenId) public view returns (bool) {\n        return _exists(tokenId);\n    }\n\n    function mint(address to, uint256 tokenId) public {\n        _mint(to, tokenId);\n    }\n\n    function safeMint(address to, uint256 tokenId) public {\n        _safeMint(to, tokenId);\n    }\n\n    function safeMint(address to, uint256 tokenId, bytes memory _data) public {\n        _safeMint(to, tokenId, _data);\n    }\n}\n",
  "sourcePath": "D:\\FYP\\FYP\\Dapp\\src\\contracts\\openzeppelin-contracts-4.1.0\\openzeppelin-contracts-4.1.0\\contracts\\mocks\\ERC721BurnableMock.sol",
  "compiler": {
    "name": "solc",
    "version": "0.8.10+commit.fc410830.Emscripten.clang"
  },
  "schemaVersion": "3.4.3",
  "updatedAt": "2021-11-25T02:44:55.189Z",
  "devdoc": {
    "kind": "dev",
    "methods": {
      "approve(address,uint256)": {
        "details": "See {IERC721-approve}."
      },
      "balanceOf(address)": {
        "details": "See {IERC721-balanceOf}."
      },
      "burn(uint256)": {
        "details": "Burns `tokenId`. See {ERC721-_burn}. Requirements: - The caller must own `tokenId` or be an approved operator."
      },
      "getApproved(uint256)": {
        "details": "See {IERC721-getApproved}."
      },
      "isApprovedForAll(address,address)": {
        "details": "See {IERC721-isApprovedForAll}."
      },
      "name()": {
        "details": "See {IERC721Metadata-name}."
      },
      "ownerOf(uint256)": {
        "details": "See {IERC721-ownerOf}."
      },
      "safeTransferFrom(address,address,uint256)": {
        "details": "See {IERC721-safeTransferFrom}."
      },
      "safeTransferFrom(address,address,uint256,bytes)": {
        "details": "See {IERC721-safeTransferFrom}."
      },
      "setApprovalForAll(address,bool)": {
        "details": "See {IERC721-setApprovalForAll}."
      },
      "supportsInterface(bytes4)": {
        "details": "See {IERC165-supportsInterface}."
      },
      "symbol()": {
        "details": "See {IERC721Metadata-symbol}."
      },
      "tokenURI(uint256)": {
        "details": "See {IERC721Metadata-tokenURI}."
      },
      "transferFrom(address,address,uint256)": {
        "details": "See {IERC721-transferFrom}."
      }
    },
    "version": 1
  },
  "userdoc": {
    "kind": "user",
    "methods": {},
    "version": 1
  }
}