{
  "contractName": "ERC721URIStorageMock",
  "abi": [
    {
      "inputs": [
        {
          "internalType": "string",
          "name": "name",
          "type": "string"
        },
        {
          "internalType": "string",
          "name": "symbol",
          "type": "string"
        }
      ],
      "stateMutability": "nonpayable",
      "type": "constructor"
    },
    {
      "anonymous": false,
      "inputs": [
        {
          "indexed": true,
          "internalType": "address",
          "name": "owner",
          "type": "address"
        },
        {
          "indexed": true,
          "internalType": "address",
          "name": "approved",
          "type": "address"
        },
        {
          "indexed": true,
          "internalType": "uint256",
          "name": "tokenId",
          "type": "uint256"
        }
      ],
      "name": "Approval",
      "type": "event"
    },
    {
      "anonymous": false,
      "inputs": [
        {
          "indexed": true,
          "internalType": "address",
          "name": "owner",
          "type": "address"
        },
        {
          "indexed": true,
          "internalType": "address",
          "name": "operator",
          "type": "address"
        },
        {
          "indexed": false,
          "internalType": "bool",
          "name": "approved",
          "type": "bool"
        }
      ],
      "name": "ApprovalForAll",
      "type": "event"
    },
    {
      "anonymous": false,
      "inputs": [
        {
          "indexed": true,
          "internalType": "address",
          "name": "from",
          "type": "address"
        },
        {
          "indexed": true,
          "internalType": "address",
          "name": "to",
          "type": "address"
        },
        {
          "indexed": true,
          "internalType": "uint256",
          "name": "tokenId",
          "type": "uint256"
        }
      ],
      "name": "Transfer",
      "type": "event"
    },
    {
      "inputs": [
        {
          "internalType": "address",
          "name": "to",
          "type": "address"
        },
        {
          "internalType": "uint256",
          "name": "tokenId",
          "type": "uint256"
        }
      ],
      "name": "approve",
      "outputs": [],
      "stateMutability": "nonpayable",
      "type": "function"
    },
    {
      "inputs": [
        {
          "internalType": "address",
          "name": "owner",
          "type": "address"
        }
      ],
      "name": "balanceOf",
      "outputs": [
        {
          "internalType": "uint256",
          "name": "",
          "type": "uint256"
        }
      ],
      "stateMutability": "view",
      "type": "function"
    },
    {
      "inputs": [
        {
          "internalType": "uint256",
          "name": "tokenId",
          "type": "uint256"
        }
      ],
      "name": "getApproved",
      "outputs": [
        {
          "internalType": "address",
          "name": "",
          "type": "address"
        }
      ],
      "stateMutability": "view",
      "type": "function"
    },
    {
      "inputs": [
        {
          "internalType": "address",
          "name": "owner",
          "type": "address"
        },
        {
          "internalType": "address",
          "name": "operator",
          "type": "address"
        }
      ],
      "name": "isApprovedForAll",
      "outputs": [
        {
          "internalType": "bool",
          "name": "",
          "type": "bool"
        }
      ],
      "stateMutability": "view",
      "type": "function"
    },
    {
      "inputs": [],
      "name": "name",
      "outputs": [
        {
          "internalType": "string",
          "name": "",
          "type": "string"
        }
      ],
      "stateMutability": "view",
      "type": "function"
    },
    {
      "inputs": [
        {
          "internalType": "uint256",
          "name": "tokenId",
          "type": "uint256"
        }
      ],
      "name": "ownerOf",
      "outputs": [
        {
          "internalType": "address",
          "name": "",
          "type": "address"
        }
      ],
      "stateMutability": "view",
      "type": "function"
    },
    {
      "inputs": [
        {
          "internalType": "address",
          "name": "from",
          "type": "address"
        },
        {
          "internalType": "address",
          "name": "to",
          "type": "address"
        },
        {
          "internalType": "uint256",
          "name": "tokenId",
          "type": "uint256"
        }
      ],
      "name": "safeTransferFrom",
      "outputs": [],
      "stateMutability": "nonpayable",
      "type": "function"
    },
    {
      "inputs": [
        {
          "internalType": "address",
          "name": "from",
          "type": "address"
        },
        {
          "internalType": "address",
          "name": "to",
          "type": "address"
        },
        {
          "internalType": "uint256",
          "name": "tokenId",
          "type": "uint256"
        },
        {
          "internalType": "bytes",
          "name": "_data",
          "type": "bytes"
        }
      ],
      "name": "safeTransferFrom",
      "outputs": [],
      "stateMutability": "nonpayable",
      "type": "function"
    },
    {
      "inputs": [
        {
          "internalType": "address",
          "name": "operator",
          "type": "address"
        },
        {
          "internalType": "bool",
          "name": "approved",
          "type": "bool"
        }
      ],
      "name": "setApprovalForAll",
      "outputs": [],
      "stateMutability": "nonpayable",
      "type": "function"
    },
    {
      "inputs": [
        {
          "internalType": "bytes4",
          "name": "interfaceId",
          "type": "bytes4"
        }
      ],
      "name": "supportsInterface",
      "outputs": [
        {
          "internalType": "bool",
          "name": "",
          "type": "bool"
        }
      ],
      "stateMutability": "view",
      "type": "function"
    },
    {
      "inputs": [],
      "name": "symbol",
      "outputs": [
        {
          "internalType": "string",
          "name": "",
          "type": "string"
        }
      ],
      "stateMutability": "view",
      "type": "function"
    },
    {
      "inputs": [
        {
          "internalType": "uint256",
          "name": "tokenId",
          "type": "uint256"
        }
      ],
      "name": "tokenURI",
      "outputs": [
        {
          "internalType": "string",
          "name": "",
          "type": "string"
        }
      ],
      "stateMutability": "view",
      "type": "function"
    },
    {
      "inputs": [
        {
          "internalType": "address",
          "name": "from",
          "type": "address"
        },
        {
          "internalType": "address",
          "name": "to",
          "type": "address"
        },
        {
          "internalType": "uint256",
          "name": "tokenId",
          "type": "uint256"
        }
      ],
      "name": "transferFrom",
      "outputs": [],
      "stateMutability": "nonpayable",
      "type": "function"
    },
    {
      "inputs": [
        {
          "internalType": "string",
          "name": "newBaseTokenURI",
          "type": "string"
        }
      ],
      "name": "setBaseURI",
      "outputs": [],
      "stateMutability": "nonpayable",
      "type": "function"
    },
    {
      "inputs": [],
      "name": "baseURI",
      "outputs": [
        {
          "internalType": "string",
          "name": "",
          "type": "string"
        }
      ],
      "stateMutability": "view",
      "type": "function"
    },
    {
      "inputs": [
        {
          "internalType": "uint256",
          "name": "tokenId",
          "type": "uint256"
        },
        {
          "internalType": "string",
          "name": "_tokenURI",
          "type": "string"
        }
      ],
      "name": "setTokenURI",
      "outputs": [],
      "stateMutability": "nonpayable",
      "type": "function"
    },
    {
      "inputs": [
        {
          "internalType": "uint256",
          "name": "tokenId",
          "type": "uint256"
        }
      ],
      "name": "exists",
      "outputs": [
        {
          "internalType": "bool",
          "name": "",
          "type": "bool"
        }
      ],
      "stateMutability": "view",
      "type": "function"
    },
    {
      "inputs": [
        {
          "internalType": "address",
          "name": "to",
          "type": "address"
        },
        {
          "internalType": "uint256",
          "name": "tokenId",
          "type": "uint256"
        }
      ],
      "name": "mint",
      "outputs": [],
      "stateMutability": "nonpayable",
      "type": "function"
    },
    {
      "inputs": [
        {
          "internalType": "address",
          "name": "to",
          "type": "address"
        },
        {
          "internalType": "uint256",
          "name": "tokenId",
          "type": "uint256"
        },
        {
          "internalType": "bytes",
          "name": "_data",
          "type": "bytes"
        }
      ],
      "name": "safeMint",
      "outputs": [],
      "stateMutability": "nonpayable",
      "type": "function"
    },
    {
      "inputs": [
        {
          "internalType": "address",
          "name": "to",
          "type": "address"
        },
        {
          "internalType": "uint256",
          "name": "tokenId",
          "type": "uint256"
        }
      ],
      "name": "safeMint",
      "outputs": [],
      "stateMutability": "nonpayable",
      "type": "function"
    },
    {
      "inputs": [
        {
          "internalType": "uint256",
          "name": "tokenId",
          "type": "uint256"
        }
      ],
      "name": "burn",
      "outputs": [],
      "stateMutability": "nonpayable",
      "type": "function"
    }
  ],
  "bytecode": "0x60806040523480156200001157600080fd5b50604051620034be380380620034be8339818101604052810190620000379190620002c2565b818181600090805190602001906200005192919062000075565b5080600190805190602001906200006a92919062000075565b5050505050620003ac565b828054620000839062000376565b90600052602060002090601f016020900481019282620000a75760008555620000f3565b82601f10620000c257805160ff1916838001178555620000f3565b82800160010185558215620000f3579182015b82811115620000f2578251825591602001919060010190620000d5565b5b50905062000102919062000106565b5090565b5b808211156200012157600081600090555060010162000107565b5090565b6000604051905090565b600080fd5b600080fd5b600080fd5b600080fd5b6000601f19601f8301169050919050565b7f4e487b7100000000000000000000000000000000000000000000000000000000600052604160045260246000fd5b6200018e8262000143565b810181811067ffffffffffffffff82111715620001b057620001af62000154565b5b80604052505050565b6000620001c562000125565b9050620001d3828262000183565b919050565b600067ffffffffffffffff821115620001f657620001f562000154565b5b620002018262000143565b9050602081019050919050565b60005b838110156200022e57808201518184015260208101905062000211565b838111156200023e576000848401525b50505050565b60006200025b6200025584620001d8565b620001b9565b9050828152602081018484840111156200027a57620002796200013e565b5b620002878482856200020e565b509392505050565b600082601f830112620002a757620002a662000139565b5b8151620002b984826020860162000244565b91505092915050565b60008060408385031215620002dc57620002db6200012f565b5b600083015167ffffffffffffffff811115620002fd57620002fc62000134565b5b6200030b858286016200028f565b925050602083015167ffffffffffffffff8111156200032f576200032e62000134565b5b6200033d858286016200028f565b9150509250929050565b7f4e487b7100000000000000000000000000000000000000000000000000000000600052602260045260246000fd5b600060028204905060018216806200038f57607f821691505b60208210811415620003a657620003a562000347565b5b50919050565b61310280620003bc6000396000f3fe608060405234801561001057600080fd5b50600436106101375760003560e01c806355f804b3116100b857806395d89b411161007c57806395d89b4114610348578063a144819414610366578063a22cb46514610382578063b88d4fde1461039e578063c87b56dd146103ba578063e985e9c5146103ea57610137565b806355f804b3146102925780636352211e146102ae5780636c0360eb146102de57806370a08231146102fc5780638832e6e31461032c57610137565b806323b872dd116100ff57806323b872dd146101f257806340c10f191461020e57806342842e0e1461022a57806342966c68146102465780634f558e791461026257610137565b806301ffc9a71461013c57806306fdde031461016c578063081812fc1461018a578063095ea7b3146101ba578063162094c4146101d6575b600080fd5b61015660048036038101906101519190611d48565b61041a565b6040516101639190611d90565b60405180910390f35b6101746104fc565b6040516101819190611e44565b60405180910390f35b6101a4600480360381019061019f9190611e9c565b61058e565b6040516101b19190611f0a565b60405180910390f35b6101d460048036038101906101cf9190611f51565b610613565b005b6101f060048036038101906101eb91906120c6565b61072b565b005b61020c60048036038101906102079190612122565b610739565b005b61022860048036038101906102239190611f51565b610799565b005b610244600480360381019061023f9190612122565b6107a7565b005b610260600480360381019061025b9190611e9c565b6107c7565b005b61027c60048036038101906102779190611e9c565b6107d3565b6040516102899190611d90565b60405180910390f35b6102ac60048036038101906102a791906121d5565b6107e5565b005b6102c860048036038101906102c39190611e9c565b6107fb565b6040516102d59190611f0a565b60405180910390f35b6102e66108ad565b6040516102f39190611e44565b60405180910390f35b61031660048036038101906103119190612222565b6108bc565b604051610323919061225e565b60405180910390f35b6103466004803603810190610341919061231a565b610974565b005b610350610984565b60405161035d9190611e44565b60405180910390f35b610380600480360381019061037b9190611f51565b610a16565b005b61039c600480360381019061039791906123b5565b610a24565b005b6103b860048036038101906103b391906123f5565b610ba5565b005b6103d460048036038101906103cf9190611e9c565b610c07565b6040516103e19190611e44565b60405180910390f35b61040460048036038101906103ff9190612478565b610d59565b6040516104119190611d90565b60405180910390f35b60007f80ac58cd000000000000000000000000000000000000000000000000000000007bffffffffffffffffffffffffffffffffffffffffffffffffffffffff1916827bffffffffffffffffffffffffffffffffffffffffffffffffffffffff191614806104e557507f5b5e139f000000000000000000000000000000000000000000000000000000007bffffffffffffffffffffffffffffffffffffffffffffffffffffffff1916827bffffffffffffffffffffffffffffffffffffffffffffffffffffffff1916145b806104f557506104f482610ded565b5b9050919050565b60606000805461050b906124e7565b80601f0160208091040260200160405190810160405280929190818152602001828054610537906124e7565b80156105845780601f1061055957610100808354040283529160200191610584565b820191906000526020600020905b81548152906001019060200180831161056757829003601f168201915b5050505050905090565b600061059982610e57565b6105d8576040517f08c379a00000000000000000000000000000000000000000000000000000000081526004016105cf9061258b565b60405180910390fd5b6004600083815260200190815260200160002060009054906101000a900473ffffffffffffffffffffffffffffffffffffffff169050919050565b600061061e826107fb565b90508073ffffffffffffffffffffffffffffffffffffffff168373ffffffffffffffffffffffffffffffffffffffff16141561068f576040517f08c379a00000000000000000000000000000000000000000000000000000000081526004016106869061261d565b60405180910390fd5b8073ffffffffffffffffffffffffffffffffffffffff166106ae610ec3565b73ffffffffffffffffffffffffffffffffffffffff1614806106dd57506106dc816106d7610ec3565b610d59565b5b61071c576040517f08c379a0000000000000000000000000000000000000000000000000000000008152600401610713906126af565b60405180910390fd5b6107268383610ecb565b505050565b6107358282610f84565b5050565b61074a610744610ec3565b82610ff8565b610789576040517f08c379a000000000000000000000000000000000000000000000000000000000815260040161078090612741565b60405180910390fd5b6107948383836110d6565b505050565b6107a38282611332565b5050565b6107c283838360405180602001604052806000815250610ba5565b505050565b6107d081611500565b50565b60006107de82610e57565b9050919050565b8181600791906107f6929190611b73565b505050565b6000806002600084815260200190815260200160002060009054906101000a900473ffffffffffffffffffffffffffffffffffffffff169050600073ffffffffffffffffffffffffffffffffffffffff168173ffffffffffffffffffffffffffffffffffffffff1614156108a4576040517f08c379a000000000000000000000000000000000000000000000000000000000815260040161089b906127d3565b60405180910390fd5b80915050919050565b60606108b7611553565b905090565b60008073ffffffffffffffffffffffffffffffffffffffff168273ffffffffffffffffffffffffffffffffffffffff16141561092d576040517f08c379a000000000000000000000000000000000000000000000000000000000815260040161092490612865565b60405180910390fd5b600360008373ffffffffffffffffffffffffffffffffffffffff1673ffffffffffffffffffffffffffffffffffffffff168152602001908152602001600020549050919050565b61097f8383836115e5565b505050565b606060018054610993906124e7565b80601f01602080910402602001604051908101604052809291908181526020018280546109bf906124e7565b8015610a0c5780601f106109e157610100808354040283529160200191610a0c565b820191906000526020600020905b8154815290600101906020018083116109ef57829003601f168201915b5050505050905090565b610a208282611640565b5050565b610a2c610ec3565b73ffffffffffffffffffffffffffffffffffffffff168273ffffffffffffffffffffffffffffffffffffffff161415610a9a576040517f08c379a0000000000000000000000000000000000000000000000000000000008152600401610a91906128d1565b60405180910390fd5b8060056000610aa7610ec3565b73ffffffffffffffffffffffffffffffffffffffff1673ffffffffffffffffffffffffffffffffffffffff16815260200190815260200160002060008473ffffffffffffffffffffffffffffffffffffffff1673ffffffffffffffffffffffffffffffffffffffff16815260200190815260200160002060006101000a81548160ff0219169083151502179055508173ffffffffffffffffffffffffffffffffffffffff16610b54610ec3565b73ffffffffffffffffffffffffffffffffffffffff167f17307eab39ab6107e8899845ad3d59bd9653f200f220920489ca2b5937696c3183604051610b999190611d90565b60405180910390a35050565b610bb6610bb0610ec3565b83610ff8565b610bf5576040517f08c379a0000000000000000000000000000000000000000000000000000000008152600401610bec90612741565b60405180910390fd5b610c018484848461165e565b50505050565b6060610c1282610e57565b610c51576040517f08c379a0000000000000000000000000000000000000000000000000000000008152600401610c4890612963565b60405180910390fd5b6000600660008481526020019081526020016000208054610c71906124e7565b80601f0160208091040260200160405190810160405280929190818152602001828054610c9d906124e7565b8015610cea5780601f10610cbf57610100808354040283529160200191610cea565b820191906000526020600020905b815481529060010190602001808311610ccd57829003601f168201915b505050505090506000610cfb611553565b9050600081511415610d11578192505050610d54565b600082511115610d46578082604051602001610d2e9291906129bf565b60405160208183030381529060405292505050610d54565b610d4f846116ba565b925050505b919050565b6000600560008473ffffffffffffffffffffffffffffffffffffffff1673ffffffffffffffffffffffffffffffffffffffff16815260200190815260200160002060008373ffffffffffffffffffffffffffffffffffffffff1673ffffffffffffffffffffffffffffffffffffffff16815260200190815260200160002060009054906101000a900460ff16905092915050565b60007f01ffc9a7000000000000000000000000000000000000000000000000000000007bffffffffffffffffffffffffffffffffffffffffffffffffffffffff1916827bffffffffffffffffffffffffffffffffffffffffffffffffffffffff1916149050919050565b60008073ffffffffffffffffffffffffffffffffffffffff166002600084815260200190815260200160002060009054906101000a900473ffffffffffffffffffffffffffffffffffffffff1673ffffffffffffffffffffffffffffffffffffffff1614159050919050565b600033905090565b816004600083815260200190815260200160002060006101000a81548173ffffffffffffffffffffffffffffffffffffffff021916908373ffffffffffffffffffffffffffffffffffffffff160217905550808273ffffffffffffffffffffffffffffffffffffffff16610f3e836107fb565b73ffffffffffffffffffffffffffffffffffffffff167f8c5be1e5ebec7d5bd14f71427d1e84f3dd0314c0f7b2291e5b200ac8c7c3b92560405160405180910390a45050565b610f8d82610e57565b610fcc576040517f08c379a0000000000000000000000000000000000000000000000000000000008152600401610fc390612a55565b60405180910390fd5b80600660008481526020019081526020016000209080519060200190610ff3929190611bf9565b505050565b600061100382610e57565b611042576040517f08c379a000000000000000000000000000000000000000000000000000000000815260040161103990612ae7565b60405180910390fd5b600061104d836107fb565b90508073ffffffffffffffffffffffffffffffffffffffff168473ffffffffffffffffffffffffffffffffffffffff1614806110bc57508373ffffffffffffffffffffffffffffffffffffffff166110a48461058e565b73ffffffffffffffffffffffffffffffffffffffff16145b806110cd57506110cc8185610d59565b5b91505092915050565b8273ffffffffffffffffffffffffffffffffffffffff166110f6826107fb565b73ffffffffffffffffffffffffffffffffffffffff161461114c576040517f08c379a000000000000000000000000000000000000000000000000000000000815260040161114390612b79565b60405180910390fd5b600073ffffffffffffffffffffffffffffffffffffffff168273ffffffffffffffffffffffffffffffffffffffff1614156111bc576040517f08c379a00000000000000000000000000000000000000000000000000000000081526004016111b390612c0b565b60405180910390fd5b6111c7838383611761565b6111d2600082610ecb565b6001600360008573ffffffffffffffffffffffffffffffffffffffff1673ffffffffffffffffffffffffffffffffffffffff16815260200190815260200160002060008282546112229190612c5a565b925050819055506001600360008473ffffffffffffffffffffffffffffffffffffffff1673ffffffffffffffffffffffffffffffffffffffff16815260200190815260200160002060008282546112799190612c8e565b92505081905550816002600083815260200190815260200160002060006101000a81548173ffffffffffffffffffffffffffffffffffffffff021916908373ffffffffffffffffffffffffffffffffffffffff160217905550808273ffffffffffffffffffffffffffffffffffffffff168473ffffffffffffffffffffffffffffffffffffffff167fddf252ad1be2c89b69c2b068fc378daa952ba7f163c4a11628f55a4df523b3ef60405160405180910390a4505050565b600073ffffffffffffffffffffffffffffffffffffffff168273ffffffffffffffffffffffffffffffffffffffff1614156113a2576040517f08c379a000000000000000000000000000000000000000000000000000000000815260040161139990612d30565b60405180910390fd5b6113ab81610e57565b156113eb576040517f08c379a00000000000000000000000000000000000000000000000000000000081526004016113e290612d9c565b60405180910390fd5b6113f760008383611761565b6001600360008473ffffffffffffffffffffffffffffffffffffffff1673ffffffffffffffffffffffffffffffffffffffff16815260200190815260200160002060008282546114479190612c8e565b92505081905550816002600083815260200190815260200160002060006101000a81548173ffffffffffffffffffffffffffffffffffffffff021916908373ffffffffffffffffffffffffffffffffffffffff160217905550808273ffffffffffffffffffffffffffffffffffffffff16600073ffffffffffffffffffffffffffffffffffffffff167fddf252ad1be2c89b69c2b068fc378daa952ba7f163c4a11628f55a4df523b3ef60405160405180910390a45050565b61150981611766565b6000600660008381526020019081526020016000208054611529906124e7565b9050146115505760066000828152602001908152602001600020600061154f9190611c7f565b5b50565b606060078054611562906124e7565b80601f016020809104026020016040519081016040528092919081815260200182805461158e906124e7565b80156115db5780601f106115b0576101008083540402835291602001916115db565b820191906000526020600020905b8154815290600101906020018083116115be57829003601f168201915b5050505050905090565b6115ef8383611332565b6115fc6000848484611877565b61163b576040517f08c379a000000000000000000000000000000000000000000000000000000000815260040161163290612e2e565b60405180910390fd5b505050565b61165a8282604051806020016040528060008152506115e5565b5050565b6116698484846110d6565b61167584848484611877565b6116b4576040517f08c379a00000000000000000000000000000000000000000000000000000000081526004016116ab90612e2e565b60405180910390fd5b50505050565b60606116c582610e57565b611704576040517f08c379a00000000000000000000000000000000000000000000000000000000081526004016116fb90612ec0565b60405180910390fd5b600061170e611553565b9050600081511161172e5760405180602001604052806000815250611759565b80611738846119ff565b6040516020016117499291906129bf565b6040516020818303038152906040525b915050919050565b505050565b6000611771826107fb565b905061177f81600084611761565b61178a600083610ecb565b6001600360008373ffffffffffffffffffffffffffffffffffffffff1673ffffffffffffffffffffffffffffffffffffffff16815260200190815260200160002060008282546117da9190612c5a565b925050819055506002600083815260200190815260200160002060006101000a81549073ffffffffffffffffffffffffffffffffffffffff021916905581600073ffffffffffffffffffffffffffffffffffffffff168273ffffffffffffffffffffffffffffffffffffffff167fddf252ad1be2c89b69c2b068fc378daa952ba7f163c4a11628f55a4df523b3ef60405160405180910390a45050565b60006118988473ffffffffffffffffffffffffffffffffffffffff16611b60565b156119f2578373ffffffffffffffffffffffffffffffffffffffff1663150b7a026118c1610ec3565b8786866040518563ffffffff1660e01b81526004016118e39493929190612f35565b6020604051808303816000875af192505050801561191f57506040513d601f19601f8201168201806040525081019061191c9190612f96565b60015b6119a2573d806000811461194f576040519150601f19603f3d011682016040523d82523d6000602084013e611954565b606091505b5060008151141561199a576040517f08c379a000000000000000000000000000000000000000000000000000000000815260040161199190612e2e565b60405180910390fd5b805181602001fd5b63150b7a0260e01b7bffffffffffffffffffffffffffffffffffffffffffffffffffffffff1916817bffffffffffffffffffffffffffffffffffffffffffffffffffffffff1916149150506119f7565b600190505b949350505050565b60606000821415611a47576040518060400160405280600181526020017f30000000000000000000000000000000000000000000000000000000000000008152509050611b5b565b600082905060005b60008214611a79578080611a6290612fc3565b915050600a82611a72919061303b565b9150611a4f565b60008167ffffffffffffffff811115611a9557611a94611f9b565b5b6040519080825280601f01601f191660200182016040528015611ac75781602001600182028036833780820191505090505b5090505b60008514611b5457600182611ae09190612c5a565b9150600a85611aef919061306c565b6030611afb9190612c8e565b60f81b818381518110611b1157611b1061309d565b5b60200101907effffffffffffffffffffffffffffffffffffffffffffffffffffffffffffff1916908160001a905350600a85611b4d919061303b565b9450611acb565b8093505050505b919050565b600080823b905060008111915050919050565b828054611b7f906124e7565b90600052602060002090601f016020900481019282611ba15760008555611be8565b82601f10611bba57803560ff1916838001178555611be8565b82800160010185558215611be8579182015b82811115611be7578235825591602001919060010190611bcc565b5b509050611bf59190611cbf565b5090565b828054611c05906124e7565b90600052602060002090601f016020900481019282611c275760008555611c6e565b82601f10611c4057805160ff1916838001178555611c6e565b82800160010185558215611c6e579182015b82811115611c6d578251825591602001919060010190611c52565b5b509050611c7b9190611cbf565b5090565b508054611c8b906124e7565b6000825580601f10611c9d5750611cbc565b601f016020900490600052602060002090810190611cbb9190611cbf565b5b50565b5b80821115611cd8576000816000905550600101611cc0565b5090565b6000604051905090565b600080fd5b600080fd5b60007fffffffff0000000000000000000000000000000000000000000000000000000082169050919050565b611d2581611cf0565b8114611d3057600080fd5b50565b600081359050611d4281611d1c565b92915050565b600060208284031215611d5e57611d5d611ce6565b5b6000611d6c84828501611d33565b91505092915050565b60008115159050919050565b611d8a81611d75565b82525050565b6000602082019050611da56000830184611d81565b92915050565b600081519050919050565b600082825260208201905092915050565b60005b83811015611de5578082015181840152602081019050611dca565b83811115611df4576000848401525b50505050565b6000601f19601f8301169050919050565b6000611e1682611dab565b611e208185611db6565b9350611e30818560208601611dc7565b611e3981611dfa565b840191505092915050565b60006020820190508181036000830152611e5e8184611e0b565b905092915050565b6000819050919050565b611e7981611e66565b8114611e8457600080fd5b50565b600081359050611e9681611e70565b92915050565b600060208284031215611eb257611eb1611ce6565b5b6000611ec084828501611e87565b91505092915050565b600073ffffffffffffffffffffffffffffffffffffffff82169050919050565b6000611ef482611ec9565b9050919050565b611f0481611ee9565b82525050565b6000602082019050611f1f6000830184611efb565b92915050565b611f2e81611ee9565b8114611f3957600080fd5b50565b600081359050611f4b81611f25565b92915050565b60008060408385031215611f6857611f67611ce6565b5b6000611f7685828601611f3c565b9250506020611f8785828601611e87565b9150509250929050565b600080fd5b600080fd5b7f4e487b7100000000000000000000000000000000000000000000000000000000600052604160045260246000fd5b611fd382611dfa565b810181811067ffffffffffffffff82111715611ff257611ff1611f9b565b5b80604052505050565b6000612005611cdc565b90506120118282611fca565b919050565b600067ffffffffffffffff82111561203157612030611f9b565b5b61203a82611dfa565b9050602081019050919050565b82818337600083830152505050565b600061206961206484612016565b611ffb565b90508281526020810184848401111561208557612084611f96565b5b612090848285612047565b509392505050565b600082601f8301126120ad576120ac611f91565b5b81356120bd848260208601612056565b91505092915050565b600080604083850312156120dd576120dc611ce6565b5b60006120eb85828601611e87565b925050602083013567ffffffffffffffff81111561210c5761210b611ceb565b5b61211885828601612098565b9150509250929050565b60008060006060848603121561213b5761213a611ce6565b5b600061214986828701611f3c565b935050602061215a86828701611f3c565b925050604061216b86828701611e87565b9150509250925092565b600080fd5b600080fd5b60008083601f84011261219557612194611f91565b5b8235905067ffffffffffffffff8111156121b2576121b1612175565b5b6020830191508360018202830111156121ce576121cd61217a565b5b9250929050565b600080602083850312156121ec576121eb611ce6565b5b600083013567ffffffffffffffff81111561220a57612209611ceb565b5b6122168582860161217f565b92509250509250929050565b60006020828403121561223857612237611ce6565b5b600061224684828501611f3c565b91505092915050565b61225881611e66565b82525050565b6000602082019050612273600083018461224f565b92915050565b600067ffffffffffffffff82111561229457612293611f9b565b5b61229d82611dfa565b9050602081019050919050565b60006122bd6122b884612279565b611ffb565b9050828152602081018484840111156122d9576122d8611f96565b5b6122e4848285612047565b509392505050565b600082601f83011261230157612300611f91565b5b81356123118482602086016122aa565b91505092915050565b60008060006060848603121561233357612332611ce6565b5b600061234186828701611f3c565b935050602061235286828701611e87565b925050604084013567ffffffffffffffff81111561237357612372611ceb565b5b61237f868287016122ec565b9150509250925092565b61239281611d75565b811461239d57600080fd5b50565b6000813590506123af81612389565b92915050565b600080604083850312156123cc576123cb611ce6565b5b60006123da85828601611f3c565b92505060206123eb858286016123a0565b9150509250929050565b6000806000806080858703121561240f5761240e611ce6565b5b600061241d87828801611f3c565b945050602061242e87828801611f3c565b935050604061243f87828801611e87565b925050606085013567ffffffffffffffff8111156124605761245f611ceb565b5b61246c878288016122ec565b91505092959194509250565b6000806040838503121561248f5761248e611ce6565b5b600061249d85828601611f3c565b92505060206124ae85828601611f3c565b9150509250929050565b7f4e487b7100000000000000000000000000000000000000000000000000000000600052602260045260246000fd5b600060028204905060018216806124ff57607f821691505b60208210811415612513576125126124b8565b5b50919050565b7f4552433732313a20617070726f76656420717565727920666f72206e6f6e657860008201527f697374656e7420746f6b656e0000000000000000000000000000000000000000602082015250565b6000612575602c83611db6565b915061258082612519565b604082019050919050565b600060208201905081810360008301526125a481612568565b9050919050565b7f4552433732313a20617070726f76616c20746f2063757272656e74206f776e6560008201527f7200000000000000000000000000000000000000000000000000000000000000602082015250565b6000612607602183611db6565b9150612612826125ab565b604082019050919050565b60006020820190508181036000830152612636816125fa565b9050919050565b7f4552433732313a20617070726f76652063616c6c6572206973206e6f74206f7760008201527f6e6572206e6f7220617070726f76656420666f7220616c6c0000000000000000602082015250565b6000612699603883611db6565b91506126a48261263d565b604082019050919050565b600060208201905081810360008301526126c88161268c565b9050919050565b7f4552433732313a207472616e736665722063616c6c6572206973206e6f74206f60008201527f776e6572206e6f7220617070726f766564000000000000000000000000000000602082015250565b600061272b603183611db6565b9150612736826126cf565b604082019050919050565b6000602082019050818103600083015261275a8161271e565b9050919050565b7f4552433732313a206f776e657220717565727920666f72206e6f6e657869737460008201527f656e7420746f6b656e0000000000000000000000000000000000000000000000602082015250565b60006127bd602983611db6565b91506127c882612761565b604082019050919050565b600060208201905081810360008301526127ec816127b0565b9050919050565b7f4552433732313a2062616c616e636520717565727920666f7220746865207a6560008201527f726f206164647265737300000000000000000000000000000000000000000000602082015250565b600061284f602a83611db6565b915061285a826127f3565b604082019050919050565b6000602082019050818103600083015261287e81612842565b9050919050565b7f4552433732313a20617070726f766520746f2063616c6c657200000000000000600082015250565b60006128bb601983611db6565b91506128c682612885565b602082019050919050565b600060208201905081810360008301526128ea816128ae565b9050919050565b7f45524337323155524953746f726167653a2055524920717565727920666f722060008201527f6e6f6e6578697374656e7420746f6b656e000000000000000000000000000000602082015250565b600061294d603183611db6565b9150612958826128f1565b604082019050919050565b6000602082019050818103600083015261297c81612940565b9050919050565b600081905092915050565b600061299982611dab565b6129a38185612983565b93506129b3818560208601611dc7565b80840191505092915050565b60006129cb828561298e565b91506129d7828461298e565b91508190509392505050565b7f45524337323155524953746f726167653a2055524920736574206f66206e6f6e60008201527f6578697374656e7420746f6b656e000000000000000000000000000000000000602082015250565b6000612a3f602e83611db6565b9150612a4a826129e3565b604082019050919050565b60006020820190508181036000830152612a6e81612a32565b9050919050565b7f4552433732313a206f70657261746f7220717565727920666f72206e6f6e657860008201527f697374656e7420746f6b656e0000000000000000000000000000000000000000602082015250565b6000612ad1602c83611db6565b9150612adc82612a75565b604082019050919050565b60006020820190508181036000830152612b0081612ac4565b9050919050565b7f4552433732313a207472616e73666572206f6620746f6b656e2074686174206960008201527f73206e6f74206f776e0000000000000000000000000000000000000000000000602082015250565b6000612b63602983611db6565b9150612b6e82612b07565b604082019050919050565b60006020820190508181036000830152612b9281612b56565b9050919050565b7f4552433732313a207472616e7366657220746f20746865207a65726f2061646460008201527f7265737300000000000000000000000000000000000000000000000000000000602082015250565b6000612bf5602483611db6565b9150612c0082612b99565b604082019050919050565b60006020820190508181036000830152612c2481612be8565b9050919050565b7f4e487b7100000000000000000000000000000000000000000000000000000000600052601160045260246000fd5b6000612c6582611e66565b9150612c7083611e66565b925082821015612c8357612c82612c2b565b5b828203905092915050565b6000612c9982611e66565b9150612ca483611e66565b9250827fffffffffffffffffffffffffffffffffffffffffffffffffffffffffffffffff03821115612cd957612cd8612c2b565b5b828201905092915050565b7f4552433732313a206d696e7420746f20746865207a65726f2061646472657373600082015250565b6000612d1a602083611db6565b9150612d2582612ce4565b602082019050919050565b60006020820190508181036000830152612d4981612d0d565b9050919050565b7f4552433732313a20746f6b656e20616c7265616479206d696e74656400000000600082015250565b6000612d86601c83611db6565b9150612d9182612d50565b602082019050919050565b60006020820190508181036000830152612db581612d79565b9050919050565b7f4552433732313a207472616e7366657220746f206e6f6e20455243373231526560008201527f63656976657220696d706c656d656e7465720000000000000000000000000000602082015250565b6000612e18603283611db6565b9150612e2382612dbc565b604082019050919050565b60006020820190508181036000830152612e4781612e0b565b9050919050565b7f4552433732314d657461646174613a2055524920717565727920666f72206e6f60008201527f6e6578697374656e7420746f6b656e0000000000000000000000000000000000602082015250565b6000612eaa602f83611db6565b9150612eb582612e4e565b604082019050919050565b60006020820190508181036000830152612ed981612e9d565b9050919050565b600081519050919050565b600082825260208201905092915050565b6000612f0782612ee0565b612f118185612eeb565b9350612f21818560208601611dc7565b612f2a81611dfa565b840191505092915050565b6000608082019050612f4a6000830187611efb565b612f576020830186611efb565b612f64604083018561224f565b8181036060830152612f768184612efc565b905095945050505050565b600081519050612f9081611d1c565b92915050565b600060208284031215612fac57612fab611ce6565b5b6000612fba84828501612f81565b91505092915050565b6000612fce82611e66565b91507fffffffffffffffffffffffffffffffffffffffffffffffffffffffffffffffff82141561300157613000612c2b565b5b600182019050919050565b7f4e487b7100000000000000000000000000000000000000000000000000000000600052601260045260246000fd5b600061304682611e66565b915061305183611e66565b9250826130615761306061300c565b5b828204905092915050565b600061307782611e66565b915061308283611e66565b9250826130925761309161300c565b5b828206905092915050565b7f4e487b7100000000000000000000000000000000000000000000000000000000600052603260045260246000fdfea26469706673582212207fccbaea816931058a3b7ac1f0be94bd6c9e8b0e97ddb9656875f5a917a4ec9e64736f6c634300080a0033",
  "immutableReferences": {},
  "source": "// SPDX-License-Identifier: MIT\n\npragma solidity ^0.8.0;\n\nimport \"../token/ERC721/extensions/ERC721URIStorage.sol\";\n\n/**\n * @title ERC721Mock\n * This mock just provides a public safeMint, mint, and burn functions for testing purposes\n */\ncontract ERC721URIStorageMock is ERC721URIStorage {\n    string private _baseTokenURI;\n\n    constructor (string memory name, string memory symbol) ERC721(name, symbol) { }\n\n    function _baseURI() internal view virtual override returns (string memory) {\n        return _baseTokenURI;\n    }\n\n    function setBaseURI(string calldata newBaseTokenURI) public {\n        _baseTokenURI = newBaseTokenURI;\n    }\n\n    function baseURI() public view returns (string memory) {\n        return _baseURI();\n    }\n\n    function setTokenURI(uint256 tokenId, string memory _tokenURI) public {\n        _setTokenURI(tokenId, _tokenURI);\n    }\n\n    function exists(uint256 tokenId) public view returns (bool) {\n        return _exists(tokenId);\n    }\n\n    function mint(address to, uint256 tokenId) public {\n        _mint(to, tokenId);\n    }\n\n    function safeMint(address to, uint256 tokenId) public {\n        _safeMint(to, tokenId);\n    }\n\n    function safeMint(address to, uint256 tokenId, bytes memory _data) public {\n        _safeMint(to, tokenId, _data);\n    }\n\n    function burn(uint256 tokenId) public {\n        _burn(tokenId);\n    }\n}\n",
  "sourcePath": "D:\\FYP\\FYP\\Dapp\\src\\contracts\\openzeppelin-contracts-4.1.0\\openzeppelin-contracts-4.1.0\\contracts\\mocks\\ERC721URIStorageMock.sol",
  "compiler": {
    "name": "solc",
    "version": "0.8.10+commit.fc410830.Emscripten.clang"
  },
  "schemaVersion": "3.4.3",
  "updatedAt": "2021-11-25T02:44:55.253Z",
  "devdoc": {
    "kind": "dev",
    "methods": {
      "approve(address,uint256)": {
        "details": "See {IERC721-approve}."
      },
      "balanceOf(address)": {
        "details": "See {IERC721-balanceOf}."
      },
      "getApproved(uint256)": {
        "details": "See {IERC721-getApproved}."
      },
      "isApprovedForAll(address,address)": {
        "details": "See {IERC721-isApprovedForAll}."
      },
      "name()": {
        "details": "See {IERC721Metadata-name}."
      },
      "ownerOf(uint256)": {
        "details": "See {IERC721-ownerOf}."
      },
      "safeTransferFrom(address,address,uint256)": {
        "details": "See {IERC721-safeTransferFrom}."
      },
      "safeTransferFrom(address,address,uint256,bytes)": {
        "details": "See {IERC721-safeTransferFrom}."
      },
      "setApprovalForAll(address,bool)": {
        "details": "See {IERC721-setApprovalForAll}."
      },
      "supportsInterface(bytes4)": {
        "details": "See {IERC165-supportsInterface}."
      },
      "symbol()": {
        "details": "See {IERC721Metadata-symbol}."
      },
      "tokenURI(uint256)": {
        "details": "See {IERC721Metadata-tokenURI}."
      },
      "transferFrom(address,address,uint256)": {
        "details": "See {IERC721-transferFrom}."
      }
    },
    "title": "ERC721Mock This mock just provides a public safeMint, mint, and burn functions for testing purposes",
    "version": 1
  },
  "userdoc": {
    "kind": "user",
    "methods": {},
    "version": 1
  }
}