{
  "contractName": "fyp_contract",
  "abi": [
    {
      "inputs": [],
      "stateMutability": "nonpayable",
      "type": "constructor"
    },
    {
      "anonymous": false,
      "inputs": [
        {
          "indexed": true,
          "internalType": "address",
          "name": "previousOwner",
          "type": "address"
        },
        {
          "indexed": true,
          "internalType": "address",
          "name": "newOwner",
          "type": "address"
        }
      ],
      "name": "OwnershipTransferred",
      "type": "event"
    },
    {
      "inputs": [],
      "name": "bb_question_count",
      "outputs": [
        {
          "internalType": "uint256",
          "name": "",
          "type": "uint256"
        }
      ],
      "stateMutability": "view",
      "type": "function",
      "constant": true
    },
    {
      "inputs": [
        {
          "internalType": "uint256",
          "name": "",
          "type": "uint256"
        }
      ],
      "name": "bb_question_scores",
      "outputs": [
        {
          "internalType": "uint256",
          "name": "_id2",
          "type": "uint256"
        },
        {
          "components": [
            {
              "internalType": "uint256",
              "name": "_Quiz_ID",
              "type": "uint256"
            }
          ],
          "internalType": "struct fyp_contract.BB_Quiz",
          "name": "_bb_quiz",
          "type": "tuple"
        },
        {
          "components": [
            {
              "internalType": "string",
              "name": "_Student_ID",
              "type": "string"
            },
            {
              "internalType": "string",
              "name": "_Student_Full_Name",
              "type": "string"
            }
          ],
          "internalType": "struct fyp_contract.BB_Student",
          "name": "_bb_student",
          "type": "tuple"
        },
        {
          "components": [
            {
              "internalType": "string",
              "name": "_Question_ID",
              "type": "string"
            },
            {
              "internalType": "string",
              "name": "_Question",
              "type": "string"
            },
            {
              "internalType": "string",
              "name": "_Answer",
              "type": "string"
            },
            {
              "internalType": "uint256",
              "name": "_Question_Possible_Points",
              "type": "uint256"
            }
          ],
          "internalType": "struct fyp_contract.BB_Quiz_Questions",
          "name": "_bb_quiz_questions",
          "type": "tuple"
        },
        {
          "internalType": "uint256",
          "name": "_Student_Manual_Points_For_This_Question",
          "type": "uint256"
        },
        {
          "internalType": "uint256",
          "name": "_Student_Auto_Points_For_This_Question",
          "type": "uint256"
        },
        {
          "internalType": "uint256",
          "name": "_Quiz_Possible_Points",
          "type": "uint256"
        },
        {
          "internalType": "uint256",
          "name": "_Student_Total",
          "type": "uint256"
        }
      ],
      "stateMutability": "view",
      "type": "function",
      "constant": true
    },
    {
      "inputs": [
        {
          "internalType": "uint256",
          "name": "",
          "type": "uint256"
        }
      ],
      "name": "bb_quiz",
      "outputs": [
        {
          "internalType": "uint256",
          "name": "_Quiz_ID",
          "type": "uint256"
        }
      ],
      "stateMutability": "view",
      "type": "function",
      "constant": true
    },
    {
      "inputs": [],
      "name": "bb_quiz_count",
      "outputs": [
        {
          "internalType": "uint256",
          "name": "",
          "type": "uint256"
        }
      ],
      "stateMutability": "view",
      "type": "function",
      "constant": true
    },
    {
      "inputs": [
        {
          "internalType": "uint256",
          "name": "",
          "type": "uint256"
        }
      ],
      "name": "bb_quiz_questions",
      "outputs": [
        {
          "internalType": "string",
          "name": "_Question_ID",
          "type": "string"
        },
        {
          "internalType": "string",
          "name": "_Question",
          "type": "string"
        },
        {
          "internalType": "string",
          "name": "_Answer",
          "type": "string"
        },
        {
          "internalType": "uint256",
          "name": "_Question_Possible_Points",
          "type": "uint256"
        }
      ],
      "stateMutability": "view",
      "type": "function",
      "constant": true
    },
    {
      "inputs": [
        {
          "internalType": "string",
          "name": "",
          "type": "string"
        }
      ],
      "name": "bb_student",
      "outputs": [
        {
          "internalType": "string",
          "name": "_Student_ID",
          "type": "string"
        },
        {
          "internalType": "string",
          "name": "_Student_Full_Name",
          "type": "string"
        }
      ],
      "stateMutability": "view",
      "type": "function",
      "constant": true
    },
    {
      "inputs": [],
      "name": "count",
      "outputs": [
        {
          "internalType": "uint256",
          "name": "",
          "type": "uint256"
        }
      ],
      "stateMutability": "view",
      "type": "function",
      "constant": true
    },
    {
      "inputs": [
        {
          "internalType": "uint256",
          "name": "",
          "type": "uint256"
        }
      ],
      "name": "kahoot_overall",
      "outputs": [
        {
          "internalType": "uint256",
          "name": "_id1",
          "type": "uint256"
        },
        {
          "components": [
            {
              "internalType": "string",
              "name": "_Student_ID",
              "type": "string"
            }
          ],
          "internalType": "struct fyp_contract.Kahoot_Student",
          "name": "_kahoot_student",
          "type": "tuple"
        },
        {
          "components": [
            {
              "internalType": "uint256",
              "name": "_Kahoot_ID",
              "type": "uint256"
            }
          ],
          "internalType": "struct fyp_contract.Kahoot_Quiz",
          "name": "_kahoot_quiz",
          "type": "tuple"
        },
        {
          "components": [
            {
              "internalType": "string",
              "name": "_Question_ID",
              "type": "string"
            },
            {
              "internalType": "string",
              "name": "_Question",
              "type": "string"
            },
            {
              "internalType": "uint256",
              "name": "_Time_Allocated",
              "type": "uint256"
            }
          ],
          "internalType": "struct fyp_contract.Kahoot_Question",
          "name": "_kahoot_question",
          "type": "tuple"
        },
        {
          "internalType": "uint256",
          "name": "_Time_Took",
          "type": "uint256"
        },
        {
          "internalType": "uint256",
          "name": "_Score",
          "type": "uint256"
        },
        {
          "internalType": "uint256",
          "name": "_TotalSScore",
          "type": "uint256"
        }
      ],
      "stateMutability": "view",
      "type": "function",
      "constant": true
    },
    {
      "inputs": [
        {
          "internalType": "uint256",
          "name": "",
          "type": "uint256"
        }
      ],
      "name": "kahoot_question",
      "outputs": [
        {
          "internalType": "string",
          "name": "_Question_ID",
          "type": "string"
        },
        {
          "internalType": "string",
          "name": "_Question",
          "type": "string"
        },
        {
          "internalType": "uint256",
          "name": "_Time_Allocated",
          "type": "uint256"
        }
      ],
      "stateMutability": "view",
      "type": "function",
      "constant": true
    },
    {
      "inputs": [],
      "name": "kahoot_question_count",
      "outputs": [
        {
          "internalType": "uint256",
          "name": "",
          "type": "uint256"
        }
      ],
      "stateMutability": "view",
      "type": "function",
      "constant": true
    },
    {
      "inputs": [
        {
          "internalType": "uint256",
          "name": "",
          "type": "uint256"
        }
      ],
      "name": "kahoot_quiz",
      "outputs": [
        {
          "internalType": "uint256",
          "name": "_Kahoot_ID",
          "type": "uint256"
        }
      ],
      "stateMutability": "view",
      "type": "function",
      "constant": true
    },
    {
      "inputs": [],
      "name": "kahoot_quiz_count",
      "outputs": [
        {
          "internalType": "uint256",
          "name": "",
          "type": "uint256"
        }
      ],
      "stateMutability": "view",
      "type": "function",
      "constant": true
    },
    {
      "inputs": [
        {
          "internalType": "string",
          "name": "",
          "type": "string"
        }
      ],
      "name": "kahoot_student",
      "outputs": [
        {
          "internalType": "string",
          "name": "_Student_ID",
          "type": "string"
        }
      ],
      "stateMutability": "view",
      "type": "function",
      "constant": true
    },
    {
      "inputs": [
        {
          "internalType": "uint256",
          "name": "",
          "type": "uint256"
        }
      ],
      "name": "lecturer",
      "outputs": [
        {
          "internalType": "uint256",
          "name": "_Lecturercount",
          "type": "uint256"
        },
        {
          "internalType": "string",
          "name": "_Lecturer_ID",
          "type": "string"
        },
        {
          "internalType": "string",
          "name": "_Lecturer_Full_Name",
          "type": "string"
        },
        {
          "internalType": "address",
          "name": "_Lecturer_Address",
          "type": "address"
        }
      ],
      "stateMutability": "view",
      "type": "function",
      "constant": true
    },
    {
      "inputs": [],
      "name": "lecturer_count",
      "outputs": [
        {
          "internalType": "uint256",
          "name": "",
          "type": "uint256"
        }
      ],
      "stateMutability": "view",
      "type": "function",
      "constant": true
    },
    {
      "inputs": [],
      "name": "owner",
      "outputs": [
        {
          "internalType": "address",
          "name": "",
          "type": "address"
        }
      ],
      "stateMutability": "view",
      "type": "function",
      "constant": true
    },
    {
      "inputs": [],
      "name": "renounceOwnership",
      "outputs": [],
      "stateMutability": "nonpayable",
      "type": "function"
    },
    {
      "inputs": [
        {
          "internalType": "uint256",
          "name": "",
          "type": "uint256"
        }
      ],
      "name": "student",
      "outputs": [
        {
          "internalType": "uint256",
          "name": "_Studentcount",
          "type": "uint256"
        },
        {
          "internalType": "string",
          "name": "_Student_ID",
          "type": "string"
        },
        {
          "internalType": "string",
          "name": "_Student_Full_Name",
          "type": "string"
        },
        {
          "internalType": "address",
          "name": "_Student_Address",
          "type": "address"
        }
      ],
      "stateMutability": "view",
      "type": "function",
      "constant": true
    },
    {
      "inputs": [],
      "name": "student_count",
      "outputs": [
        {
          "internalType": "uint256",
          "name": "",
          "type": "uint256"
        }
      ],
      "stateMutability": "view",
      "type": "function",
      "constant": true
    },
    {
      "inputs": [],
      "name": "time_taken_count",
      "outputs": [
        {
          "internalType": "uint256",
          "name": "",
          "type": "uint256"
        }
      ],
      "stateMutability": "view",
      "type": "function",
      "constant": true
    },
    {
      "inputs": [
        {
          "internalType": "address",
          "name": "newOwner",
          "type": "address"
        }
      ],
      "name": "transferOwnership",
      "outputs": [],
      "stateMutability": "nonpayable",
      "type": "function"
    },
    {
      "inputs": [
        {
          "internalType": "string",
          "name": "Student_ID",
          "type": "string"
        },
        {
          "internalType": "uint256",
          "name": "Kahoot_ID",
          "type": "uint256"
        },
        {
          "internalType": "string",
          "name": "Question_ID",
          "type": "string"
        },
        {
          "internalType": "string",
          "name": "Question",
          "type": "string"
        },
        {
          "internalType": "uint256",
          "name": "Time_Allocated",
          "type": "uint256"
        },
        {
          "internalType": "uint256",
          "name": "Time_Took",
          "type": "uint256"
        },
        {
          "internalType": "uint256",
          "name": "Score",
          "type": "uint256"
        }
      ],
      "name": "addKahoot",
      "outputs": [],
      "stateMutability": "nonpayable",
      "type": "function"
    },
    {
      "inputs": [
        {
          "internalType": "string",
          "name": "Student_ID",
          "type": "string"
        },
        {
          "internalType": "string",
          "name": "Student_Full_Name",
          "type": "string"
        },
        {
          "internalType": "uint256",
          "name": "Quiz_ID",
          "type": "uint256"
        },
        {
          "internalType": "string",
          "name": "QuestioN_ID",
          "type": "string"
        },
        {
          "internalType": "string",
          "name": "QuestioN",
          "type": "string"
        },
        {
          "internalType": "string",
          "name": "Answer",
          "type": "string"
        },
        {
          "internalType": "uint256",
          "name": "Question_Possible_Points",
          "type": "uint256"
        },
        {
          "internalType": "uint256",
          "name": "Student_Manual_Points_For_This_Question",
          "type": "uint256"
        },
        {
          "internalType": "uint256",
          "name": "Student_Auto_Points_For_This_Question",
          "type": "uint256"
        }
      ],
      "name": "add_questions_scores",
      "outputs": [],
      "stateMutability": "nonpayable",
      "type": "function"
    }
  ],
  "bytecode": "0x608060405260006002556000600455600160075560016009556000600b556001600d55600060105560006012553480156200003957600080fd5b5060006200004c620002a360201b60201c565b9050806000806101000a81548173ffffffffffffffffffffffffffffffffffffffff021916908373ffffffffffffffffffffffffffffffffffffffff1602179055508073ffffffffffffffffffffffffffffffffffffffff16600073ffffffffffffffffffffffffffffffffffffffff167f8be0079c531659141344cd1fd0a4f28419497f9722a3daafe3b4186f6b6457e060405160405180910390a3506200017b6040518060400160405280600781526020017f39393939393941000000000000000000000000000000000000000000000000008152506040518060400160405280600c81526020017f746573746c656374757265720000000000000000000000000000000000000000815250738bb46862ddc73e18e0ebe52aa134f58f485f9bd0620002ab60201b60201c565b6200020c6040518060400160405280600781526020017f31323334353641000000000000000000000000000000000000000000000000008152506040518060400160405280600981526020017f746573747573657231000000000000000000000000000000000000000000000081525073455b499f929f87f3a4903f8dfbdfb82dae747d17620003aa60201b60201c565b6200029d6040518060400160405280600781526020017f31323334353642000000000000000000000000000000000000000000000000008152506040518060400160405280600981526020017f746573747573657232000000000000000000000000000000000000000000000081525073c75779394f6c50070bbe179efd57eab0ae22c431620003aa60201b60201c565b62000645565b600033905090565b60046000815480929190620002c09062000592565b9190505550604051806080016040528060045481526020018481526020018381526020018273ffffffffffffffffffffffffffffffffffffffff168152506003600060045481526020019081526020016000206000820151816000015560208201518160010190805190602001906200033b929190620004a9565b5060408201518160020190805190602001906200035a929190620004a9565b5060608201518160030160006101000a81548173ffffffffffffffffffffffffffffffffffffffff021916908373ffffffffffffffffffffffffffffffffffffffff160217905550905050505050565b60026000815480929190620003bf9062000592565b9190505550604051806080016040528060025481526020018481526020018381526020018273ffffffffffffffffffffffffffffffffffffffff168152506001600060025481526020019081526020016000206000820151816000015560208201518160010190805190602001906200043a929190620004a9565b50604082015181600201908051906020019062000459929190620004a9565b5060608201518160030160006101000a81548173ffffffffffffffffffffffffffffffffffffffff021916908373ffffffffffffffffffffffffffffffffffffffff160217905550905050505050565b828054620004b7906200060f565b90600052602060002090601f016020900481019282620004db576000855562000527565b82601f10620004f657805160ff191683800117855562000527565b8280016001018555821562000527579182015b828111156200052657825182559160200191906001019062000509565b5b5090506200053691906200053a565b5090565b5b80821115620005555760008160009055506001016200053b565b5090565b7f4e487b7100000000000000000000000000000000000000000000000000000000600052601160045260246000fd5b6000819050919050565b60006200059f8262000588565b91507fffffffffffffffffffffffffffffffffffffffffffffffffffffffffffffffff821415620005d557620005d462000559565b5b600182019050919050565b7f4e487b7100000000000000000000000000000000000000000000000000000000600052602260045260246000fd5b600060028204905060018216806200062857607f821691505b602082108114156200063f576200063e620005e0565b5b50919050565b612bb980620006556000396000f3fe608060405234801561001057600080fd5b506004361061014d5760003560e01c8063727abe9e116100c3578063d2d923c51161007c578063d2d923c5146103cd578063d5f80e3c146103e9578063dadf6ed51461041a578063dea27e0214610438578063f2fde38b14610468578063f85a0338146104845761014d565b8063727abe9e146102d45780638da5cb5b146102f25780639012f5b714610310578063930f98171461034257806396bd3f6a14610379578063b5be6c2e146103975761014d565b80632e9c41d2116101155780632e9c41d2146101fd57806330e322d01461021957806335f34232146102375780633aad0bab1461026a578063489e03081461029a578063715018a6146102ca5761014d565b806306661abd146101525780630ae099ea1461017057806310ffc2ff146101a35780631bb08484146101c15780631dd1bbe8146101df575b600080fd5b61015a6104b7565b6040516101679190611f9b565b60405180910390f35b61018a60048036038101906101859190611ff6565b6104bd565b60405161019a94939291906120bc565b60405180910390f35b6101ab610685565b6040516101b89190611f9b565b60405180910390f35b6101c961068b565b6040516101d69190611f9b565b60405180910390f35b6101e7610691565b6040516101f49190611f9b565b60405180910390f35b6102176004803603810190610212919061224b565b610697565b005b610221610ada565b60405161022e9190611f9b565b60405180910390f35b610251600480360381019061024c9190611ff6565b610ae0565b6040516102619493929190612382565b60405180910390f35b610284600480360381019061027f91906123d5565b610c40565b604051610291919061241e565b60405180910390f35b6102b460048036038101906102af9190611ff6565b610cfc565b6040516102c19190611f9b565b60405180910390f35b6102d2610d1a565b005b6102dc610e54565b6040516102e99190611f9b565b60405180910390f35b6102fa610e5a565b6040516103079190612440565b60405180910390f35b61032a60048036038101906103259190611ff6565b610e83565b6040516103399392919061245b565b60405180910390f35b61035c60048036038101906103579190611ff6565b610fbd565b6040516103709897969594939291906125ca565b60405180910390f35b610381611311565b60405161038e9190611f9b565b60405180910390f35b6103b160048036038101906103ac9190611ff6565b611317565b6040516103c497969594939291906126f3565b60405180910390f35b6103e760048036038101906103e29190612770565b611541565b005b61040360048036038101906103fe91906123d5565b611a60565b6040516104119291906128c6565b60405180910390f35b610422611baa565b60405161042f9190611f9b565b60405180910390f35b610452600480360381019061044d9190611ff6565b611bb0565b60405161045f9190611f9b565b60405180910390f35b610482600480360381019061047d9190612929565b611bce565b005b61049e60048036038101906104999190611ff6565b611d77565b6040516104ae9493929190612382565b60405180910390f35b60105481565b600f6020528060005260406000206000915090508060000180546104e090612985565b80601f016020809104026020016040519081016040528092919081815260200182805461050c90612985565b80156105595780601f1061052e57610100808354040283529160200191610559565b820191906000526020600020905b81548152906001019060200180831161053c57829003601f168201915b50505050509080600101805461056e90612985565b80601f016020809104026020016040519081016040528092919081815260200182805461059a90612985565b80156105e75780601f106105bc576101008083540402835291602001916105e7565b820191906000526020600020905b8154815290600101906020018083116105ca57829003601f168201915b5050505050908060020180546105fc90612985565b80601f016020809104026020016040519081016040528092919081815260200182805461062890612985565b80156106755780601f1061064a57610100808354040283529160200191610675565b820191906000526020600020905b81548152906001019060200180831161065857829003601f168201915b5050505050908060030154905084565b60045481565b60025481565b60095481565b61069f611ed7565b73ffffffffffffffffffffffffffffffffffffffff166106bd610e5a565b73ffffffffffffffffffffffffffffffffffffffff1614610713576040517f08c379a000000000000000000000000000000000000000000000000000000000815260040161070a90612a03565b60405180910390fd5b600b600081548092919061072690612a52565b9190505550828210801561073b575060078751145b61074457600080fd5b60006040518060200160405280898152509050600060405180602001604052808981525090506000604051806060016040528089815260200188815260200187815250905060005b600b54811015610acd576000600a600083815260200190815260200160002060010160000180546107bc90612985565b80601f01602080910402602001604051908101604052809291908181526020018280546107e890612985565b80156108355780601f1061080a57610100808354040283529160200191610835565b820191906000526020600020905b81548152906001019060200180831161081857829003601f168201915b50505050509050600a6000838152602001908152602001600020600201600001548b148015610871575080805190602001208c80519060200120145b156109a6576000600a6000848152602001908152602001600020600801549050808761089d9190612a9b565b90506040518060e00160405280600b54815260200187815260200186815260200185815260200189815260200188815260200182815250600a6000600b548152602001908152602001600020600082015181600001556020820151816001016000820151816000019080519060200190610918929190611edf565b5050506040820151816002016000820151816000015550506060820151816003016000820151816000019080519060200190610955929190611edf565b506020820151816001019080519060200190610972929190611edf565b506040820151816002015550506080820151816006015560a0820151816007015560c0820151816008015590505050610ab9565b600080876109b49190612a9b565b90506040518060e00160405280600b54815260200187815260200186815260200185815260200189815260200188815260200182815250600a6000600b548152602001908152602001600020600082015181600001556020820151816001016000820151816000019080519060200190610a2f929190611edf565b5050506040820151816002016000820151816000015550506060820151816003016000820151816000019080519060200190610a6c929190611edf565b506020820151816001019080519060200190610a89929190611edf565b506040820151816002015550506080820151816006015560a0820151816007015560c08201518160080155905050505b508080610ac590612a52565b91505061078c565b5050505050505050505050565b60075481565b6001602052806000526040600020600091509050806000015490806001018054610b0990612985565b80601f0160208091040260200160405190810160405280929190818152602001828054610b3590612985565b8015610b825780601f10610b5757610100808354040283529160200191610b82565b820191906000526020600020905b815481529060010190602001808311610b6557829003601f168201915b505050505090806002018054610b9790612985565b80601f0160208091040260200160405190810160405280929190818152602001828054610bc390612985565b8015610c105780601f10610be557610100808354040283529160200191610c10565b820191906000526020600020905b815481529060010190602001808311610bf357829003601f168201915b5050505050908060030160009054906101000a900473ffffffffffffffffffffffffffffffffffffffff16905084565b600681805160208101820180518482526020830160208501208183528095505050505050600091509050806000018054610c7990612985565b80601f0160208091040260200160405190810160405280929190818152602001828054610ca590612985565b8015610cf25780601f10610cc757610100808354040283529160200191610cf2565b820191906000526020600020905b815481529060010190602001808311610cd557829003601f168201915b5050505050905081565b60056020528060005260406000206000915090508060000154905081565b610d22611ed7565b73ffffffffffffffffffffffffffffffffffffffff16610d40610e5a565b73ffffffffffffffffffffffffffffffffffffffff1614610d96576040517f08c379a0000000000000000000000000000000000000000000000000000000008152600401610d8d90612a03565b60405180910390fd5b600073ffffffffffffffffffffffffffffffffffffffff1660008054906101000a900473ffffffffffffffffffffffffffffffffffffffff1673ffffffffffffffffffffffffffffffffffffffff167f8be0079c531659141344cd1fd0a4f28419497f9722a3daafe3b4186f6b6457e060405160405180910390a360008060006101000a81548173ffffffffffffffffffffffffffffffffffffffff021916908373ffffffffffffffffffffffffffffffffffffffff160217905550565b60125481565b60008060009054906101000a900473ffffffffffffffffffffffffffffffffffffffff16905090565b6008602052806000526040600020600091509050806000018054610ea690612985565b80601f0160208091040260200160405190810160405280929190818152602001828054610ed290612985565b8015610f1f5780601f10610ef457610100808354040283529160200191610f1f565b820191906000526020600020905b815481529060010190602001808311610f0257829003601f168201915b505050505090806001018054610f3490612985565b80601f0160208091040260200160405190810160405280929190818152602001828054610f6090612985565b8015610fad5780601f10610f8257610100808354040283529160200191610fad565b820191906000526020600020905b815481529060010190602001808311610f9057829003601f168201915b5050505050908060020154905083565b601160205280600052604060002060009150905080600001549080600101604051806020016040529081600082015481525050908060020160405180604001604052908160008201805461101090612985565b80601f016020809104026020016040519081016040528092919081815260200182805461103c90612985565b80156110895780601f1061105e57610100808354040283529160200191611089565b820191906000526020600020905b81548152906001019060200180831161106c57829003601f168201915b505050505081526020016001820180546110a290612985565b80601f01602080910402602001604051908101604052809291908181526020018280546110ce90612985565b801561111b5780601f106110f05761010080835404028352916020019161111b565b820191906000526020600020905b8154815290600101906020018083116110fe57829003601f168201915b505050505081525050908060040160405180608001604052908160008201805461114490612985565b80601f016020809104026020016040519081016040528092919081815260200182805461117090612985565b80156111bd5780601f10611192576101008083540402835291602001916111bd565b820191906000526020600020905b8154815290600101906020018083116111a057829003601f168201915b505050505081526020016001820180546111d690612985565b80601f016020809104026020016040519081016040528092919081815260200182805461120290612985565b801561124f5780601f106112245761010080835404028352916020019161124f565b820191906000526020600020905b81548152906001019060200180831161123257829003601f168201915b5050505050815260200160028201805461126890612985565b80601f016020809104026020016040519081016040528092919081815260200182805461129490612985565b80156112e15780601f106112b6576101008083540402835291602001916112e1565b820191906000526020600020905b8154815290600101906020018083116112c457829003601f168201915b505050505081526020016003820154815250509080600801549080600901549080600a01549080600b0154905088565b600b5481565b600a6020528060005260406000206000915090508060000154908060010160405180602001604052908160008201805461135090612985565b80601f016020809104026020016040519081016040528092919081815260200182805461137c90612985565b80156113c95780601f1061139e576101008083540402835291602001916113c9565b820191906000526020600020905b8154815290600101906020018083116113ac57829003601f168201915b5050505050815250509080600201604051806020016040529081600082015481525050908060030160405180606001604052908160008201805461140c90612985565b80601f016020809104026020016040519081016040528092919081815260200182805461143890612985565b80156114855780601f1061145a57610100808354040283529160200191611485565b820191906000526020600020905b81548152906001019060200180831161146857829003601f168201915b5050505050815260200160018201805461149e90612985565b80601f01602080910402602001604051908101604052809291908181526020018280546114ca90612985565b80156115175780601f106114ec57610100808354040283529160200191611517565b820191906000526020600020905b8154815290600101906020018083116114fa57829003601f168201915b50505050508152602001600282015481525050908060060154908060070154908060080154905087565b611549611ed7565b73ffffffffffffffffffffffffffffffffffffffff16611567610e5a565b73ffffffffffffffffffffffffffffffffffffffff16146115bd576040517f08c379a00000000000000000000000000000000000000000000000000000000081526004016115b490612a03565b60405180910390fd5b601060008154809291906115d090612a52565b919050555060006040518060200160405280898152509050600060405180604001604052808c81526020018b8152509050600060405180608001604052808a815260200189815260200188815260200187815250905060005b601054811015611a5157600060116000838152602001908152602001600020600201600001805461165990612985565b80601f016020809104026020016040519081016040528092919081815260200182805461168590612985565b80156116d25780601f106116a7576101008083540402835291602001916116d2565b820191906000526020600020905b8154815290600101906020018083116116b557829003601f168201915b5050505050905060116000838152602001908152602001600020600101600001548c14801561170e575080805190602001208e80519060200120145b156118c357600060116000848152602001908152602001600020600b0154905086888261173b9190612a9b565b6117459190612a9b565b9050600060116000858152602001908152602001600020600a01549050898161176e9190612a9b565b905060405180610100016040528060105481526020018881526020018781526020018681526020018a815260200189815260200182815260200183815250601160006010548152602001908152602001600020600082015181600001556020820151816001016000820151816000015550506040820151816002016000820151816000019080519060200190611805929190611edf565b506020820151816001019080519060200190611822929190611edf565b505050606082015181600401600082015181600001908051906020019061184a929190611edf565b506020820151816001019080519060200190611867929190611edf565b506040820151816002019080519060200190611884929190611edf565b506060820151816003015550506080820151816008015560a0820151816009015560c082015181600a015560e082015181600b01559050505050611a3d565b60008688826118d29190612a9b565b6118dc9190612a9b565b9050600089816118ec9190612a9b565b905060405180610100016040528060105481526020018881526020018781526020018681526020018a815260200189815260200182815260200183815250601160006010548152602001908152602001600020600082015181600001556020820151816001016000820151816000015550506040820151816002016000820151816000019080519060200190611983929190611edf565b5060208201518160010190805190602001906119a0929190611edf565b50505060608201518160040160008201518160000190805190602001906119c8929190611edf565b5060208201518160010190805190602001906119e5929190611edf565b506040820151816002019080519060200190611a02929190611edf565b506060820151816003015550506080820151816008015560a0820151816009015560c082015181600a015560e082015181600b015590505050505b508080611a4990612a52565b915050611629565b50505050505050505050505050565b600e81805160208101820180518482526020830160208501208183528095505050505050600091509050806000018054611a9990612985565b80601f0160208091040260200160405190810160405280929190818152602001828054611ac590612985565b8015611b125780601f10611ae757610100808354040283529160200191611b12565b820191906000526020600020905b815481529060010190602001808311611af557829003601f168201915b505050505090806001018054611b2790612985565b80601f0160208091040260200160405190810160405280929190818152602001828054611b5390612985565b8015611ba05780601f10611b7557610100808354040283529160200191611ba0565b820191906000526020600020905b815481529060010190602001808311611b8357829003601f168201915b5050505050905082565b600d5481565b600c6020528060005260406000206000915090508060000154905081565b611bd6611ed7565b73ffffffffffffffffffffffffffffffffffffffff16611bf4610e5a565b73ffffffffffffffffffffffffffffffffffffffff1614611c4a576040517f08c379a0000000000000000000000000000000000000000000000000000000008152600401611c4190612a03565b60405180910390fd5b600073ffffffffffffffffffffffffffffffffffffffff168173ffffffffffffffffffffffffffffffffffffffff161415611cba576040517f08c379a0000000000000000000000000000000000000000000000000000000008152600401611cb190612b63565b60405180910390fd5b8073ffffffffffffffffffffffffffffffffffffffff1660008054906101000a900473ffffffffffffffffffffffffffffffffffffffff1673ffffffffffffffffffffffffffffffffffffffff167f8be0079c531659141344cd1fd0a4f28419497f9722a3daafe3b4186f6b6457e060405160405180910390a3806000806101000a81548173ffffffffffffffffffffffffffffffffffffffff021916908373ffffffffffffffffffffffffffffffffffffffff16021790555050565b6003602052806000526040600020600091509050806000015490806001018054611da090612985565b80601f0160208091040260200160405190810160405280929190818152602001828054611dcc90612985565b8015611e195780601f10611dee57610100808354040283529160200191611e19565b820191906000526020600020905b815481529060010190602001808311611dfc57829003601f168201915b505050505090806002018054611e2e90612985565b80601f0160208091040260200160405190810160405280929190818152602001828054611e5a90612985565b8015611ea75780601f10611e7c57610100808354040283529160200191611ea7565b820191906000526020600020905b815481529060010190602001808311611e8a57829003601f168201915b5050505050908060030160009054906101000a900473ffffffffffffffffffffffffffffffffffffffff16905084565b600033905090565b828054611eeb90612985565b90600052602060002090601f016020900481019282611f0d5760008555611f54565b82601f10611f2657805160ff1916838001178555611f54565b82800160010185558215611f54579182015b82811115611f53578251825591602001919060010190611f38565b5b509050611f619190611f65565b5090565b5b80821115611f7e576000816000905550600101611f66565b5090565b6000819050919050565b611f9581611f82565b82525050565b6000602082019050611fb06000830184611f8c565b92915050565b6000604051905090565b600080fd5b600080fd5b611fd381611f82565b8114611fde57600080fd5b50565b600081359050611ff081611fca565b92915050565b60006020828403121561200c5761200b611fc0565b5b600061201a84828501611fe1565b91505092915050565b600081519050919050565b600082825260208201905092915050565b60005b8381101561205d578082015181840152602081019050612042565b8381111561206c576000848401525b50505050565b6000601f19601f8301169050919050565b600061208e82612023565b612098818561202e565b93506120a881856020860161203f565b6120b181612072565b840191505092915050565b600060808201905081810360008301526120d68187612083565b905081810360208301526120ea8186612083565b905081810360408301526120fe8185612083565b905061210d6060830184611f8c565b95945050505050565b600080fd5b600080fd5b7f4e487b7100000000000000000000000000000000000000000000000000000000600052604160045260246000fd5b61215882612072565b810181811067ffffffffffffffff8211171561217757612176612120565b5b80604052505050565b600061218a611fb6565b9050612196828261214f565b919050565b600067ffffffffffffffff8211156121b6576121b5612120565b5b6121bf82612072565b9050602081019050919050565b82818337600083830152505050565b60006121ee6121e98461219b565b612180565b90508281526020810184848401111561220a5761220961211b565b5b6122158482856121cc565b509392505050565b600082601f83011261223257612231612116565b5b81356122428482602086016121db565b91505092915050565b600080600080600080600060e0888a03121561226a57612269611fc0565b5b600088013567ffffffffffffffff81111561228857612287611fc5565b5b6122948a828b0161221d565b97505060206122a58a828b01611fe1565b965050604088013567ffffffffffffffff8111156122c6576122c5611fc5565b5b6122d28a828b0161221d565b955050606088013567ffffffffffffffff8111156122f3576122f2611fc5565b5b6122ff8a828b0161221d565b94505060806123108a828b01611fe1565b93505060a06123218a828b01611fe1565b92505060c06123328a828b01611fe1565b91505092959891949750929550565b600073ffffffffffffffffffffffffffffffffffffffff82169050919050565b600061236c82612341565b9050919050565b61237c81612361565b82525050565b60006080820190506123976000830187611f8c565b81810360208301526123a98186612083565b905081810360408301526123bd8185612083565b90506123cc6060830184612373565b95945050505050565b6000602082840312156123eb576123ea611fc0565b5b600082013567ffffffffffffffff81111561240957612408611fc5565b5b6124158482850161221d565b91505092915050565b600060208201905081810360008301526124388184612083565b905092915050565b60006020820190506124556000830184612373565b92915050565b600060608201905081810360008301526124758186612083565b905081810360208301526124898185612083565b90506124986040830184611f8c565b949350505050565b6124a981611f82565b82525050565b6020820160008201516124c560008501826124a0565b50505050565b600082825260208201905092915050565b60006124e782612023565b6124f181856124cb565b935061250181856020860161203f565b61250a81612072565b840191505092915050565b6000604083016000830151848203600086015261253282826124dc565b9150506020830151848203602086015261254c82826124dc565b9150508091505092915050565b6000608083016000830151848203600086015261257682826124dc565b9150506020830151848203602086015261259082826124dc565b915050604083015184820360408601526125aa82826124dc565b91505060608301516125bf60608601826124a0565b508091505092915050565b6000610100820190506125e0600083018b611f8c565b6125ed602083018a6124af565b81810360408301526125ff8189612515565b905081810360608301526126138188612559565b90506126226080830187611f8c565b61262f60a0830186611f8c565b61263c60c0830185611f8c565b61264960e0830184611f8c565b9998505050505050505050565b6000602083016000830151848203600086015261267382826124dc565b9150508091505092915050565b60208201600082015161269660008501826124a0565b50505050565b600060608301600083015184820360008601526126b982826124dc565b915050602083015184820360208601526126d382826124dc565b91505060408301516126e860408601826124a0565b508091505092915050565b600060e082019050612708600083018a611f8c565b818103602083015261271a8189612656565b90506127296040830188612680565b818103606083015261273b818761269c565b905061274a6080830186611f8c565b61275760a0830185611f8c565b61276460c0830184611f8c565b98975050505050505050565b60008060008060008060008060006101208a8c03121561279357612792611fc0565b5b60008a013567ffffffffffffffff8111156127b1576127b0611fc5565b5b6127bd8c828d0161221d565b99505060208a013567ffffffffffffffff8111156127de576127dd611fc5565b5b6127ea8c828d0161221d565b98505060406127fb8c828d01611fe1565b97505060608a013567ffffffffffffffff81111561281c5761281b611fc5565b5b6128288c828d0161221d565b96505060808a013567ffffffffffffffff81111561284957612848611fc5565b5b6128558c828d0161221d565b95505060a08a013567ffffffffffffffff81111561287657612875611fc5565b5b6128828c828d0161221d565b94505060c06128938c828d01611fe1565b93505060e06128a48c828d01611fe1565b9250506101006128b68c828d01611fe1565b9150509295985092959850929598565b600060408201905081810360008301526128e08185612083565b905081810360208301526128f48184612083565b90509392505050565b61290681612361565b811461291157600080fd5b50565b600081359050612923816128fd565b92915050565b60006020828403121561293f5761293e611fc0565b5b600061294d84828501612914565b91505092915050565b7f4e487b7100000000000000000000000000000000000000000000000000000000600052602260045260246000fd5b6000600282049050600182168061299d57607f821691505b602082108114156129b1576129b0612956565b5b50919050565b7f4f776e61626c653a2063616c6c6572206973206e6f7420746865206f776e6572600082015250565b60006129ed60208361202e565b91506129f8826129b7565b602082019050919050565b60006020820190508181036000830152612a1c816129e0565b9050919050565b7f4e487b7100000000000000000000000000000000000000000000000000000000600052601160045260246000fd5b6000612a5d82611f82565b91507fffffffffffffffffffffffffffffffffffffffffffffffffffffffffffffffff821415612a9057612a8f612a23565b5b600182019050919050565b6000612aa682611f82565b9150612ab183611f82565b9250827fffffffffffffffffffffffffffffffffffffffffffffffffffffffffffffffff03821115612ae657612ae5612a23565b5b828201905092915050565b7f4f776e61626c653a206e6577206f776e657220697320746865207a65726f206160008201527f6464726573730000000000000000000000000000000000000000000000000000602082015250565b6000612b4d60268361202e565b9150612b5882612af1565b604082019050919050565b60006020820190508181036000830152612b7c81612b40565b905091905056fea2646970667358221220c0026771a176e3d879fc364c29e242050cf93d3b964e9432b63f77c3232597b664736f6c634300080a0033",
  "immutableReferences": {},
  "source": "\r\n// SPDX-License-Identifier: GPL-3.0\r\npragma solidity >=0.7.0 <0.9.0;\r\n\r\nimport \"./openzeppelin-contracts-4.1.0/openzeppelin-contracts-4.1.0/contracts/access/Ownable.sol\";\r\nimport \"./openzeppelin-contracts-4.1.0/openzeppelin-contracts-4.1.0/contracts/utils/math/SafeMath.sol\";\r\n\r\ncontract fyp_contract is Ownable {\r\n\r\n    struct Lecturer {\r\n        uint _Lecturercount;\r\n        string _Lecturer_ID;\r\n        string _Lecturer_Full_Name;\r\n        address _Lecturer_Address;\r\n    }\r\n\r\n    struct Student{\r\n        uint _Studentcount;\r\n        string _Student_ID;\r\n        string _Student_Full_Name;\r\n        address _Student_Address;\r\n    }\r\n\r\n\r\n\r\n    // Kahoot\r\n    struct Kahoot_Quiz {\r\n        uint _Kahoot_ID;\r\n    }\r\n    \r\n    struct Kahoot_Student {\r\n        string _Student_ID;\r\n    }\r\n\r\n    struct Kahoot_Question {\r\n        string _Question_ID;\r\n        string _Question;\r\n        uint _Time_Allocated;\r\n    }\r\n\r\n    struct Kahoot_Overall {\r\n        uint _id1;\r\n        Kahoot_Student _kahoot_student;\r\n        Kahoot_Quiz _kahoot_quiz;\r\n        Kahoot_Question _kahoot_question;\r\n        uint _Time_Took;\r\n        uint _Score;\r\n        uint _TotalSScore;\r\n    }\r\n    \r\n    \r\n    \r\n    \r\n    // Blackboard\r\n    struct BB_Quiz {\r\n        uint _Quiz_ID;\r\n    }\r\n    \r\n    struct BB_Student {\r\n        string _Student_ID;\r\n        string _Student_Full_Name;\r\n    }\r\n\r\n    struct BB_Quiz_Questions {\r\n        string _Question_ID;\r\n        string _Question; \r\n        string _Answer;\r\n        uint _Question_Possible_Points;\r\n    }\r\n\r\n    struct BB_Question_Scores {\r\n        uint _id2;\r\n        BB_Quiz _bb_quiz;\r\n        BB_Student _bb_student;\r\n        BB_Quiz_Questions _bb_quiz_questions;\r\n        uint _Student_Manual_Points_For_This_Question;\r\n        uint _Student_Auto_Points_For_This_Question;\r\n        uint _Quiz_Possible_Points;\r\n        uint _Student_Total;\r\n        \r\n    }\r\n\r\n\r\n    //student and lecturer\r\n    mapping(uint => Student) public student;\r\n    uint public student_count = 0;\r\n    mapping(uint => Lecturer) public lecturer;\r\n    uint public lecturer_count = 0;\r\n    \r\n    // Kahoot Mappings\r\n    mapping(uint => Kahoot_Quiz) public kahoot_quiz;\r\n    \r\n    mapping(string => Kahoot_Student) public kahoot_student;\r\n    \r\n    uint public kahoot_quiz_count = 1;\r\n    mapping(uint => Kahoot_Question) public kahoot_question;\r\n    uint public kahoot_question_count = 1;\r\n    mapping(uint => Kahoot_Overall) public kahoot_overall;\r\n    uint public time_taken_count = 0;\r\n    \r\n    // Blackboard Mappings\r\n    mapping(uint => BB_Quiz) public bb_quiz;\r\n    uint public bb_quiz_count = 1;\r\n    \r\n    mapping (string => BB_Student) public bb_student;\r\n    \r\n    mapping(uint => BB_Quiz_Questions) public bb_quiz_questions;\r\n    uint public count = 0;\r\n    \r\n    mapping(uint => BB_Question_Scores) public  bb_question_scores;\r\n    uint public bb_question_count = 0;\r\n    \r\n    //uint public quiz_count = 0;\r\n    //mapping(uint => Student_Quiz_Total) public  student_quiz_total;\r\n    \r\n    \r\n    \r\n    //address public owner;\r\n    \r\n    //modifier onlyOwner() {\r\n    //    require(msg.sender == owner, 'Only owner');\r\n    //    _;\r\n    //}\r\n\r\n    \r\n    //constructor() {\r\n    //    owner = msg.sender;\r\n    //}\r\n\r\n    // access control\r\n    //function theOwner() public view returns (address) {\r\n    //    return owner;\r\n    //}\r\n    \r\n\r\n    function addstudent(string memory Student_ID, string memory Student_Full_Name, address Student_Address) internal{\r\n        student_count ++;\r\n        student[student_count] = Student(student_count,Student_ID, Student_Full_Name, Student_Address);\r\n        \r\n    }\r\n    \r\n    function addlecturer(string memory Lecturer_ID, string memory Lecturer_Full_Name, address Lecturer_Address) internal{\r\n        lecturer_count ++;\r\n        lecturer[lecturer_count] = Lecturer(lecturer_count ,Lecturer_ID, Lecturer_Full_Name,Lecturer_Address);\r\n        \r\n    }\r\n\r\n    constructor () public {\r\n        //lecturer\r\n        addlecturer(\"999999A\", \"testlecturer\",0x8BB46862Ddc73E18e0eBe52AA134F58f485f9bd0); //address change according to blockchain\r\n        \r\n        //students\r\n        addstudent(\"123456A\", \"testuser1\",0x455B499f929F87F3A4903F8DfbDFb82DAe747d17); //address change according to blockchain\r\n        addstudent(\"123456B\", \"testuser2\",0xC75779394f6C50070bBE179EfD57Eab0ae22c431); //address change according to blockchain\r\n      //  addstudent(\"123456C\", \"testuser3\");\r\n       // addstudent(\"123456D\", \"testuser4\");\r\n      //  addstudent(\"123456E\", \"testuser5\");\r\n     //   addstudent(\"123456F\", \"testuser6\");\r\n      //  addstudent(\"123456G\", \"testuser7\");\r\n      //  addstudent(\"123456H\", \"testuser8\");\r\n     //   addstudent(\"123456I\", \"testuser9\");\r\n        \r\n        //Kahoot\r\n        \r\n        //bb\r\n        \r\n    }\r\n    \r\n\r\n    \r\n\r\n    \r\n    \r\n    \r\n    \r\n    // Kahoot stuff\r\n    function addKahoot(string memory Student_ID, uint Kahoot_ID, string memory Question_ID, string memory Question, uint Time_Allocated, uint Time_Took, uint Score) public onlyOwner {\r\n      // kahoot_quiz[Kahoot_ID] = Kahoot_Quiz(Kahoot_ID,Question_ID, Question, Time_Allocated, Score_Allocated);\r\n       //student[Student_ID] = Student(Student_ID, Student_Full_Name);\r\n\r\n       time_taken_count ++;\r\n       \r\n       require(Time_Took < Time_Allocated && bytes(Student_ID).length == 7);\r\n       \r\n       fyp_contract.Kahoot_Student memory newstudent = Kahoot_Student(Student_ID);\r\n       fyp_contract.Kahoot_Quiz memory newkahootquiz = Kahoot_Quiz(Kahoot_ID);\r\n       fyp_contract.Kahoot_Question memory newkahootquestion = Kahoot_Question(Question_ID, Question, Time_Allocated);\r\n       \r\n       \r\n       for(uint a = 0; a < time_taken_count; a ++){\r\n        \r\n        string memory Student_ID_encodeK = kahoot_overall[a]._kahoot_student._Student_ID;\r\n\r\n        if (Kahoot_ID == kahoot_overall[a]._kahoot_quiz._Kahoot_ID && keccak256(bytes(Student_ID)) == keccak256(bytes(Student_ID_encodeK))) {\r\n           \r\n           uint TotalSScore = kahoot_overall[a]._TotalSScore;\r\n           TotalSScore = Score + TotalSScore;\r\n           \r\n           kahoot_overall[time_taken_count] = Kahoot_Overall(time_taken_count, newstudent, newkahootquiz, newkahootquestion, Time_Took, Score, TotalSScore); \r\n       \r\n           }   \r\n               \r\n        else {\r\n           uint TotalSScore = 0;\r\n           \r\n           TotalSScore = Score + TotalSScore;           \r\n           \r\n           kahoot_overall[time_taken_count] = Kahoot_Overall(time_taken_count, newstudent, newkahootquiz, newkahootquestion, Time_Took, Score, TotalSScore); \r\n           }\r\n           \r\n       }\r\n    }\r\n    \r\n    \r\n    // Blackboard stuff\r\n    function add_questions_scores(string memory Student_ID, string memory Student_Full_Name, uint Quiz_ID , string memory QuestioN_ID, string memory QuestioN, string memory Answer, uint Question_Possible_Points, uint Student_Manual_Points_For_This_Question, uint Student_Auto_Points_For_This_Question) public onlyOwner {\r\n\r\n\r\n       count ++;\r\n\r\n       fyp_contract.BB_Quiz memory newquiz = BB_Quiz(Quiz_ID);\r\n       fyp_contract.BB_Student memory newstudent = BB_Student(Student_ID, Student_Full_Name);\r\n       fyp_contract.BB_Quiz_Questions memory newquestion = BB_Quiz_Questions(QuestioN_ID, QuestioN, Answer, Question_Possible_Points);\r\n\r\n       for(uint i = 0; i < count; i ++){\r\n        \r\n        string memory Student_ID_encode = bb_question_scores[i]._bb_student._Student_ID;\r\n           \r\n        if (Quiz_ID == bb_question_scores[i]._bb_quiz._Quiz_ID && keccak256(bytes(Student_ID)) == keccak256(bytes(Student_ID_encode))) {\r\n           uint Student_Total = bb_question_scores[i]._Student_Total;\r\n           Student_Total = ( Student_Total + Student_Manual_Points_For_This_Question + Student_Auto_Points_For_This_Question);\r\n           \r\n           uint Quiz_Possible_Points = bb_question_scores[i]._Quiz_Possible_Points;\r\n           Quiz_Possible_Points = (Quiz_Possible_Points + Question_Possible_Points);\r\n           \r\n           bb_question_scores[count] = BB_Question_Scores(count, newquiz, newstudent, newquestion, Student_Manual_Points_For_This_Question, Student_Auto_Points_For_This_Question, Quiz_Possible_Points,Student_Total); \r\n       }\r\n       else{\r\n           uint Student_Total = 0;\r\n           Student_Total = ( Student_Total + Student_Manual_Points_For_This_Question + Student_Auto_Points_For_This_Question);\r\n           \r\n           uint Quiz_Possible_Points = 0;\r\n           Quiz_Possible_Points = (Quiz_Possible_Points + Question_Possible_Points);\r\n           \r\n            bb_question_scores[count] = BB_Question_Scores(count, newquiz, newstudent, newquestion, Student_Manual_Points_For_This_Question, Student_Auto_Points_For_This_Question, Quiz_Possible_Points, Student_Total); \r\n       }\r\n           \r\n       }\r\n    }\r\n\r\n\r\n    \r\n\r\n\r\n}",
  "sourcePath": "D:\\FYP\\FYP\\Dapp\\src\\contracts\\fyp_contract.sol",
  "compiler": {
    "name": "solc",
    "version": "0.8.10+commit.fc410830.Emscripten.clang"
  },
  "schemaVersion": "3.4.3",
  "updatedAt": "2021-11-25T02:45:08.332Z",
  "networkType": "ethereum",
  "devdoc": {
    "kind": "dev",
    "methods": {
      "owner()": {
        "details": "Returns the address of the current owner."
      },
      "renounceOwnership()": {
        "details": "Leaves the contract without owner. It will not be possible to call `onlyOwner` functions anymore. Can only be called by the current owner. NOTE: Renouncing ownership will leave the contract without an owner, thereby removing any functionality that is only available to the owner."
      },
      "transferOwnership(address)": {
        "details": "Transfers ownership of the contract to a new account (`newOwner`). Can only be called by the current owner."
      }
    },
    "version": 1
  },
  "userdoc": {
    "kind": "user",
    "methods": {},
    "version": 1
  }
}