{
  "contractName": "MigratableMockV3",
  "abi": [
    {
      "inputs": [
        {
          "internalType": "uint256",
          "name": "value",
          "type": "uint256"
        }
      ],
      "name": "initialize",
      "outputs": [],
      "stateMutability": "payable",
      "type": "function"
    },
    {
      "inputs": [],
      "name": "x",
      "outputs": [
        {
          "internalType": "uint256",
          "name": "",
          "type": "uint256"
        }
      ],
      "stateMutability": "view",
      "type": "function"
    },
    {
      "inputs": [],
      "name": "y",
      "outputs": [
        {
          "internalType": "uint256",
          "name": "",
          "type": "uint256"
        }
      ],
      "stateMutability": "view",
      "type": "function"
    },
    {
      "inputs": [
        {
          "internalType": "uint256",
          "name": "value",
          "type": "uint256"
        },
        {
          "internalType": "uint256",
          "name": "anotherValue",
          "type": "uint256"
        }
      ],
      "name": "migrate",
      "outputs": [],
      "stateMutability": "payable",
      "type": "function"
    },
    {
      "inputs": [],
      "name": "migrate",
      "outputs": [],
      "stateMutability": "payable",
      "type": "function"
    }
  ],
  "bytecode": "0x608060405234801561001057600080fd5b50610415806100206000396000f3fe60806040526004361061004a5760003560e01c80630c55699c1461004f5780633e54bacb1461007a5780638fd3ab8014610096578063a56dfe4a146100a0578063fe4b84df146100cb575b600080fd5b34801561005b57600080fd5b506100646100e7565b6040516100719190610283565b60405180910390f35b610094600480360381019061008f91906102cf565b6100ed565b005b61009e610134565b005b3480156100ac57600080fd5b506100b5610183565b6040516100c29190610283565b60405180910390f35b6100e560048036038101906100e0919061030f565b610189565b005b60015481565b600260009054906101000a900460ff161561010757600080fd5b81600181905550806003819055506001600260006101000a81548160ff0219169083151502179055505050565b600460009054906101000a900460ff161561014e57600080fd5b60006001549050600354600181905550806003819055506001600460006101000a81548160ff02191690831515021790555050565b60035481565b600060019054906101000a900460ff16806101af575060008054906101000a900460ff16155b6101ee576040517f08c379a00000000000000000000000000000000000000000000000000000000081526004016101e5906103bf565b60405180910390fd5b60008060019054906101000a900460ff16159050801561023e576001600060016101000a81548160ff02191690831515021790555060016000806101000a81548160ff0219169083151502179055505b8160018190555080156102665760008060016101000a81548160ff0219169083151502179055505b5050565b6000819050919050565b61027d8161026a565b82525050565b60006020820190506102986000830184610274565b92915050565b600080fd5b6102ac8161026a565b81146102b757600080fd5b50565b6000813590506102c9816102a3565b92915050565b600080604083850312156102e6576102e561029e565b5b60006102f4858286016102ba565b9250506020610305858286016102ba565b9150509250929050565b6000602082840312156103255761032461029e565b5b6000610333848285016102ba565b91505092915050565b600082825260208201905092915050565b7f496e697469616c697a61626c653a20636f6e747261637420697320616c72656160008201527f647920696e697469616c697a6564000000000000000000000000000000000000602082015250565b60006103a9602e8361033c565b91506103b48261034d565b604082019050919050565b600060208201905081810360008301526103d88161039c565b905091905056fea264697066735822122061a48c72b48fd608aa3b4b18464b6e59b944395735c9525f9325fb8d389c155a64736f6c634300080a0033",
  "immutableReferences": {},
  "source": "// SPDX-License-Identifier: MIT\n\npragma solidity ^0.8.0;\n\nimport \"../proxy/utils/Initializable.sol\";\n\n/**\n * @title MigratableMockV1\n * @dev This contract is a mock to test initializable functionality through migrations\n */\ncontract MigratableMockV1 is Initializable {\n  uint256 public x;\n\n  function initialize(uint256 value) public payable initializer {\n    x = value;\n  }\n}\n\n/**\n * @title MigratableMockV2\n * @dev This contract is a mock to test migratable functionality with params\n */\ncontract MigratableMockV2 is MigratableMockV1 {\n  bool internal _migratedV2;\n  uint256 public y;\n\n  function migrate(uint256 value, uint256 anotherValue) public payable {\n    require(!_migratedV2);\n    x = value;\n    y = anotherValue;\n    _migratedV2 = true;\n  }\n}\n\n/**\n * @title MigratableMockV3\n * @dev This contract is a mock to test migratable functionality without params\n */\ncontract MigratableMockV3 is MigratableMockV2 {\n  bool internal _migratedV3;\n\n  function migrate() public payable {\n    require(!_migratedV3);\n    uint256 oldX = x;\n    x = y;\n    y = oldX;\n    _migratedV3 = true;\n  }\n}\n",
  "sourcePath": "D:\\FYP\\FYP\\Dapp\\src\\contracts\\openzeppelin-contracts-4.1.0\\openzeppelin-contracts-4.1.0\\contracts\\mocks\\SingleInheritanceInitializableMocks.sol",
  "compiler": {
    "name": "solc",
    "version": "0.8.10+commit.fc410830.Emscripten.clang"
  },
  "schemaVersion": "3.4.3",
  "updatedAt": "2021-11-25T02:44:55.629Z",
  "devdoc": {
    "details": "This contract is a mock to test migratable functionality without params",
    "kind": "dev",
    "methods": {},
    "title": "MigratableMockV3",
    "version": 1
  },
  "userdoc": {
    "kind": "user",
    "methods": {},
    "version": 1
  }
}