{
  "contractName": "MulticallTest",
  "abi": [
    {
      "inputs": [
        {
          "internalType": "contract MulticallTokenMock",
          "name": "multicallToken",
          "type": "address"
        },
        {
          "internalType": "address[]",
          "name": "recipients",
          "type": "address[]"
        },
        {
          "internalType": "uint256[]",
          "name": "amounts",
          "type": "uint256[]"
        }
      ],
      "name": "testReturnValues",
      "outputs": [],
      "stateMutability": "nonpayable",
      "type": "function"
    }
  ],
  "bytecode": "0x608060405234801561001057600080fd5b50610a1e806100206000396000f3fe608060405234801561001057600080fd5b506004361061002b5760003560e01c8063bc548f7614610030575b600080fd5b61004a600480360381019061004591906103d5565b61004c565b005b60008484905067ffffffffffffffff81111561006b5761006a61046a565b5b60405190808252806020026020018201604052801561009e57816020015b60608152602001906001900390816100895790505b50905060005b858590508110156101b0578585828181106100c2576100c1610499565b5b90506020020160208101906100d791906104f4565b8484838181106100ea576100e9610499565b5b90506020020135604051602401610102929190610549565b6040516020818303038152906040527fa9059cbb000000000000000000000000000000000000000000000000000000007bffffffffffffffffffffffffffffffffffffffffffffffffffffffff19166020820180517bffffffffffffffffffffffffffffffffffffffffffffffffffffffff838183161783525050505082828151811061019257610191610499565b5b602002602001018190525080806101a8906105a1565b9150506100a4565b5060008673ffffffffffffffffffffffffffffffffffffffff1663ac9650d8836040518263ffffffff1660e01b81526004016101ec9190610745565b6000604051808303816000875af115801561020b573d6000803e3d6000fd5b505050506040513d6000823e3d601f19601f82011682018060405250810190610234919061093a565b905060005b815181101561028c5781818151811061025557610254610499565b5b602002602001015180602001905181019061027091906109bb565b61027957600080fd5b8080610284906105a1565b915050610239565b5050505050505050565b6000604051905090565b600080fd5b600080fd5b600073ffffffffffffffffffffffffffffffffffffffff82169050919050565b60006102d5826102aa565b9050919050565b60006102e7826102ca565b9050919050565b6102f7816102dc565b811461030257600080fd5b50565b600081359050610314816102ee565b92915050565b600080fd5b600080fd5b600080fd5b60008083601f84011261033f5761033e61031a565b5b8235905067ffffffffffffffff81111561035c5761035b61031f565b5b60208301915083602082028301111561037857610377610324565b5b9250929050565b60008083601f8401126103955761039461031a565b5b8235905067ffffffffffffffff8111156103b2576103b161031f565b5b6020830191508360208202830111156103ce576103cd610324565b5b9250929050565b6000806000806000606086880312156103f1576103f06102a0565b5b60006103ff88828901610305565b955050602086013567ffffffffffffffff8111156104205761041f6102a5565b5b61042c88828901610329565b9450945050604086013567ffffffffffffffff81111561044f5761044e6102a5565b5b61045b8882890161037f565b92509250509295509295909350565b7f4e487b7100000000000000000000000000000000000000000000000000000000600052604160045260246000fd5b7f4e487b7100000000000000000000000000000000000000000000000000000000600052603260045260246000fd5b6104d1816102ca565b81146104dc57600080fd5b50565b6000813590506104ee816104c8565b92915050565b60006020828403121561050a576105096102a0565b5b6000610518848285016104df565b91505092915050565b61052a816102ca565b82525050565b6000819050919050565b61054381610530565b82525050565b600060408201905061055e6000830185610521565b61056b602083018461053a565b9392505050565b7f4e487b7100000000000000000000000000000000000000000000000000000000600052601160045260246000fd5b60006105ac82610530565b91507fffffffffffffffffffffffffffffffffffffffffffffffffffffffffffffffff8214156105df576105de610572565b5b600182019050919050565b600081519050919050565b600082825260208201905092915050565b6000819050602082019050919050565b600081519050919050565b600082825260208201905092915050565b60005b83811015610650578082015181840152602081019050610635565b8381111561065f576000848401525b50505050565b6000601f19601f8301169050919050565b600061068182610616565b61068b8185610621565b935061069b818560208601610632565b6106a481610665565b840191505092915050565b60006106bb8383610676565b905092915050565b6000602082019050919050565b60006106db826105ea565b6106e581856105f5565b9350836020820285016106f785610606565b8060005b85811015610733578484038952815161071485826106af565b945061071f836106c3565b925060208a019950506001810190506106fb565b50829750879550505050505092915050565b6000602082019050818103600083015261075f81846106d0565b905092915050565b61077082610665565b810181811067ffffffffffffffff8211171561078f5761078e61046a565b5b80604052505050565b60006107a2610296565b90506107ae8282610767565b919050565b600067ffffffffffffffff8211156107ce576107cd61046a565b5b602082029050602081019050919050565b600080fd5b600067ffffffffffffffff8211156107ff576107fe61046a565b5b61080882610665565b9050602081019050919050565b6000610828610823846107e4565b610798565b905082815260208101848484011115610844576108436107df565b5b61084f848285610632565b509392505050565b600082601f83011261086c5761086b61031a565b5b815161087c848260208601610815565b91505092915050565b6000610898610893846107b3565b610798565b905080838252602082019050602084028301858111156108bb576108ba610324565b5b835b8181101561090257805167ffffffffffffffff8111156108e0576108df61031a565b5b8086016108ed8982610857565b855260208501945050506020810190506108bd565b5050509392505050565b600082601f8301126109215761092061031a565b5b8151610931848260208601610885565b91505092915050565b6000602082840312156109505761094f6102a0565b5b600082015167ffffffffffffffff81111561096e5761096d6102a5565b5b61097a8482850161090c565b91505092915050565b60008115159050919050565b61099881610983565b81146109a357600080fd5b50565b6000815190506109b58161098f565b92915050565b6000602082840312156109d1576109d06102a0565b5b60006109df848285016109a6565b9150509291505056fea2646970667358221220dd13d6fc6ec20439efe439c10a9288c64cbe017df546caef4e7ceb232bbc1fbd64736f6c634300080a0033",
  "immutableReferences": {},
  "source": "// SPDX-License-Identifier: MIT\n\npragma solidity ^0.8.0;\n\nimport \"./MulticallTokenMock.sol\";\n\ncontract MulticallTest {\n    function testReturnValues(MulticallTokenMock multicallToken, address[] calldata recipients, uint256[] calldata amounts) external {\n        bytes[] memory calls = new bytes[](recipients.length);\n        for (uint i = 0; i < recipients.length; i++) {\n            calls[i] = abi.encodeWithSignature(\"transfer(address,uint256)\", recipients[i], amounts[i]);\n        }\n\n        bytes[] memory results = multicallToken.multicall(calls);\n        for (uint i = 0; i < results.length; i++) {\n            require(abi.decode(results[i], (bool)));\n        }\n    }\n}\n",
  "sourcePath": "D:\\FYP\\FYP\\Dapp\\src\\contracts\\openzeppelin-contracts-4.1.0\\openzeppelin-contracts-4.1.0\\contracts\\mocks\\MulticallTest.sol",
  "compiler": {
    "name": "solc",
    "version": "0.8.10+commit.fc410830.Emscripten.clang"
  },
  "schemaVersion": "3.4.3",
  "updatedAt": "2021-11-25T02:44:55.331Z",
  "devdoc": {
    "kind": "dev",
    "methods": {},
    "version": 1
  },
  "userdoc": {
    "kind": "user",
    "methods": {},
    "version": 1
  }
}