{
  "contractName": "SafeCastMock",
  "abi": [
    {
      "inputs": [
        {
          "internalType": "int256",
          "name": "a",
          "type": "int256"
        }
      ],
      "name": "toUint256",
      "outputs": [
        {
          "internalType": "uint256",
          "name": "",
          "type": "uint256"
        }
      ],
      "stateMutability": "pure",
      "type": "function"
    },
    {
      "inputs": [
        {
          "internalType": "uint256",
          "name": "a",
          "type": "uint256"
        }
      ],
      "name": "toInt256",
      "outputs": [
        {
          "internalType": "int256",
          "name": "",
          "type": "int256"
        }
      ],
      "stateMutability": "pure",
      "type": "function"
    },
    {
      "inputs": [
        {
          "internalType": "uint256",
          "name": "a",
          "type": "uint256"
        }
      ],
      "name": "toUint128",
      "outputs": [
        {
          "internalType": "uint128",
          "name": "",
          "type": "uint128"
        }
      ],
      "stateMutability": "pure",
      "type": "function"
    },
    {
      "inputs": [
        {
          "internalType": "uint256",
          "name": "a",
          "type": "uint256"
        }
      ],
      "name": "toUint64",
      "outputs": [
        {
          "internalType": "uint64",
          "name": "",
          "type": "uint64"
        }
      ],
      "stateMutability": "pure",
      "type": "function"
    },
    {
      "inputs": [
        {
          "internalType": "uint256",
          "name": "a",
          "type": "uint256"
        }
      ],
      "name": "toUint32",
      "outputs": [
        {
          "internalType": "uint32",
          "name": "",
          "type": "uint32"
        }
      ],
      "stateMutability": "pure",
      "type": "function"
    },
    {
      "inputs": [
        {
          "internalType": "uint256",
          "name": "a",
          "type": "uint256"
        }
      ],
      "name": "toUint16",
      "outputs": [
        {
          "internalType": "uint16",
          "name": "",
          "type": "uint16"
        }
      ],
      "stateMutability": "pure",
      "type": "function"
    },
    {
      "inputs": [
        {
          "internalType": "uint256",
          "name": "a",
          "type": "uint256"
        }
      ],
      "name": "toUint8",
      "outputs": [
        {
          "internalType": "uint8",
          "name": "",
          "type": "uint8"
        }
      ],
      "stateMutability": "pure",
      "type": "function"
    },
    {
      "inputs": [
        {
          "internalType": "int256",
          "name": "a",
          "type": "int256"
        }
      ],
      "name": "toInt128",
      "outputs": [
        {
          "internalType": "int128",
          "name": "",
          "type": "int128"
        }
      ],
      "stateMutability": "pure",
      "type": "function"
    },
    {
      "inputs": [
        {
          "internalType": "int256",
          "name": "a",
          "type": "int256"
        }
      ],
      "name": "toInt64",
      "outputs": [
        {
          "internalType": "int64",
          "name": "",
          "type": "int64"
        }
      ],
      "stateMutability": "pure",
      "type": "function"
    },
    {
      "inputs": [
        {
          "internalType": "int256",
          "name": "a",
          "type": "int256"
        }
      ],
      "name": "toInt32",
      "outputs": [
        {
          "internalType": "int32",
          "name": "",
          "type": "int32"
        }
      ],
      "stateMutability": "pure",
      "type": "function"
    },
    {
      "inputs": [
        {
          "internalType": "int256",
          "name": "a",
          "type": "int256"
        }
      ],
      "name": "toInt16",
      "outputs": [
        {
          "internalType": "int16",
          "name": "",
          "type": "int16"
        }
      ],
      "stateMutability": "pure",
      "type": "function"
    },
    {
      "inputs": [
        {
          "internalType": "int256",
          "name": "a",
          "type": "int256"
        }
      ],
      "name": "toInt8",
      "outputs": [
        {
          "internalType": "int8",
          "name": "",
          "type": "int8"
        }
      ],
      "stateMutability": "pure",
      "type": "function"
    }
  ],
  "bytecode": "0x608060405234801561001057600080fd5b5061101f806100206000396000f3fe608060405234801561001057600080fd5b50600436106100b45760003560e01c8063cf65b4d311610071578063cf65b4d3146101d9578063d6bd32aa14610209578063dd2a031614610239578063dfbe873b14610269578063f136dc0214610299578063fdcf791b146102c9576100b4565b80630cc4681e146100b95780632665fad0146100e9578063809fdd33146101195780639374068f146101495780639c6f59be14610179578063c8193255146101a9575b600080fd5b6100d360048036038101906100ce91906108dc565b6102f9565b6040516100e09190610925565b60405180910390f35b61010360048036038101906100fe91906108dc565b61030b565b6040516101109190610963565b60405180910390f35b610133600480360381019061012e91906108dc565b61031d565b60405161014091906109a9565b60405180910390f35b610163600480360381019061015e91906108dc565b61032f565b60405161017091906109e1565b60405180910390f35b610193600480360381019061018e9190610a32565b610341565b6040516101a09190610a7b565b60405180910390f35b6101c360048036038101906101be91906108dc565b610353565b6040516101d09190610ab5565b60405180910390f35b6101f360048036038101906101ee9190610a32565b610365565b6040516102009190610aec565b60405180910390f35b610223600480360381019061021e9190610a32565b610377565b6040516102309190610b23565b60405180910390f35b610253600480360381019061024e9190610a32565b610389565b6040516102609190610b5a565b60405180910390f35b610283600480360381019061027e91906108dc565b61039b565b6040516102909190610b84565b60405180910390f35b6102b360048036038101906102ae9190610a32565b6103ad565b6040516102c09190610bbb565b60405180910390f35b6102e360048036038101906102de9190610a32565b6103bf565b6040516102f09190610be5565b60405180910390f35b6000610304826103d1565b9050919050565b60006103168261041f565b9050919050565b600061032882610474565b9050919050565b600061033a826104d1565b9050919050565b600061034c82610520565b9050919050565b600061035e8261059c565b9050919050565b6000610370826105ed565b9050919050565b600061038282610667565b9050919050565b6000610394826106e7565b9050919050565b60006103a68261076f565b9050919050565b60006103b8826107db565b9050919050565b60006103ca82610854565b9050919050565b60006101008210610417576040517f08c379a000000000000000000000000000000000000000000000000000000000815260040161040e90610c83565b60405180910390fd5b819050919050565b600068010000000000000000821061046c576040517f08c379a000000000000000000000000000000000000000000000000000000000815260040161046390610d15565b60405180910390fd5b819050919050565b600070010000000000000000000000000000000082106104c9576040517f08c379a00000000000000000000000000000000000000000000000000000000081526004016104c090610da7565b60405180910390fd5b819050919050565b6000620100008210610518576040517f08c379a000000000000000000000000000000000000000000000000000000000815260040161050f90610e39565b60405180910390fd5b819050919050565b60007fffffffffffffffffffffffffffffffffffffffffffffffffffffffff8000000082121580156105555750638000000082125b610594576040517f08c379a000000000000000000000000000000000000000000000000000000000815260040161058b90610ecb565b60405180910390fd5b819050919050565b600064010000000082106105e5576040517f08c379a00000000000000000000000000000000000000000000000000000000081526004016105dc90610ecb565b60405180910390fd5b819050919050565b60007fffffffffffffffffffffffffffffffffffffffffffffffffffffffffffff80008212158015610620575061800082125b61065f576040517f08c379a000000000000000000000000000000000000000000000000000000000815260040161065690610e39565b60405180910390fd5b819050919050565b60007fffffffffffffffffffffffffffffffffffffffffffffffff800000000000000082121580156106a0575067800000000000000082125b6106df576040517f08c379a00000000000000000000000000000000000000000000000000000000081526004016106d690610d15565b60405180910390fd5b819050919050565b60007fffffffffffffffffffffffffffffffff80000000000000000000000000000000821215801561072857506f8000000000000000000000000000000082125b610767576040517f08c379a000000000000000000000000000000000000000000000000000000000815260040161075e90610da7565b60405180910390fd5b819050919050565b60007f800000000000000000000000000000000000000000000000000000000000000082106107d3576040517f08c379a00000000000000000000000000000000000000000000000000000000081526004016107ca90610f5d565b60405180910390fd5b819050919050565b60007fffffffffffffffffffffffffffffffffffffffffffffffffffffffffffffff80821215801561080d5750608082125b61084c576040517f08c379a000000000000000000000000000000000000000000000000000000000815260040161084390610c83565b60405180910390fd5b819050919050565b600080821215610899576040517f08c379a000000000000000000000000000000000000000000000000000000000815260040161089090610fc9565b60405180910390fd5b819050919050565b600080fd5b6000819050919050565b6108b9816108a6565b81146108c457600080fd5b50565b6000813590506108d6816108b0565b92915050565b6000602082840312156108f2576108f16108a1565b5b6000610900848285016108c7565b91505092915050565b600060ff82169050919050565b61091f81610909565b82525050565b600060208201905061093a6000830184610916565b92915050565b600067ffffffffffffffff82169050919050565b61095d81610940565b82525050565b60006020820190506109786000830184610954565b92915050565b60006fffffffffffffffffffffffffffffffff82169050919050565b6109a38161097e565b82525050565b60006020820190506109be600083018461099a565b92915050565b600061ffff82169050919050565b6109db816109c4565b82525050565b60006020820190506109f660008301846109d2565b92915050565b6000819050919050565b610a0f816109fc565b8114610a1a57600080fd5b50565b600081359050610a2c81610a06565b92915050565b600060208284031215610a4857610a476108a1565b5b6000610a5684828501610a1d565b91505092915050565b60008160030b9050919050565b610a7581610a5f565b82525050565b6000602082019050610a906000830184610a6c565b92915050565b600063ffffffff82169050919050565b610aaf81610a96565b82525050565b6000602082019050610aca6000830184610aa6565b92915050565b60008160010b9050919050565b610ae681610ad0565b82525050565b6000602082019050610b016000830184610add565b92915050565b60008160070b9050919050565b610b1d81610b07565b82525050565b6000602082019050610b386000830184610b14565b92915050565b600081600f0b9050919050565b610b5481610b3e565b82525050565b6000602082019050610b6f6000830184610b4b565b92915050565b610b7e816109fc565b82525050565b6000602082019050610b996000830184610b75565b92915050565b60008160000b9050919050565b610bb581610b9f565b82525050565b6000602082019050610bd06000830184610bac565b92915050565b610bdf816108a6565b82525050565b6000602082019050610bfa6000830184610bd6565b92915050565b600082825260208201905092915050565b7f53616665436173743a2076616c756520646f65736e27742066697420696e203860008201527f2062697473000000000000000000000000000000000000000000000000000000602082015250565b6000610c6d602583610c00565b9150610c7882610c11565b604082019050919050565b60006020820190508181036000830152610c9c81610c60565b9050919050565b7f53616665436173743a2076616c756520646f65736e27742066697420696e203660008201527f3420626974730000000000000000000000000000000000000000000000000000602082015250565b6000610cff602683610c00565b9150610d0a82610ca3565b604082019050919050565b60006020820190508181036000830152610d2e81610cf2565b9050919050565b7f53616665436173743a2076616c756520646f65736e27742066697420696e203160008201527f3238206269747300000000000000000000000000000000000000000000000000602082015250565b6000610d91602783610c00565b9150610d9c82610d35565b604082019050919050565b60006020820190508181036000830152610dc081610d84565b9050919050565b7f53616665436173743a2076616c756520646f65736e27742066697420696e203160008201527f3620626974730000000000000000000000000000000000000000000000000000602082015250565b6000610e23602683610c00565b9150610e2e82610dc7565b604082019050919050565b60006020820190508181036000830152610e5281610e16565b9050919050565b7f53616665436173743a2076616c756520646f65736e27742066697420696e203360008201527f3220626974730000000000000000000000000000000000000000000000000000602082015250565b6000610eb5602683610c00565b9150610ec082610e59565b604082019050919050565b60006020820190508181036000830152610ee481610ea8565b9050919050565b7f53616665436173743a2076616c756520646f65736e27742066697420696e206160008201527f6e20696e74323536000000000000000000000000000000000000000000000000602082015250565b6000610f47602883610c00565b9150610f5282610eeb565b604082019050919050565b60006020820190508181036000830152610f7681610f3a565b9050919050565b7f53616665436173743a2076616c7565206d75737420626520706f736974697665600082015250565b6000610fb3602083610c00565b9150610fbe82610f7d565b602082019050919050565b60006020820190508181036000830152610fe281610fa6565b905091905056fea26469706673582212201bc1e91818617ed472d9b3eb10da4b4bf2ce74a04543fd609c16708a809d7bfa64736f6c634300080a0033",
  "immutableReferences": {},
  "source": "// SPDX-License-Identifier: MIT\n\npragma solidity ^0.8.0;\n\nimport \"../utils/math/SafeCast.sol\";\n\ncontract SafeCastMock {\n    using SafeCast for uint;\n    using SafeCast for int;\n\n    function toUint256(int a) public pure returns (uint256) {\n        return a.toUint256();\n    }\n\n    function toInt256(uint a) public pure returns (int256) {\n        return a.toInt256();\n    }\n\n    function toUint128(uint a) public pure returns (uint128) {\n        return a.toUint128();\n    }\n\n    function toUint64(uint a) public pure returns (uint64) {\n        return a.toUint64();\n    }\n\n    function toUint32(uint a) public pure returns (uint32) {\n        return a.toUint32();\n    }\n\n    function toUint16(uint a) public pure returns (uint16) {\n        return a.toUint16();\n    }\n\n    function toUint8(uint a) public pure returns (uint8) {\n        return a.toUint8();\n    }\n\n    function toInt128(int a) public pure returns (int128) {\n        return a.toInt128();\n    }\n\n    function toInt64(int a) public pure returns (int64) {\n        return a.toInt64();\n    }\n\n    function toInt32(int a) public pure returns (int32) {\n        return a.toInt32();\n    }\n\n    function toInt16(int a) public pure returns (int16) {\n        return a.toInt16();\n    }\n\n    function toInt8(int a) public pure returns (int8) {\n        return a.toInt8();\n    }\n}\n",
  "sourcePath": "D:\\FYP\\FYP\\Dapp\\src\\contracts\\openzeppelin-contracts-4.1.0\\openzeppelin-contracts-4.1.0\\contracts\\mocks\\SafeCastMock.sol",
  "compiler": {
    "name": "solc",
    "version": "0.8.10+commit.fc410830.Emscripten.clang"
  },
  "schemaVersion": "3.4.3",
  "updatedAt": "2021-11-25T02:44:55.405Z",
  "devdoc": {
    "kind": "dev",
    "methods": {},
    "version": 1
  },
  "userdoc": {
    "kind": "user",
    "methods": {},
    "version": 1
  }
}