{
  "contractName": "SampleChild",
  "abi": [
    {
      "inputs": [],
      "name": "child",
      "outputs": [
        {
          "internalType": "uint256",
          "name": "",
          "type": "uint256"
        }
      ],
      "stateMutability": "view",
      "type": "function"
    },
    {
      "inputs": [],
      "name": "father",
      "outputs": [
        {
          "internalType": "uint256",
          "name": "",
          "type": "uint256"
        }
      ],
      "stateMutability": "view",
      "type": "function"
    },
    {
      "inputs": [],
      "name": "gramps",
      "outputs": [
        {
          "internalType": "string",
          "name": "",
          "type": "string"
        }
      ],
      "stateMutability": "view",
      "type": "function"
    },
    {
      "inputs": [],
      "name": "isHuman",
      "outputs": [
        {
          "internalType": "bool",
          "name": "",
          "type": "bool"
        }
      ],
      "stateMutability": "view",
      "type": "function"
    },
    {
      "inputs": [],
      "name": "mother",
      "outputs": [
        {
          "internalType": "uint256",
          "name": "",
          "type": "uint256"
        }
      ],
      "stateMutability": "view",
      "type": "function"
    },
    {
      "inputs": [
        {
          "internalType": "uint256",
          "name": "_mother",
          "type": "uint256"
        },
        {
          "internalType": "string",
          "name": "_gramps",
          "type": "string"
        },
        {
          "internalType": "uint256",
          "name": "_father",
          "type": "uint256"
        },
        {
          "internalType": "uint256",
          "name": "_child",
          "type": "uint256"
        }
      ],
      "name": "initialize",
      "outputs": [],
      "stateMutability": "nonpayable",
      "type": "function"
    },
    {
      "inputs": [],
      "name": "initialize",
      "outputs": [],
      "stateMutability": "nonpayable",
      "type": "function"
    },
    {
      "inputs": [
        {
          "internalType": "string",
          "name": "_gramps",
          "type": "string"
        },
        {
          "internalType": "uint256",
          "name": "_father",
          "type": "uint256"
        }
      ],
      "name": "initialize",
      "outputs": [],
      "stateMutability": "nonpayable",
      "type": "function"
    },
    {
      "inputs": [
        {
          "internalType": "string",
          "name": "value",
          "type": "string"
        }
      ],
      "name": "initialize",
      "outputs": [],
      "stateMutability": "nonpayable",
      "type": "function"
    },
    {
      "inputs": [
        {
          "internalType": "uint256",
          "name": "value",
          "type": "uint256"
        }
      ],
      "name": "initialize",
      "outputs": [],
      "stateMutability": "nonpayable",
      "type": "function"
    }
  ],
  "bytecode": "0x608060405234801561001057600080fd5b50610cd9806100206000396000f3fe608060405234801561001057600080fd5b506004361061009e5760003560e01c80638beaf7d7116100665780638beaf7d714610123578063ed7dfee31461013f578063f62d18881461015d578063fa39851f14610179578063fe4b84df146101975761009e565b80631c8aca3b146100a3578063237b5e96146100c15780634a6c9db6146100df5780636f2edbd2146100fd5780638129fc1c14610119575b600080fd5b6100ab6101b3565b6040516100b891906107da565b60405180910390f35b6100c96101b9565b6040516100d691906107da565b60405180910390f35b6100e76101bf565b6040516100f49190610810565b60405180910390f35b610117600480360381019061011291906109b1565b6101d2565b005b6101216102c9565b005b61013d60048036038101906101389190610a34565b6103bd565b005b6101476104a8565b60405161015491906107da565b60405180910390f35b61017760048036038101906101729190610a90565b6104ae565b005b6101816105a7565b60405161018e9190610b61565b60405180910390f35b6101b160048036038101906101ac9190610b83565b610635565b005b60035481565b60045481565b600060029054906101000a900460ff1681565b600060019054906101000a900460ff16806101f8575060008054906101000a900460ff16155b610237576040517f08c379a000000000000000000000000000000000000000000000000000000000815260040161022e90610c22565b60405180910390fd5b60008060019054906101000a900460ff161590508015610287576001600060016101000a81548160ff02191690831515021790555060016000806101000a81548160ff0219169083151502179055505b61029085610635565b61029a84846103bd565b8160048190555080156102c25760008060016101000a81548160ff0219169083151502179055505b5050505050565b600060019054906101000a900460ff16806102ef575060008054906101000a900460ff16155b61032e576040517f08c379a000000000000000000000000000000000000000000000000000000000815260040161032590610c22565b60405180910390fd5b60008060019054906101000a900460ff16159050801561037e576001600060016101000a81548160ff02191690831515021790555060016000806101000a81548160ff0219169083151502179055505b6001600060026101000a81548160ff02191690831515021790555080156103ba5760008060016101000a81548160ff0219169083151502179055505b50565b600060019054906101000a900460ff16806103e3575060008054906101000a900460ff16155b610422576040517f08c379a000000000000000000000000000000000000000000000000000000000815260040161041990610c22565b60405180910390fd5b60008060019054906101000a900460ff161590508015610472576001600060016101000a81548160ff02191690831515021790555060016000806101000a81548160ff0219169083151502179055505b61047b836104ae565b8160038190555080156104a35760008060016101000a81548160ff0219169083151502179055505b505050565b60015481565b600060019054906101000a900460ff16806104d4575060008054906101000a900460ff16155b610513576040517f08c379a000000000000000000000000000000000000000000000000000000000815260040161050a90610c22565b60405180910390fd5b60008060019054906101000a900460ff161590508015610563576001600060016101000a81548160ff02191690831515021790555060016000806101000a81548160ff0219169083151502179055505b61056b6102c9565b816002908051906020019061058192919061071e565b5080156105a35760008060016101000a81548160ff0219169083151502179055505b5050565b600280546105b490610c71565b80601f01602080910402602001604051908101604052809291908181526020018280546105e090610c71565b801561062d5780601f106106025761010080835404028352916020019161062d565b820191906000526020600020905b81548152906001019060200180831161061057829003601f168201915b505050505081565b600060019054906101000a900460ff168061065b575060008054906101000a900460ff16155b61069a576040517f08c379a000000000000000000000000000000000000000000000000000000000815260040161069190610c22565b60405180910390fd5b60008060019054906101000a900460ff1615905080156106ea576001600060016101000a81548160ff02191690831515021790555060016000806101000a81548160ff0219169083151502179055505b6106f26102c9565b81600181905550801561071a5760008060016101000a81548160ff0219169083151502179055505b5050565b82805461072a90610c71565b90600052602060002090601f01602090048101928261074c5760008555610793565b82601f1061076557805160ff1916838001178555610793565b82800160010185558215610793579182015b82811115610792578251825591602001919060010190610777565b5b5090506107a091906107a4565b5090565b5b808211156107bd5760008160009055506001016107a5565b5090565b6000819050919050565b6107d4816107c1565b82525050565b60006020820190506107ef60008301846107cb565b92915050565b60008115159050919050565b61080a816107f5565b82525050565b60006020820190506108256000830184610801565b92915050565b6000604051905090565b600080fd5b600080fd5b610848816107c1565b811461085357600080fd5b50565b6000813590506108658161083f565b92915050565b600080fd5b600080fd5b6000601f19601f8301169050919050565b7f4e487b7100000000000000000000000000000000000000000000000000000000600052604160045260246000fd5b6108be82610875565b810181811067ffffffffffffffff821117156108dd576108dc610886565b5b80604052505050565b60006108f061082b565b90506108fc82826108b5565b919050565b600067ffffffffffffffff82111561091c5761091b610886565b5b61092582610875565b9050602081019050919050565b82818337600083830152505050565b600061095461094f84610901565b6108e6565b9050828152602081018484840111156109705761096f610870565b5b61097b848285610932565b509392505050565b600082601f8301126109985761099761086b565b5b81356109a8848260208601610941565b91505092915050565b600080600080608085870312156109cb576109ca610835565b5b60006109d987828801610856565b945050602085013567ffffffffffffffff8111156109fa576109f961083a565b5b610a0687828801610983565b9350506040610a1787828801610856565b9250506060610a2887828801610856565b91505092959194509250565b60008060408385031215610a4b57610a4a610835565b5b600083013567ffffffffffffffff811115610a6957610a6861083a565b5b610a7585828601610983565b9250506020610a8685828601610856565b9150509250929050565b600060208284031215610aa657610aa5610835565b5b600082013567ffffffffffffffff811115610ac457610ac361083a565b5b610ad084828501610983565b91505092915050565b600081519050919050565b600082825260208201905092915050565b60005b83811015610b13578082015181840152602081019050610af8565b83811115610b22576000848401525b50505050565b6000610b3382610ad9565b610b3d8185610ae4565b9350610b4d818560208601610af5565b610b5681610875565b840191505092915050565b60006020820190508181036000830152610b7b8184610b28565b905092915050565b600060208284031215610b9957610b98610835565b5b6000610ba784828501610856565b91505092915050565b7f496e697469616c697a61626c653a20636f6e747261637420697320616c72656160008201527f647920696e697469616c697a6564000000000000000000000000000000000000602082015250565b6000610c0c602e83610ae4565b9150610c1782610bb0565b604082019050919050565b60006020820190508181036000830152610c3b81610bff565b9050919050565b7f4e487b7100000000000000000000000000000000000000000000000000000000600052602260045260246000fd5b60006002820490506001821680610c8957607f821691505b60208210811415610c9d57610c9c610c42565b5b5091905056fea26469706673582212205961471bfca607534e485821bb440c656404fa231ea0dc13abff552166a2a14864736f6c634300080a0033",
  "immutableReferences": {},
  "source": "// SPDX-License-Identifier: MIT\n\npragma solidity ^0.8.0;\n\nimport \"../proxy/utils/Initializable.sol\";\n\n// Sample contracts showing upgradeability with multiple inheritance.\n// Child contract inherits from Father and Mother contracts, and Father extends from Gramps.\n//\n//         Human\n//       /       \\\n//      |       Gramps\n//      |         |\n//    Mother    Father\n//      |         |\n//      -- Child --\n\n/**\n * Sample base intializable contract that is a human\n */\ncontract SampleHuman is Initializable {\n  bool public isHuman;\n\n  function initialize() public initializer {\n    isHuman = true;\n  }\n}\n\n/**\n * Sample base intializable contract that defines a field mother\n */\ncontract SampleMother is Initializable, SampleHuman {\n  uint256 public mother;\n\n  function initialize(uint256 value) public initializer virtual {\n    SampleHuman.initialize();\n    mother = value;\n  }\n}\n\n/**\n * Sample base intializable contract that defines a field gramps\n */\ncontract SampleGramps is Initializable, SampleHuman {\n  string public gramps;\n\n  function initialize(string memory value) public initializer virtual {\n    SampleHuman.initialize();\n    gramps = value;\n  }\n}\n\n/**\n * Sample base intializable contract that defines a field father and extends from gramps\n */\ncontract SampleFather is Initializable, SampleGramps {\n  uint256 public father;\n\n  function initialize(string memory _gramps, uint256 _father) public initializer {\n    SampleGramps.initialize(_gramps);\n    father = _father;\n  }\n}\n\n/**\n * Child extends from mother, father (gramps)\n */\ncontract SampleChild is Initializable, SampleMother, SampleFather {\n  uint256 public child;\n\n  function initialize(uint256 _mother, string memory _gramps, uint256 _father, uint256 _child) public initializer {\n    SampleMother.initialize(_mother);\n    SampleFather.initialize(_gramps, _father);\n    child = _child;\n  }\n}\n",
  "sourcePath": "D:\\FYP\\FYP\\Dapp\\src\\contracts\\openzeppelin-contracts-4.1.0\\openzeppelin-contracts-4.1.0\\contracts\\mocks\\MultipleInheritanceInitializableMocks.sol",
  "compiler": {
    "name": "solc",
    "version": "0.8.10+commit.fc410830.Emscripten.clang"
  },
  "schemaVersion": "3.4.3",
  "updatedAt": "2021-11-25T02:44:55.347Z",
  "devdoc": {
    "kind": "dev",
    "methods": {},
    "version": 1
  },
  "userdoc": {
    "kind": "user",
    "methods": {},
    "notice": "Child extends from mother, father (gramps)",
    "version": 1
  }
}