{
  "contractName": "SignatureCheckerMock",
  "abi": [
    {
      "inputs": [
        {
          "internalType": "address",
          "name": "signer",
          "type": "address"
        },
        {
          "internalType": "bytes32",
          "name": "hash",
          "type": "bytes32"
        },
        {
          "internalType": "bytes",
          "name": "signature",
          "type": "bytes"
        }
      ],
      "name": "isValidSignatureNow",
      "outputs": [
        {
          "internalType": "bool",
          "name": "",
          "type": "bool"
        }
      ],
      "stateMutability": "view",
      "type": "function"
    }
  ],
  "bytecode": "0x608060405234801561001057600080fd5b50610aa5806100206000396000f3fe608060405234801561001057600080fd5b506004361061002b5760003560e01c80636ccea65214610030575b600080fd5b61004a60048036038101906100459190610610565b610060565b604051610057919061069a565b60405180910390f35b600061008d83838673ffffffffffffffffffffffffffffffffffffffff166100969092919063ffffffff16565b90509392505050565b60006100a1846101ba565b15610178578373ffffffffffffffffffffffffffffffffffffffff16631626ba7e84846040518363ffffffff1660e01b81526004016100e192919061074c565b602060405180830381865afa92505050801561011b57506040513d601f19601f8201168201806040525081019061011891906107d4565b60015b61012857600090506101b3565b631626ba7e60e01b7bffffffffffffffffffffffffffffffffffffffffffffffffffffffff1916817bffffffffffffffffffffffffffffffffffffffffffffffffffffffff1916149150506101b3565b8373ffffffffffffffffffffffffffffffffffffffff1661019984846101cd565b73ffffffffffffffffffffffffffffffffffffffff161490505b9392505050565b600080823b905060008111915050919050565b6000806000806041855114156101fa576020850151925060408501519150606085015160001a9050610280565b604085511415610244576040850151602086015193507f7fffffffffffffffffffffffffffffffffffffffffffffffffffffffffffffff81169250601b8160ff1c0191505061027f565b6040517f08c379a00000000000000000000000000000000000000000000000000000000081526004016102769061085e565b60405180910390fd5b5b61028c86828585610297565b935050505092915050565b60007f7fffffffffffffffffffffffffffffff5d576e7357a4501ddfe92f46681b20a08260001c11156102ff576040517f08c379a00000000000000000000000000000000000000000000000000000000081526004016102f6906108f0565b60405180910390fd5b601b8460ff1614806103145750601c8460ff16145b610353576040517f08c379a000000000000000000000000000000000000000000000000000000000815260040161034a90610982565b60405180910390fd5b60006001868686866040516000815260200160405260405161037894939291906109be565b6020604051602081039080840390855afa15801561039a573d6000803e3d6000fd5b505050602060405103519050600073ffffffffffffffffffffffffffffffffffffffff168173ffffffffffffffffffffffffffffffffffffffff161415610416576040517f08c379a000000000000000000000000000000000000000000000000000000000815260040161040d90610a4f565b60405180910390fd5b80915050949350505050565b6000604051905090565b600080fd5b600080fd5b600073ffffffffffffffffffffffffffffffffffffffff82169050919050565b600061046182610436565b9050919050565b61047181610456565b811461047c57600080fd5b50565b60008135905061048e81610468565b92915050565b6000819050919050565b6104a781610494565b81146104b257600080fd5b50565b6000813590506104c48161049e565b92915050565b600080fd5b600080fd5b6000601f19601f8301169050919050565b7f4e487b7100000000000000000000000000000000000000000000000000000000600052604160045260246000fd5b61051d826104d4565b810181811067ffffffffffffffff8211171561053c5761053b6104e5565b5b80604052505050565b600061054f610422565b905061055b8282610514565b919050565b600067ffffffffffffffff82111561057b5761057a6104e5565b5b610584826104d4565b9050602081019050919050565b82818337600083830152505050565b60006105b36105ae84610560565b610545565b9050828152602081018484840111156105cf576105ce6104cf565b5b6105da848285610591565b509392505050565b600082601f8301126105f7576105f66104ca565b5b81356106078482602086016105a0565b91505092915050565b6000806000606084860312156106295761062861042c565b5b60006106378682870161047f565b9350506020610648868287016104b5565b925050604084013567ffffffffffffffff81111561066957610668610431565b5b610675868287016105e2565b9150509250925092565b60008115159050919050565b6106948161067f565b82525050565b60006020820190506106af600083018461068b565b92915050565b6106be81610494565b82525050565b600081519050919050565b600082825260208201905092915050565b60005b838110156106fe5780820151818401526020810190506106e3565b8381111561070d576000848401525b50505050565b600061071e826106c4565b61072881856106cf565b93506107388185602086016106e0565b610741816104d4565b840191505092915050565b600060408201905061076160008301856106b5565b81810360208301526107738184610713565b90509392505050565b60007fffffffff0000000000000000000000000000000000000000000000000000000082169050919050565b6107b18161077c565b81146107bc57600080fd5b50565b6000815190506107ce816107a8565b92915050565b6000602082840312156107ea576107e961042c565b5b60006107f8848285016107bf565b91505092915050565b600082825260208201905092915050565b7f45434453413a20696e76616c6964207369676e6174757265206c656e67746800600082015250565b6000610848601f83610801565b915061085382610812565b602082019050919050565b600060208201905081810360008301526108778161083b565b9050919050565b7f45434453413a20696e76616c6964207369676e6174757265202773272076616c60008201527f7565000000000000000000000000000000000000000000000000000000000000602082015250565b60006108da602283610801565b91506108e58261087e565b604082019050919050565b60006020820190508181036000830152610909816108cd565b9050919050565b7f45434453413a20696e76616c6964207369676e6174757265202776272076616c60008201527f7565000000000000000000000000000000000000000000000000000000000000602082015250565b600061096c602283610801565b915061097782610910565b604082019050919050565b6000602082019050818103600083015261099b8161095f565b9050919050565b600060ff82169050919050565b6109b8816109a2565b82525050565b60006080820190506109d360008301876106b5565b6109e060208301866109af565b6109ed60408301856106b5565b6109fa60608301846106b5565b95945050505050565b7f45434453413a20696e76616c6964207369676e61747572650000000000000000600082015250565b6000610a39601883610801565b9150610a4482610a03565b602082019050919050565b60006020820190508181036000830152610a6881610a2c565b905091905056fea26469706673582212203bfeb107a8beaccdcc73694ae7a36e0144200baf50dd14b83b59f81e49f495ec64736f6c634300080a0033",
  "immutableReferences": {},
  "source": "// SPDX-License-Identifier: MIT\n\npragma solidity ^0.8.0;\n\nimport \"../utils/cryptography/SignatureChecker.sol\";\n\ncontract SignatureCheckerMock {\n    using SignatureChecker for address;\n\n    function isValidSignatureNow(address signer, bytes32 hash, bytes memory signature) public view returns (bool) {\n        return signer.isValidSignatureNow(hash, signature);\n    }\n}\n",
  "sourcePath": "D:\\FYP\\FYP\\Dapp\\src\\contracts\\openzeppelin-contracts-4.1.0\\openzeppelin-contracts-4.1.0\\contracts\\mocks\\SignatureCheckerMock.sol",
  "compiler": {
    "name": "solc",
    "version": "0.8.10+commit.fc410830.Emscripten.clang"
  },
  "schemaVersion": "3.4.3",
  "updatedAt": "2021-11-25T02:44:55.591Z",
  "devdoc": {
    "kind": "dev",
    "methods": {},
    "version": 1
  },
  "userdoc": {
    "kind": "user",
    "methods": {},
    "version": 1
  }
}