{
  "contractName": "UUPSUpgradeableMock",
  "abi": [
    {
      "anonymous": false,
      "inputs": [
        {
          "indexed": false,
          "internalType": "address",
          "name": "previousAdmin",
          "type": "address"
        },
        {
          "indexed": false,
          "internalType": "address",
          "name": "newAdmin",
          "type": "address"
        }
      ],
      "name": "AdminChanged",
      "type": "event"
    },
    {
      "anonymous": false,
      "inputs": [
        {
          "indexed": true,
          "internalType": "address",
          "name": "beacon",
          "type": "address"
        }
      ],
      "name": "BeaconUpgraded",
      "type": "event"
    },
    {
      "anonymous": false,
      "inputs": [
        {
          "indexed": true,
          "internalType": "address",
          "name": "implementation",
          "type": "address"
        }
      ],
      "name": "Upgraded",
      "type": "event"
    },
    {
      "inputs": [],
      "name": "current",
      "outputs": [
        {
          "internalType": "uint256",
          "name": "",
          "type": "uint256"
        }
      ],
      "stateMutability": "view",
      "type": "function"
    },
    {
      "inputs": [],
      "name": "decrement",
      "outputs": [],
      "stateMutability": "nonpayable",
      "type": "function"
    },
    {
      "inputs": [],
      "name": "increment",
      "outputs": [],
      "stateMutability": "nonpayable",
      "type": "function"
    },
    {
      "inputs": [
        {
          "internalType": "address",
          "name": "newImplementation",
          "type": "address"
        }
      ],
      "name": "upgradeTo",
      "outputs": [],
      "stateMutability": "nonpayable",
      "type": "function"
    },
    {
      "inputs": [
        {
          "internalType": "address",
          "name": "newImplementation",
          "type": "address"
        },
        {
          "internalType": "bytes",
          "name": "data",
          "type": "bytes"
        }
      ],
      "name": "upgradeToAndCall",
      "outputs": [],
      "stateMutability": "payable",
      "type": "function"
    }
  ],
  "bytecode": "0x608060405234801561001057600080fd5b50610cab806100206000396000f3fe60806040526004361061004a5760003560e01c80632baeceb71461004f5780633659cfe6146100665780634f1ef2861461008f5780639fa6a6e3146100ab578063d09de08a146100d6575b600080fd5b34801561005b57600080fd5b506100646100ed565b005b34801561007257600080fd5b5061008d600480360381019061008891906106f7565b6100f9565b005b6100a960048036038101906100a4919061086a565b610120565b005b3480156100b757600080fd5b506100c0610139565b6040516100cd91906108df565b60405180910390f35b3480156100e257600080fd5b506100eb61014a565b005b6100f76000610156565b565b610102816101b2565b61011d816040518060200160405280600081525060006101b5565b50565b610129826101b2565b610135828260016101b5565b5050565b600061014560006103c9565b905090565b61015460006103d7565b565b600081600001549050600081116101a2576040517f08c379a000000000000000000000000000000000000000000000000000000000815260040161019990610957565b60405180910390fd5b6001810382600001819055505050565b50565b60006101bf6103ed565b90506101ca84610444565b6000835111806101d75750815b156101e8576101e684846104fd565b505b60006102167f4910fdfa16fed3260ed0e7147f7cc6da11a60208b5b9406d12a635614ffd914360001b61052a565b90508060000160009054906101000a900460ff166103c25760018160000160006101000a81548160ff0219169083151502179055506102e285836040516024016102609190610986565b6040516020818303038152906040527f3659cfe6000000000000000000000000000000000000000000000000000000007bffffffffffffffffffffffffffffffffffffffffffffffffffffffff19166020820180517bffffffffffffffffffffffffffffffffffffffffffffffffffffffff83818316178352505050506104fd565b5060008160000160006101000a81548160ff0219169083151502179055506103086103ed565b73ffffffffffffffffffffffffffffffffffffffff168273ffffffffffffffffffffffffffffffffffffffff1614610375576040517f08c379a000000000000000000000000000000000000000000000000000000000815260040161036c90610a13565b60405180910390fd5b61037e85610444565b8473ffffffffffffffffffffffffffffffffffffffff167fbc7cd75a20ee27fd9adebab32041f755214dbc6bffa90cc0225b39da2e5c2d3b60405160405180910390a25b5050505050565b600081600001549050919050565b6001816000016000828254019250508190555050565b600061041b7f360894a13ba1a3210667c828492db98dca3e2076cc3735a920a3ca505d382bbc60001b610534565b60000160009054906101000a900473ffffffffffffffffffffffffffffffffffffffff16905090565b61044d8161053e565b61048c576040517f08c379a000000000000000000000000000000000000000000000000000000000815260040161048390610aa5565b60405180910390fd5b806104b97f360894a13ba1a3210667c828492db98dca3e2076cc3735a920a3ca505d382bbc60001b610534565b60000160006101000a81548173ffffffffffffffffffffffffffffffffffffffff021916908373ffffffffffffffffffffffffffffffffffffffff16021790555050565b60606105228383604051806060016040528060278152602001610c4f60279139610551565b905092915050565b6000819050919050565b6000819050919050565b600080823b905060008111915050919050565b606061055c8461053e565b61059b576040517f08c379a000000000000000000000000000000000000000000000000000000000815260040161059290610b37565b60405180910390fd5b6000808573ffffffffffffffffffffffffffffffffffffffff16856040516105c39190610bd1565b600060405180830381855af49150503d80600081146105fe576040519150601f19603f3d011682016040523d82523d6000602084013e610603565b606091505b509150915061061382828661061e565b925050509392505050565b6060831561062e5782905061067e565b6000835111156106415782518084602001fd5b816040517f08c379a00000000000000000000000000000000000000000000000000000000081526004016106759190610c2c565b60405180910390fd5b9392505050565b6000604051905090565b600080fd5b600080fd5b600073ffffffffffffffffffffffffffffffffffffffff82169050919050565b60006106c482610699565b9050919050565b6106d4816106b9565b81146106df57600080fd5b50565b6000813590506106f1816106cb565b92915050565b60006020828403121561070d5761070c61068f565b5b600061071b848285016106e2565b91505092915050565b600080fd5b600080fd5b6000601f19601f8301169050919050565b7f4e487b7100000000000000000000000000000000000000000000000000000000600052604160045260246000fd5b6107778261072e565b810181811067ffffffffffffffff821117156107965761079561073f565b5b80604052505050565b60006107a9610685565b90506107b5828261076e565b919050565b600067ffffffffffffffff8211156107d5576107d461073f565b5b6107de8261072e565b9050602081019050919050565b82818337600083830152505050565b600061080d610808846107ba565b61079f565b90508281526020810184848401111561082957610828610729565b5b6108348482856107eb565b509392505050565b600082601f83011261085157610850610724565b5b81356108618482602086016107fa565b91505092915050565b600080604083850312156108815761088061068f565b5b600061088f858286016106e2565b925050602083013567ffffffffffffffff8111156108b0576108af610694565b5b6108bc8582860161083c565b9150509250929050565b6000819050919050565b6108d9816108c6565b82525050565b60006020820190506108f460008301846108d0565b92915050565b600082825260208201905092915050565b7f436f756e7465723a2064656372656d656e74206f766572666c6f770000000000600082015250565b6000610941601b836108fa565b915061094c8261090b565b602082019050919050565b6000602082019050818103600083015261097081610934565b9050919050565b610980816106b9565b82525050565b600060208201905061099b6000830184610977565b92915050565b7f45524331393637557067726164653a207570677261646520627265616b73206660008201527f7572746865722075706772616465730000000000000000000000000000000000602082015250565b60006109fd602f836108fa565b9150610a08826109a1565b604082019050919050565b60006020820190508181036000830152610a2c816109f0565b9050919050565b7f455243313936373a206e657720696d706c656d656e746174696f6e206973206e60008201527f6f74206120636f6e747261637400000000000000000000000000000000000000602082015250565b6000610a8f602d836108fa565b9150610a9a82610a33565b604082019050919050565b60006020820190508181036000830152610abe81610a82565b9050919050565b7f416464726573733a2064656c65676174652063616c6c20746f206e6f6e2d636f60008201527f6e74726163740000000000000000000000000000000000000000000000000000602082015250565b6000610b216026836108fa565b9150610b2c82610ac5565b604082019050919050565b60006020820190508181036000830152610b5081610b14565b9050919050565b600081519050919050565b600081905092915050565b60005b83811015610b8b578082015181840152602081019050610b70565b83811115610b9a576000848401525b50505050565b6000610bab82610b57565b610bb58185610b62565b9350610bc5818560208601610b6d565b80840191505092915050565b6000610bdd8284610ba0565b915081905092915050565b600081519050919050565b6000610bfe82610be8565b610c0881856108fa565b9350610c18818560208601610b6d565b610c218161072e565b840191505092915050565b60006020820190508181036000830152610c468184610bf3565b90509291505056fe416464726573733a206c6f772d6c6576656c2064656c65676174652063616c6c206661696c6564a26469706673582212209dff120c71ad45446dc9905147924c7de61cda4beb0797d1ec2803dc5af732df64736f6c634300080a0033",
  "immutableReferences": {},
  "source": "// SPDX-License-Identifier: MIT\n\npragma solidity ^0.8.0;\n\nimport \"../CountersImpl.sol\";\nimport \"../../proxy/utils/UUPSUpgradeable.sol\";\n\ncontract UUPSUpgradeableMock is CountersImpl, UUPSUpgradeable {\n    // Not having any checks in this function is dangerous! Do not do this outside tests!\n    function _authorizeUpgrade(address) internal virtual override {}\n}\n\ncontract UUPSUpgradeableUnsafeMock is UUPSUpgradeableMock {\n    function upgradeTo(address newImplementation) external virtual override {\n        ERC1967Upgrade._upgradeToAndCall(newImplementation, bytes(\"\"), false);\n    }\n\n    function upgradeToAndCall(address newImplementation, bytes memory data) external payable virtual override {\n        ERC1967Upgrade._upgradeToAndCall(newImplementation, data, false);\n    }\n}\n\ncontract UUPSUpgradeableBrokenMock is UUPSUpgradeableMock {\n    function upgradeTo(address) external virtual override {\n        // pass\n    }\n\n    function upgradeToAndCall(address, bytes memory) external payable virtual override {\n        // pass\n    }\n\n}\n",
  "sourcePath": "D:\\FYP\\FYP\\Dapp\\src\\contracts\\openzeppelin-contracts-4.1.0\\openzeppelin-contracts-4.1.0\\contracts\\mocks\\UUPS\\TestInProd.sol",
  "compiler": {
    "name": "solc",
    "version": "0.8.10+commit.fc410830.Emscripten.clang"
  },
  "schemaVersion": "3.4.3",
  "updatedAt": "2021-11-25T02:44:55.667Z",
  "devdoc": {
    "kind": "dev",
    "methods": {},
    "version": 1
  },
  "userdoc": {
    "kind": "user",
    "methods": {},
    "version": 1
  }
}