{
  "contractName": "UUPSUpgradeableBrokenMock",
  "abi": [
    {
      "anonymous": false,
      "inputs": [
        {
          "indexed": false,
          "internalType": "address",
          "name": "previousAdmin",
          "type": "address"
        },
        {
          "indexed": false,
          "internalType": "address",
          "name": "newAdmin",
          "type": "address"
        }
      ],
      "name": "AdminChanged",
      "type": "event"
    },
    {
      "anonymous": false,
      "inputs": [
        {
          "indexed": true,
          "internalType": "address",
          "name": "beacon",
          "type": "address"
        }
      ],
      "name": "BeaconUpgraded",
      "type": "event"
    },
    {
      "anonymous": false,
      "inputs": [
        {
          "indexed": true,
          "internalType": "address",
          "name": "implementation",
          "type": "address"
        }
      ],
      "name": "Upgraded",
      "type": "event"
    },
    {
      "inputs": [],
      "name": "current",
      "outputs": [
        {
          "internalType": "uint256",
          "name": "",
          "type": "uint256"
        }
      ],
      "stateMutability": "view",
      "type": "function"
    },
    {
      "inputs": [],
      "name": "decrement",
      "outputs": [],
      "stateMutability": "nonpayable",
      "type": "function"
    },
    {
      "inputs": [],
      "name": "increment",
      "outputs": [],
      "stateMutability": "nonpayable",
      "type": "function"
    },
    {
      "inputs": [
        {
          "internalType": "address",
          "name": "",
          "type": "address"
        }
      ],
      "name": "upgradeTo",
      "outputs": [],
      "stateMutability": "nonpayable",
      "type": "function"
    },
    {
      "inputs": [
        {
          "internalType": "address",
          "name": "",
          "type": "address"
        },
        {
          "internalType": "bytes",
          "name": "",
          "type": "bytes"
        }
      ],
      "name": "upgradeToAndCall",
      "outputs": [],
      "stateMutability": "payable",
      "type": "function"
    }
  ],
  "bytecode": "0x608060405234801561001057600080fd5b506104c5806100206000396000f3fe60806040526004361061004a5760003560e01c80632baeceb71461004f5780633659cfe6146100665780634f1ef2861461008f5780639fa6a6e3146100ab578063d09de08a146100d6575b600080fd5b34801561005b57600080fd5b506100646100ed565b005b34801561007257600080fd5b5061008d6004803603810190610088919061020f565b6100f9565b005b6100a960048036038101906100a49190610382565b6100fc565b005b3480156100b757600080fd5b506100c0610100565b6040516100cd91906103f7565b60405180910390f35b3480156100e257600080fd5b506100eb610111565b005b6100f7600061011d565b565b50565b5050565b600061010c6000610179565b905090565b61011b6000610187565b565b60008160000154905060008111610169576040517f08c379a00000000000000000000000000000000000000000000000000000000081526004016101609061046f565b60405180910390fd5b6001810382600001819055505050565b600081600001549050919050565b6001816000016000828254019250508190555050565b6000604051905090565b600080fd5b600080fd5b600073ffffffffffffffffffffffffffffffffffffffff82169050919050565b60006101dc826101b1565b9050919050565b6101ec816101d1565b81146101f757600080fd5b50565b600081359050610209816101e3565b92915050565b600060208284031215610225576102246101a7565b5b6000610233848285016101fa565b91505092915050565b600080fd5b600080fd5b6000601f19601f8301169050919050565b7f4e487b7100000000000000000000000000000000000000000000000000000000600052604160045260246000fd5b61028f82610246565b810181811067ffffffffffffffff821117156102ae576102ad610257565b5b80604052505050565b60006102c161019d565b90506102cd8282610286565b919050565b600067ffffffffffffffff8211156102ed576102ec610257565b5b6102f682610246565b9050602081019050919050565b82818337600083830152505050565b6000610325610320846102d2565b6102b7565b90508281526020810184848401111561034157610340610241565b5b61034c848285610303565b509392505050565b600082601f8301126103695761036861023c565b5b8135610379848260208601610312565b91505092915050565b60008060408385031215610399576103986101a7565b5b60006103a7858286016101fa565b925050602083013567ffffffffffffffff8111156103c8576103c76101ac565b5b6103d485828601610354565b9150509250929050565b6000819050919050565b6103f1816103de565b82525050565b600060208201905061040c60008301846103e8565b92915050565b600082825260208201905092915050565b7f436f756e7465723a2064656372656d656e74206f766572666c6f770000000000600082015250565b6000610459601b83610412565b915061046482610423565b602082019050919050565b600060208201905081810360008301526104888161044c565b905091905056fea264697066735822122041234fb7813c8cb6025692cea5e98241db081b3721b43678ef8d328b3fd3678464736f6c634300080a0033",
  "immutableReferences": {},
  "source": "// SPDX-License-Identifier: MIT\n\npragma solidity ^0.8.0;\n\nimport \"../CountersImpl.sol\";\nimport \"../../proxy/utils/UUPSUpgradeable.sol\";\n\ncontract UUPSUpgradeableMock is CountersImpl, UUPSUpgradeable {\n    // Not having any checks in this function is dangerous! Do not do this outside tests!\n    function _authorizeUpgrade(address) internal virtual override {}\n}\n\ncontract UUPSUpgradeableUnsafeMock is UUPSUpgradeableMock {\n    function upgradeTo(address newImplementation) external virtual override {\n        ERC1967Upgrade._upgradeToAndCall(newImplementation, bytes(\"\"), false);\n    }\n\n    function upgradeToAndCall(address newImplementation, bytes memory data) external payable virtual override {\n        ERC1967Upgrade._upgradeToAndCall(newImplementation, data, false);\n    }\n}\n\ncontract UUPSUpgradeableBrokenMock is UUPSUpgradeableMock {\n    function upgradeTo(address) external virtual override {\n        // pass\n    }\n\n    function upgradeToAndCall(address, bytes memory) external payable virtual override {\n        // pass\n    }\n\n}\n",
  "sourcePath": "D:\\FYP\\FYP\\Dapp\\src\\contracts\\openzeppelin-contracts-4.1.0\\openzeppelin-contracts-4.1.0\\contracts\\mocks\\UUPS\\TestInProd.sol",
  "compiler": {
    "name": "solc",
    "version": "0.8.10+commit.fc410830.Emscripten.clang"
  },
  "schemaVersion": "3.4.3",
  "updatedAt": "2021-11-25T02:44:55.658Z",
  "devdoc": {
    "kind": "dev",
    "methods": {},
    "version": 1
  },
  "userdoc": {
    "kind": "user",
    "methods": {},
    "version": 1
  }
}